{
	"modulo2/proyecto1/todolist.sol": {
		"ToDoList": {
			"abi": [
				{
					"anonymous": false,
					"inputs": [
						{
							"components": [
								{
									"internalType": "string",
									"name": "descripcion",
									"type": "string"
								},
								{
									"internalType": "uint256",
									"name": "tiempoDeCreacion",
									"type": "uint256"
								}
							],
							"indexed": false,
							"internalType": "struct ToDoList.Tarea",
							"name": "tarea",
							"type": "tuple"
						}
					],
					"name": "ToDoList_TareaAnadida",
					"type": "event"
				},
				{
					"anonymous": false,
					"inputs": [
						{
							"indexed": false,
							"internalType": "string",
							"name": "_descripcion",
							"type": "string"
						}
					],
					"name": "ToDoList_TareaCompletadaYEliminada",
					"type": "event"
				},
				{
					"inputs": [
						{
							"internalType": "string",
							"name": "_descripcion",
							"type": "string"
						}
					],
					"name": "eliminarTarea",
					"outputs": [],
					"stateMutability": "nonpayable",
					"type": "function"
				},
				{
					"inputs": [],
					"name": "getTarea",
					"outputs": [
						{
							"components": [
								{
									"internalType": "string",
									"name": "descripcion",
									"type": "string"
								},
								{
									"internalType": "uint256",
									"name": "tiempoDeCreacion",
									"type": "uint256"
								}
							],
							"internalType": "struct ToDoList.Tarea[]",
							"name": "tarea_",
							"type": "tuple[]"
						}
					],
					"stateMutability": "view",
					"type": "function"
				},
				{
					"inputs": [
						{
							"internalType": "uint256",
							"name": "",
							"type": "uint256"
						}
					],
					"name": "s_tareas",
					"outputs": [
						{
							"internalType": "string",
							"name": "descripcion",
							"type": "string"
						},
						{
							"internalType": "uint256",
							"name": "tiempoDeCreacion",
							"type": "uint256"
						}
					],
					"stateMutability": "view",
					"type": "function"
				},
				{
					"inputs": [
						{
							"internalType": "string",
							"name": "_descripcion",
							"type": "string"
						}
					],
					"name": "setTarea",
					"outputs": [],
					"stateMutability": "nonpayable",
					"type": "function"
				}
			],
			"devdoc": {
				"author": "i3arba - 77 Innovation Labs",
				"kind": "dev",
				"methods": {
					"eliminarTarea(string)": {
						"params": {
							"_descripcion": "Descripcion de la tarea que será eliminada"
						}
					},
					"getTarea()": {
						"returns": {
							"tarea_": "Array de tareas"
						}
					},
					"setTarea(string)": {
						"params": {
							"_descripcion": "La descripción de la tarea que se está añadiendo"
						}
					}
				},
				"title": "Contrato ToDoList",
				"version": 1
			},
			"evm": {
				"assembly": "    /* \"modulo2/proyecto1/todolist.sol\":185:2155  contract ToDoList {... */\n  mstore(0x40, 0x80)\n  callvalue\n  dup1\n  iszero\n  tag_1\n  jumpi\n  0x00\n  dup1\n  revert\ntag_1:\n  pop\n  dataSize(sub_0)\n  dup1\n  dataOffset(sub_0)\n  0x00\n  codecopy\n  0x00\n  return\nstop\n\nsub_0: assembly {\n        /* \"modulo2/proyecto1/todolist.sol\":185:2155  contract ToDoList {... */\n      mstore(0x40, 0x80)\n      callvalue\n      dup1\n      iszero\n      tag_1\n      jumpi\n      0x00\n      dup1\n      revert\n    tag_1:\n      pop\n      jumpi(tag_2, lt(calldatasize, 0x04))\n      shr(0xe0, calldataload(0x00))\n      dup1\n      0x92a3351a\n      eq\n      tag_3\n      jumpi\n      dup1\n      0x9550975a\n      eq\n      tag_4\n      jumpi\n      dup1\n      0xd06ba667\n      eq\n      tag_5\n      jumpi\n      dup1\n      0xd97546cc\n      eq\n      tag_6\n      jumpi\n    tag_2:\n      0x00\n      dup1\n      revert\n        /* \"modulo2/proyecto1/todolist.sol\":428:451  Tarea[] public s_tareas */\n    tag_3:\n      tag_7\n      0x04\n      dup1\n      calldatasize\n      sub\n      dup2\n      add\n      swap1\n      tag_8\n      swap2\n      swap1\n      tag_9\n      jump\t// in\n    tag_8:\n      tag_10\n      jump\t// in\n    tag_7:\n      mload(0x40)\n      tag_11\n      swap3\n      swap2\n      swap1\n      tag_12\n      jump\t// in\n    tag_11:\n      mload(0x40)\n      dup1\n      swap2\n      sub\n      swap1\n      return\n        /* \"modulo2/proyecto1/todolist.sol\":1331:1897  function eliminarTarea(string memory _descripcion) external {... */\n    tag_4:\n      tag_13\n      0x04\n      dup1\n      calldatasize\n      sub\n      dup2\n      add\n      swap1\n      tag_14\n      swap2\n      swap1\n      tag_15\n      jump\t// in\n    tag_14:\n      tag_16\n      jump\t// in\n    tag_13:\n      stop\n        /* \"modulo2/proyecto1/todolist.sol\":2052:2152  function getTarea() external view returns(Tarea[] memory tarea_){... */\n    tag_5:\n      tag_17\n      tag_18\n      jump\t// in\n    tag_17:\n      mload(0x40)\n      tag_19\n      swap2\n      swap1\n      tag_20\n      jump\t// in\n    tag_19:\n      mload(0x40)\n      dup1\n      swap2\n      sub\n      swap1\n      return\n        /* \"modulo2/proyecto1/todolist.sol\":892:1173  function setTarea(string memory _descripcion) external {... */\n    tag_6:\n      tag_21\n      0x04\n      dup1\n      calldatasize\n      sub\n      dup2\n      add\n      swap1\n      tag_22\n      swap2\n      swap1\n      tag_15\n      jump\t// in\n    tag_22:\n      tag_23\n      jump\t// in\n    tag_21:\n      stop\n        /* \"modulo2/proyecto1/todolist.sol\":428:451  Tarea[] public s_tareas */\n    tag_10:\n      0x00\n      dup2\n      dup2\n      sload\n      dup2\n      lt\n      tag_24\n      jumpi\n      0x00\n      dup1\n      revert\n    tag_24:\n      swap1\n      0x00\n      mstore\n      keccak256(0x00, 0x20)\n      swap1\n      0x02\n      mul\n      add\n      0x00\n      swap2\n      pop\n      swap1\n      pop\n      dup1\n      0x00\n      add\n      dup1\n      sload\n      tag_26\n      swap1\n      tag_27\n      jump\t// in\n    tag_26:\n      dup1\n      0x1f\n      add\n      0x20\n      dup1\n      swap2\n      div\n      mul\n      0x20\n      add\n      mload(0x40)\n      swap1\n      dup2\n      add\n      0x40\n      mstore\n      dup1\n      swap3\n      swap2\n      swap1\n      dup2\n      dup2\n      mstore\n      0x20\n      add\n      dup3\n      dup1\n      sload\n      tag_28\n      swap1\n      tag_27\n      jump\t// in\n    tag_28:\n      dup1\n      iszero\n      tag_29\n      jumpi\n      dup1\n      0x1f\n      lt\n      tag_30\n      jumpi\n      0x0100\n      dup1\n      dup4\n      sload\n      div\n      mul\n      dup4\n      mstore\n      swap2\n      0x20\n      add\n      swap2\n      jump(tag_29)\n    tag_30:\n      dup3\n      add\n      swap2\n      swap1\n      0x00\n      mstore\n      keccak256(0x00, 0x20)\n      swap1\n    tag_31:\n      dup2\n      sload\n      dup2\n      mstore\n      swap1\n      0x01\n      add\n      swap1\n      0x20\n      add\n      dup1\n      dup4\n      gt\n      tag_31\n      jumpi\n      dup3\n      swap1\n      sub\n      0x1f\n      and\n      dup3\n      add\n      swap2\n    tag_29:\n      pop\n      pop\n      pop\n      pop\n      pop\n      swap1\n      dup1\n      0x01\n      add\n      sload\n      swap1\n      pop\n      dup3\n      jump\t// out\n        /* \"modulo2/proyecto1/todolist.sol\":1331:1897  function eliminarTarea(string memory _descripcion) external {... */\n    tag_16:\n        /* \"modulo2/proyecto1/todolist.sol\":1402:1416  uint256 tamano */\n      0x00\n        /* \"modulo2/proyecto1/todolist.sol\":1419:1427  s_tareas */\n      dup1\n        /* \"modulo2/proyecto1/todolist.sol\":1419:1434  s_tareas.length */\n      dup1\n      sload\n      swap1\n      pop\n        /* \"modulo2/proyecto1/todolist.sol\":1402:1434  uint256 tamano = s_tareas.length */\n      swap1\n      pop\n        /* \"modulo2/proyecto1/todolist.sol\":1482:1491  uint256 i */\n      0x00\n        /* \"modulo2/proyecto1/todolist.sol\":1478:1890  for(uint256 i = 0; i < tamano; ++i){... */\n    tag_33:\n        /* \"modulo2/proyecto1/todolist.sol\":1501:1507  tamano */\n      dup2\n        /* \"modulo2/proyecto1/todolist.sol\":1497:1498  i */\n      dup2\n        /* \"modulo2/proyecto1/todolist.sol\":1497:1507  i < tamano */\n      lt\n        /* \"modulo2/proyecto1/todolist.sol\":1478:1890  for(uint256 i = 0; i < tamano; ++i){... */\n      iszero\n      tag_34\n      jumpi\n        /* \"modulo2/proyecto1/todolist.sol\":1603:1611  s_tareas */\n      0x00\n        /* \"modulo2/proyecto1/todolist.sol\":1612:1613  i */\n      dup2\n        /* \"modulo2/proyecto1/todolist.sol\":1603:1614  s_tareas[i] */\n      dup2\n      sload\n      dup2\n      lt\n      tag_36\n      jumpi\n      tag_37\n      tag_38\n      jump\t// in\n    tag_37:\n    tag_36:\n      swap1\n      0x00\n      mstore\n      keccak256(0x00, 0x20)\n      swap1\n      0x02\n      mul\n      add\n        /* \"modulo2/proyecto1/todolist.sol\":1603:1626  s_tareas[i].descripcion */\n      0x00\n      add\n        /* \"modulo2/proyecto1/todolist.sol\":1586:1627  abi.encodePacked(s_tareas[i].descripcion) */\n      add(0x20, mload(0x40))\n      tag_40\n      swap2\n      swap1\n      tag_41\n      jump\t// in\n    tag_40:\n      mload(0x40)\n      0x20\n      dup2\n      dup4\n      sub\n      sub\n      dup2\n      mstore\n      swap1\n      0x40\n      mstore\n        /* \"modulo2/proyecto1/todolist.sol\":1576:1628  keccak256(abi.encodePacked(s_tareas[i].descripcion)) */\n      dup1\n      mload\n      swap1\n      0x20\n      add\n      keccak256\n        /* \"modulo2/proyecto1/todolist.sol\":1558:1570  _descripcion */\n      dup4\n        /* \"modulo2/proyecto1/todolist.sol\":1541:1571  abi.encodePacked(_descripcion) */\n      add(0x20, mload(0x40))\n      tag_42\n      swap2\n      swap1\n      tag_43\n      jump\t// in\n    tag_42:\n      mload(0x40)\n      0x20\n      dup2\n      dup4\n      sub\n      sub\n      dup2\n      mstore\n      swap1\n      0x40\n      mstore\n        /* \"modulo2/proyecto1/todolist.sol\":1531:1572  keccak256(abi.encodePacked(_descripcion)) */\n      dup1\n      mload\n      swap1\n      0x20\n      add\n      keccak256\n        /* \"modulo2/proyecto1/todolist.sol\":1531:1628  keccak256(abi.encodePacked(_descripcion)) == keccak256(abi.encodePacked(s_tareas[i].descripcion)) */\n      sub\n        /* \"modulo2/proyecto1/todolist.sol\":1528:1879  if(keccak256(abi.encodePacked(_descripcion)) == keccak256(abi.encodePacked(s_tareas[i].descripcion))){... */\n      tag_44\n      jumpi\n        /* \"modulo2/proyecto1/todolist.sol\":1711:1719  s_tareas */\n      0x00\n        /* \"modulo2/proyecto1/todolist.sol\":1729:1730  1 */\n      0x01\n        /* \"modulo2/proyecto1/todolist.sol\":1720:1726  tamano */\n      dup4\n        /* \"modulo2/proyecto1/todolist.sol\":1720:1730  tamano - 1 */\n      tag_45\n      swap2\n      swap1\n      tag_46\n      jump\t// in\n    tag_45:\n        /* \"modulo2/proyecto1/todolist.sol\":1711:1731  s_tareas[tamano - 1] */\n      dup2\n      sload\n      dup2\n      lt\n      tag_47\n      jumpi\n      tag_48\n      tag_38\n      jump\t// in\n    tag_48:\n    tag_47:\n      swap1\n      0x00\n      mstore\n      keccak256(0x00, 0x20)\n      swap1\n      0x02\n      mul\n      add\n        /* \"modulo2/proyecto1/todolist.sol\":1697:1705  s_tareas */\n      0x00\n        /* \"modulo2/proyecto1/todolist.sol\":1706:1707  i */\n      dup3\n        /* \"modulo2/proyecto1/todolist.sol\":1697:1708  s_tareas[i] */\n      dup2\n      sload\n      dup2\n      lt\n      tag_50\n      jumpi\n      tag_51\n      tag_38\n      jump\t// in\n    tag_51:\n    tag_50:\n      swap1\n      0x00\n      mstore\n      keccak256(0x00, 0x20)\n      swap1\n      0x02\n      mul\n      add\n        /* \"modulo2/proyecto1/todolist.sol\":1697:1731  s_tareas[i] = s_tareas[tamano - 1] */\n      0x00\n      dup3\n      add\n      dup2\n      0x00\n      add\n      swap1\n      dup2\n      tag_53\n      swap2\n      swap1\n      tag_54\n      jump\t// in\n    tag_53:\n      pop\n      0x01\n      dup3\n      add\n      sload\n      dup2\n      0x01\n      add\n      sstore\n      swap1\n      pop\n      pop\n        /* \"modulo2/proyecto1/todolist.sol\":1750:1758  s_tareas */\n      0x00\n        /* \"modulo2/proyecto1/todolist.sol\":1750:1764  s_tareas.pop() */\n      dup1\n      sload\n      dup1\n      tag_55\n      jumpi\n      tag_56\n      tag_57\n      jump\t// in\n    tag_56:\n    tag_55:\n      0x01\n      swap1\n      sub\n      dup2\n      dup2\n      swap1\n      0x00\n      mstore\n      keccak256(0x00, 0x20)\n      swap1\n      0x02\n      mul\n      add\n      0x00\n      dup1\n      dup3\n      add\n      0x00\n      tag_59\n      swap2\n      swap1\n      tag_60\n      jump\t// in\n    tag_59:\n      0x01\n      dup3\n      add\n      0x00\n      swap1\n      sstore\n      pop\n      pop\n      swap1\n      sstore\n        /* \"modulo2/proyecto1/todolist.sol\":1790:1838  ToDoList_TareaCompletadaYEliminada(_descripcion) */\n      0x84280858adc9e4f831e1b5ec7eb6470e03e2425a3d599d520a240df5bf7cc875\n        /* \"modulo2/proyecto1/todolist.sol\":1825:1837  _descripcion */\n      dup4\n        /* \"modulo2/proyecto1/todolist.sol\":1790:1838  ToDoList_TareaCompletadaYEliminada(_descripcion) */\n      mload(0x40)\n      tag_61\n      swap2\n      swap1\n      tag_62\n      jump\t// in\n    tag_61:\n      mload(0x40)\n      dup1\n      swap2\n      sub\n      swap1\n      log1\n        /* \"modulo2/proyecto1/todolist.sol\":1857:1864  return; */\n      pop\n      pop\n      jump(tag_32)\n        /* \"modulo2/proyecto1/todolist.sol\":1528:1879  if(keccak256(abi.encodePacked(_descripcion)) == keccak256(abi.encodePacked(s_tareas[i].descripcion))){... */\n    tag_44:\n        /* \"modulo2/proyecto1/todolist.sol\":1509:1512  ++i */\n      dup1\n      0x01\n      add\n      swap1\n      pop\n        /* \"modulo2/proyecto1/todolist.sol\":1478:1890  for(uint256 i = 0; i < tamano; ++i){... */\n      jump(tag_33)\n    tag_34:\n      pop\n        /* \"modulo2/proyecto1/todolist.sol\":1391:1897  {... */\n      pop\n        /* \"modulo2/proyecto1/todolist.sol\":1331:1897  function eliminarTarea(string memory _descripcion) external {... */\n    tag_32:\n      pop\n      jump\t// out\n        /* \"modulo2/proyecto1/todolist.sol\":2052:2152  function getTarea() external view returns(Tarea[] memory tarea_){... */\n    tag_18:\n        /* \"modulo2/proyecto1/todolist.sol\":2094:2115  Tarea[] memory tarea_ */\n      0x60\n        /* \"modulo2/proyecto1/todolist.sol\":2136:2144  s_tareas */\n      0x00\n        /* \"modulo2/proyecto1/todolist.sol\":2127:2144  tarea_ = s_tareas */\n      dup1\n      sload\n      dup1\n      0x20\n      mul\n      0x20\n      add\n      mload(0x40)\n      swap1\n      dup2\n      add\n      0x40\n      mstore\n      dup1\n      swap3\n      swap2\n      swap1\n      dup2\n      dup2\n      mstore\n      0x20\n      add\n      0x00\n      swap1\n    tag_64:\n      dup3\n      dup3\n      lt\n      iszero\n      tag_65\n      jumpi\n      dup4\n      dup3\n      swap1\n      0x00\n      mstore\n      keccak256(0x00, 0x20)\n      swap1\n      0x02\n      mul\n      add\n      mload(0x40)\n      dup1\n      0x40\n      add\n      0x40\n      mstore\n      swap1\n      dup2\n      0x00\n      dup3\n      add\n      dup1\n      sload\n      tag_67\n      swap1\n      tag_27\n      jump\t// in\n    tag_67:\n      dup1\n      0x1f\n      add\n      0x20\n      dup1\n      swap2\n      div\n      mul\n      0x20\n      add\n      mload(0x40)\n      swap1\n      dup2\n      add\n      0x40\n      mstore\n      dup1\n      swap3\n      swap2\n      swap1\n      dup2\n      dup2\n      mstore\n      0x20\n      add\n      dup3\n      dup1\n      sload\n      tag_68\n      swap1\n      tag_27\n      jump\t// in\n    tag_68:\n      dup1\n      iszero\n      tag_69\n      jumpi\n      dup1\n      0x1f\n      lt\n      tag_70\n      jumpi\n      0x0100\n      dup1\n      dup4\n      sload\n      div\n      mul\n      dup4\n      mstore\n      swap2\n      0x20\n      add\n      swap2\n      jump(tag_69)\n    tag_70:\n      dup3\n      add\n      swap2\n      swap1\n      0x00\n      mstore\n      keccak256(0x00, 0x20)\n      swap1\n    tag_71:\n      dup2\n      sload\n      dup2\n      mstore\n      swap1\n      0x01\n      add\n      swap1\n      0x20\n      add\n      dup1\n      dup4\n      gt\n      tag_71\n      jumpi\n      dup3\n      swap1\n      sub\n      0x1f\n      and\n      dup3\n      add\n      swap2\n    tag_69:\n      pop\n      pop\n      pop\n      pop\n      pop\n      dup2\n      mstore\n      0x20\n      add\n      0x01\n      dup3\n      add\n      sload\n      dup2\n      mstore\n      pop\n      pop\n      dup2\n      mstore\n      0x20\n      add\n      swap1\n      0x01\n      add\n      swap1\n      jump(tag_64)\n    tag_65:\n      pop\n      pop\n      pop\n      pop\n      swap1\n      pop\n        /* \"modulo2/proyecto1/todolist.sol\":2052:2152  function getTarea() external view returns(Tarea[] memory tarea_){... */\n      swap1\n      jump\t// out\n        /* \"modulo2/proyecto1/todolist.sol\":892:1173  function setTarea(string memory _descripcion) external {... */\n    tag_23:\n        /* \"modulo2/proyecto1/todolist.sol\":958:976  Tarea memory tarea */\n      0x00\n        /* \"modulo2/proyecto1/todolist.sol\":979:1086  Tarea ({... */\n      mload(0x40)\n      dup1\n      0x40\n      add\n      0x40\n      mstore\n      dup1\n        /* \"modulo2/proyecto1/todolist.sol\":1014:1026  _descripcion */\n      dup4\n        /* \"modulo2/proyecto1/todolist.sol\":979:1086  Tarea ({... */\n      dup2\n      mstore\n      0x20\n      add\n        /* \"modulo2/proyecto1/todolist.sol\":1059:1074  block.timestamp */\n      timestamp\n        /* \"modulo2/proyecto1/todolist.sol\":979:1086  Tarea ({... */\n      dup2\n      mstore\n      pop\n        /* \"modulo2/proyecto1/todolist.sol\":958:1086  Tarea memory tarea = Tarea ({... */\n      swap1\n      pop\n        /* \"modulo2/proyecto1/todolist.sol\":1099:1107  s_tareas */\n      0x00\n        /* \"modulo2/proyecto1/todolist.sol\":1113:1118  tarea */\n      dup2\n        /* \"modulo2/proyecto1/todolist.sol\":1099:1119  s_tareas.push(tarea) */\n      swap1\n      dup1\n      0x01\n      dup2\n      sload\n      add\n      dup1\n      dup3\n      sstore\n      dup1\n      swap2\n      pop\n      pop\n      0x01\n      swap1\n      sub\n      swap1\n      0x00\n      mstore\n      keccak256(0x00, 0x20)\n      swap1\n      0x02\n      mul\n      add\n      0x00\n      swap1\n      swap2\n      swap1\n      swap2\n      swap1\n      swap2\n      pop\n      0x00\n      dup3\n      add\n      mload\n      dup2\n      0x00\n      add\n      swap1\n      dup2\n      tag_74\n      swap2\n      swap1\n      tag_75\n      jump\t// in\n    tag_74:\n      pop\n      0x20\n      dup3\n      add\n      mload\n      dup2\n      0x01\n      add\n      sstore\n      pop\n      pop\n        /* \"modulo2/proyecto1/todolist.sol\":1137:1165  ToDoList_TareaAnadida(tarea) */\n      0x729d56662bd244a0d14c77e8b01992ae4ee007438978bf5235e107847cb52120\n        /* \"modulo2/proyecto1/todolist.sol\":1159:1164  tarea */\n      dup2\n        /* \"modulo2/proyecto1/todolist.sol\":1137:1165  ToDoList_TareaAnadida(tarea) */\n      mload(0x40)\n      tag_76\n      swap2\n      swap1\n      tag_77\n      jump\t// in\n    tag_76:\n      mload(0x40)\n      dup1\n      swap2\n      sub\n      swap1\n      log1\n        /* \"modulo2/proyecto1/todolist.sol\":947:1173  {... */\n      pop\n        /* \"modulo2/proyecto1/todolist.sol\":892:1173  function setTarea(string memory _descripcion) external {... */\n      pop\n      jump\t// out\n    tag_60:\n      pop\n      dup1\n      sload\n      tag_78\n      swap1\n      tag_27\n      jump\t// in\n    tag_78:\n      0x00\n      dup3\n      sstore\n      dup1\n      0x1f\n      lt\n      tag_80\n      jumpi\n      pop\n      jump(tag_79)\n    tag_80:\n      0x1f\n      add\n      0x20\n      swap1\n      div\n      swap1\n      0x00\n      mstore\n      keccak256(0x00, 0x20)\n      swap1\n      dup2\n      add\n      swap1\n      tag_81\n      swap2\n      swap1\n      tag_82\n      jump\t// in\n    tag_81:\n    tag_79:\n      pop\n      jump\t// out\n    tag_82:\n    tag_83:\n      dup1\n      dup3\n      gt\n      iszero\n      tag_84\n      jumpi\n      0x00\n      dup2\n      0x00\n      swap1\n      sstore\n      pop\n      0x01\n      add\n      jump(tag_83)\n    tag_84:\n      pop\n      swap1\n      jump\t// out\n        /* \"#utility.yul\":7:82   */\n    tag_85:\n        /* \"#utility.yul\":40:46   */\n      0x00\n        /* \"#utility.yul\":73:75   */\n      0x40\n        /* \"#utility.yul\":67:76   */\n      mload\n        /* \"#utility.yul\":57:76   */\n      swap1\n      pop\n        /* \"#utility.yul\":7:82   */\n      swap1\n      jump\t// out\n        /* \"#utility.yul\":88:205   */\n    tag_86:\n        /* \"#utility.yul\":197:198   */\n      0x00\n        /* \"#utility.yul\":194:195   */\n      dup1\n        /* \"#utility.yul\":187:199   */\n      revert\n        /* \"#utility.yul\":211:328   */\n    tag_87:\n        /* \"#utility.yul\":320:321   */\n      0x00\n        /* \"#utility.yul\":317:318   */\n      dup1\n        /* \"#utility.yul\":310:322   */\n      revert\n        /* \"#utility.yul\":334:411   */\n    tag_88:\n        /* \"#utility.yul\":371:378   */\n      0x00\n        /* \"#utility.yul\":400:405   */\n      dup2\n        /* \"#utility.yul\":389:405   */\n      swap1\n      pop\n        /* \"#utility.yul\":334:411   */\n      swap2\n      swap1\n      pop\n      jump\t// out\n        /* \"#utility.yul\":417:539   */\n    tag_89:\n        /* \"#utility.yul\":490:514   */\n      tag_144\n        /* \"#utility.yul\":508:513   */\n      dup2\n        /* \"#utility.yul\":490:514   */\n      tag_88\n      jump\t// in\n    tag_144:\n        /* \"#utility.yul\":483:488   */\n      dup2\n        /* \"#utility.yul\":480:515   */\n      eq\n        /* \"#utility.yul\":470:533   */\n      tag_145\n      jumpi\n        /* \"#utility.yul\":529:530   */\n      0x00\n        /* \"#utility.yul\":526:527   */\n      dup1\n        /* \"#utility.yul\":519:531   */\n      revert\n        /* \"#utility.yul\":470:533   */\n    tag_145:\n        /* \"#utility.yul\":417:539   */\n      pop\n      jump\t// out\n        /* \"#utility.yul\":545:684   */\n    tag_90:\n        /* \"#utility.yul\":591:596   */\n      0x00\n        /* \"#utility.yul\":629:635   */\n      dup2\n        /* \"#utility.yul\":616:636   */\n      calldataload\n        /* \"#utility.yul\":607:636   */\n      swap1\n      pop\n        /* \"#utility.yul\":645:678   */\n      tag_147\n        /* \"#utility.yul\":672:677   */\n      dup2\n        /* \"#utility.yul\":645:678   */\n      tag_89\n      jump\t// in\n    tag_147:\n        /* \"#utility.yul\":545:684   */\n      swap3\n      swap2\n      pop\n      pop\n      jump\t// out\n        /* \"#utility.yul\":690:1019   */\n    tag_9:\n        /* \"#utility.yul\":749:755   */\n      0x00\n        /* \"#utility.yul\":798:800   */\n      0x20\n        /* \"#utility.yul\":786:795   */\n      dup3\n        /* \"#utility.yul\":777:784   */\n      dup5\n        /* \"#utility.yul\":773:796   */\n      sub\n        /* \"#utility.yul\":769:801   */\n      slt\n        /* \"#utility.yul\":766:885   */\n      iszero\n      tag_149\n      jumpi\n        /* \"#utility.yul\":804:883   */\n      tag_150\n      tag_86\n      jump\t// in\n    tag_150:\n        /* \"#utility.yul\":766:885   */\n    tag_149:\n        /* \"#utility.yul\":924:925   */\n      0x00\n        /* \"#utility.yul\":949:1002   */\n      tag_151\n        /* \"#utility.yul\":994:1001   */\n      dup5\n        /* \"#utility.yul\":985:991   */\n      dup3\n        /* \"#utility.yul\":974:983   */\n      dup6\n        /* \"#utility.yul\":970:992   */\n      add\n        /* \"#utility.yul\":949:1002   */\n      tag_90\n      jump\t// in\n    tag_151:\n        /* \"#utility.yul\":939:1002   */\n      swap2\n      pop\n        /* \"#utility.yul\":895:1012   */\n      pop\n        /* \"#utility.yul\":690:1019   */\n      swap3\n      swap2\n      pop\n      pop\n      jump\t// out\n        /* \"#utility.yul\":1025:1124   */\n    tag_91:\n        /* \"#utility.yul\":1077:1083   */\n      0x00\n        /* \"#utility.yul\":1111:1116   */\n      dup2\n        /* \"#utility.yul\":1105:1117   */\n      mload\n        /* \"#utility.yul\":1095:1117   */\n      swap1\n      pop\n        /* \"#utility.yul\":1025:1124   */\n      swap2\n      swap1\n      pop\n      jump\t// out\n        /* \"#utility.yul\":1130:1299   */\n    tag_92:\n        /* \"#utility.yul\":1214:1225   */\n      0x00\n        /* \"#utility.yul\":1248:1254   */\n      dup3\n        /* \"#utility.yul\":1243:1246   */\n      dup3\n        /* \"#utility.yul\":1236:1255   */\n      mstore\n        /* \"#utility.yul\":1288:1292   */\n      0x20\n        /* \"#utility.yul\":1283:1286   */\n      dup3\n        /* \"#utility.yul\":1279:1293   */\n      add\n        /* \"#utility.yul\":1264:1293   */\n      swap1\n      pop\n        /* \"#utility.yul\":1130:1299   */\n      swap3\n      swap2\n      pop\n      pop\n      jump\t// out\n        /* \"#utility.yul\":1305:1444   */\n    tag_93:\n        /* \"#utility.yul\":1394:1400   */\n      dup3\n        /* \"#utility.yul\":1389:1392   */\n      dup2\n        /* \"#utility.yul\":1384:1387   */\n      dup4\n        /* \"#utility.yul\":1378:1401   */\n      mcopy\n        /* \"#utility.yul\":1435:1436   */\n      0x00\n        /* \"#utility.yul\":1426:1432   */\n      dup4\n        /* \"#utility.yul\":1421:1424   */\n      dup4\n        /* \"#utility.yul\":1417:1433   */\n      add\n        /* \"#utility.yul\":1410:1437   */\n      mstore\n        /* \"#utility.yul\":1305:1444   */\n      pop\n      pop\n      pop\n      jump\t// out\n        /* \"#utility.yul\":1450:1552   */\n    tag_94:\n        /* \"#utility.yul\":1491:1497   */\n      0x00\n        /* \"#utility.yul\":1542:1544   */\n      0x1f\n        /* \"#utility.yul\":1538:1545   */\n      not\n        /* \"#utility.yul\":1533:1535   */\n      0x1f\n        /* \"#utility.yul\":1526:1531   */\n      dup4\n        /* \"#utility.yul\":1522:1536   */\n      add\n        /* \"#utility.yul\":1518:1546   */\n      and\n        /* \"#utility.yul\":1508:1546   */\n      swap1\n      pop\n        /* \"#utility.yul\":1450:1552   */\n      swap2\n      swap1\n      pop\n      jump\t// out\n        /* \"#utility.yul\":1558:1935   */\n    tag_95:\n        /* \"#utility.yul\":1646:1649   */\n      0x00\n        /* \"#utility.yul\":1674:1713   */\n      tag_157\n        /* \"#utility.yul\":1707:1712   */\n      dup3\n        /* \"#utility.yul\":1674:1713   */\n      tag_91\n      jump\t// in\n    tag_157:\n        /* \"#utility.yul\":1729:1800   */\n      tag_158\n        /* \"#utility.yul\":1793:1799   */\n      dup2\n        /* \"#utility.yul\":1788:1791   */\n      dup6\n        /* \"#utility.yul\":1729:1800   */\n      tag_92\n      jump\t// in\n    tag_158:\n        /* \"#utility.yul\":1722:1800   */\n      swap4\n      pop\n        /* \"#utility.yul\":1809:1874   */\n      tag_159\n        /* \"#utility.yul\":1867:1873   */\n      dup2\n        /* \"#utility.yul\":1862:1865   */\n      dup6\n        /* \"#utility.yul\":1855:1859   */\n      0x20\n        /* \"#utility.yul\":1848:1853   */\n      dup7\n        /* \"#utility.yul\":1844:1860   */\n      add\n        /* \"#utility.yul\":1809:1874   */\n      tag_93\n      jump\t// in\n    tag_159:\n        /* \"#utility.yul\":1899:1928   */\n      tag_160\n        /* \"#utility.yul\":1921:1927   */\n      dup2\n        /* \"#utility.yul\":1899:1928   */\n      tag_94\n      jump\t// in\n    tag_160:\n        /* \"#utility.yul\":1894:1897   */\n      dup5\n        /* \"#utility.yul\":1890:1929   */\n      add\n        /* \"#utility.yul\":1883:1929   */\n      swap2\n      pop\n        /* \"#utility.yul\":1650:1935   */\n      pop\n        /* \"#utility.yul\":1558:1935   */\n      swap3\n      swap2\n      pop\n      pop\n      jump\t// out\n        /* \"#utility.yul\":1941:2059   */\n    tag_96:\n        /* \"#utility.yul\":2028:2052   */\n      tag_162\n        /* \"#utility.yul\":2046:2051   */\n      dup2\n        /* \"#utility.yul\":2028:2052   */\n      tag_88\n      jump\t// in\n    tag_162:\n        /* \"#utility.yul\":2023:2026   */\n      dup3\n        /* \"#utility.yul\":2016:2053   */\n      mstore\n        /* \"#utility.yul\":1941:2059   */\n      pop\n      pop\n      jump\t// out\n        /* \"#utility.yul\":2065:2488   */\n    tag_12:\n        /* \"#utility.yul\":2206:2210   */\n      0x00\n        /* \"#utility.yul\":2244:2246   */\n      0x40\n        /* \"#utility.yul\":2233:2242   */\n      dup3\n        /* \"#utility.yul\":2229:2247   */\n      add\n        /* \"#utility.yul\":2221:2247   */\n      swap1\n      pop\n        /* \"#utility.yul\":2293:2302   */\n      dup2\n        /* \"#utility.yul\":2287:2291   */\n      dup2\n        /* \"#utility.yul\":2283:2303   */\n      sub\n        /* \"#utility.yul\":2279:2280   */\n      0x00\n        /* \"#utility.yul\":2268:2277   */\n      dup4\n        /* \"#utility.yul\":2264:2281   */\n      add\n        /* \"#utility.yul\":2257:2304   */\n      mstore\n        /* \"#utility.yul\":2321:2399   */\n      tag_164\n        /* \"#utility.yul\":2394:2398   */\n      dup2\n        /* \"#utility.yul\":2385:2391   */\n      dup6\n        /* \"#utility.yul\":2321:2399   */\n      tag_95\n      jump\t// in\n    tag_164:\n        /* \"#utility.yul\":2313:2399   */\n      swap1\n      pop\n        /* \"#utility.yul\":2409:2481   */\n      tag_165\n        /* \"#utility.yul\":2477:2479   */\n      0x20\n        /* \"#utility.yul\":2466:2475   */\n      dup4\n        /* \"#utility.yul\":2462:2480   */\n      add\n        /* \"#utility.yul\":2453:2459   */\n      dup5\n        /* \"#utility.yul\":2409:2481   */\n      tag_96\n      jump\t// in\n    tag_165:\n        /* \"#utility.yul\":2065:2488   */\n      swap4\n      swap3\n      pop\n      pop\n      pop\n      jump\t// out\n        /* \"#utility.yul\":2494:2611   */\n    tag_97:\n        /* \"#utility.yul\":2603:2604   */\n      0x00\n        /* \"#utility.yul\":2600:2601   */\n      dup1\n        /* \"#utility.yul\":2593:2605   */\n      revert\n        /* \"#utility.yul\":2617:2734   */\n    tag_98:\n        /* \"#utility.yul\":2726:2727   */\n      0x00\n        /* \"#utility.yul\":2723:2724   */\n      dup1\n        /* \"#utility.yul\":2716:2728   */\n      revert\n        /* \"#utility.yul\":2740:2920   */\n    tag_99:\n        /* \"#utility.yul\":2788:2865   */\n      0x4e487b7100000000000000000000000000000000000000000000000000000000\n        /* \"#utility.yul\":2785:2786   */\n      0x00\n        /* \"#utility.yul\":2778:2866   */\n      mstore\n        /* \"#utility.yul\":2885:2889   */\n      0x41\n        /* \"#utility.yul\":2882:2883   */\n      0x04\n        /* \"#utility.yul\":2875:2890   */\n      mstore\n        /* \"#utility.yul\":2909:2913   */\n      0x24\n        /* \"#utility.yul\":2906:2907   */\n      0x00\n        /* \"#utility.yul\":2899:2914   */\n      revert\n        /* \"#utility.yul\":2926:3207   */\n    tag_100:\n        /* \"#utility.yul\":3009:3036   */\n      tag_170\n        /* \"#utility.yul\":3031:3035   */\n      dup3\n        /* \"#utility.yul\":3009:3036   */\n      tag_94\n      jump\t// in\n    tag_170:\n        /* \"#utility.yul\":3001:3007   */\n      dup2\n        /* \"#utility.yul\":2997:3037   */\n      add\n        /* \"#utility.yul\":3139:3145   */\n      dup2\n        /* \"#utility.yul\":3127:3137   */\n      dup2\n        /* \"#utility.yul\":3124:3146   */\n      lt\n        /* \"#utility.yul\":3103:3121   */\n      0xffffffffffffffff\n        /* \"#utility.yul\":3091:3101   */\n      dup3\n        /* \"#utility.yul\":3088:3122   */\n      gt\n        /* \"#utility.yul\":3085:3147   */\n      or\n        /* \"#utility.yul\":3082:3170   */\n      iszero\n      tag_171\n      jumpi\n        /* \"#utility.yul\":3150:3168   */\n      tag_172\n      tag_99\n      jump\t// in\n    tag_172:\n        /* \"#utility.yul\":3082:3170   */\n    tag_171:\n        /* \"#utility.yul\":3190:3200   */\n      dup1\n        /* \"#utility.yul\":3186:3188   */\n      0x40\n        /* \"#utility.yul\":3179:3201   */\n      mstore\n        /* \"#utility.yul\":2969:3207   */\n      pop\n        /* \"#utility.yul\":2926:3207   */\n      pop\n      pop\n      jump\t// out\n        /* \"#utility.yul\":3213:3342   */\n    tag_101:\n        /* \"#utility.yul\":3247:3253   */\n      0x00\n        /* \"#utility.yul\":3274:3294   */\n      tag_174\n      tag_85\n      jump\t// in\n    tag_174:\n        /* \"#utility.yul\":3264:3294   */\n      swap1\n      pop\n        /* \"#utility.yul\":3303:3336   */\n      tag_175\n        /* \"#utility.yul\":3331:3335   */\n      dup3\n        /* \"#utility.yul\":3323:3329   */\n      dup3\n        /* \"#utility.yul\":3303:3336   */\n      tag_100\n      jump\t// in\n    tag_175:\n        /* \"#utility.yul\":3213:3342   */\n      swap2\n      swap1\n      pop\n      jump\t// out\n        /* \"#utility.yul\":3348:3656   */\n    tag_102:\n        /* \"#utility.yul\":3410:3414   */\n      0x00\n        /* \"#utility.yul\":3500:3518   */\n      0xffffffffffffffff\n        /* \"#utility.yul\":3492:3498   */\n      dup3\n        /* \"#utility.yul\":3489:3519   */\n      gt\n        /* \"#utility.yul\":3486:3542   */\n      iszero\n      tag_177\n      jumpi\n        /* \"#utility.yul\":3522:3540   */\n      tag_178\n      tag_99\n      jump\t// in\n    tag_178:\n        /* \"#utility.yul\":3486:3542   */\n    tag_177:\n        /* \"#utility.yul\":3560:3589   */\n      tag_179\n        /* \"#utility.yul\":3582:3588   */\n      dup3\n        /* \"#utility.yul\":3560:3589   */\n      tag_94\n      jump\t// in\n    tag_179:\n        /* \"#utility.yul\":3552:3589   */\n      swap1\n      pop\n        /* \"#utility.yul\":3644:3648   */\n      0x20\n        /* \"#utility.yul\":3638:3642   */\n      dup2\n        /* \"#utility.yul\":3634:3649   */\n      add\n        /* \"#utility.yul\":3626:3649   */\n      swap1\n      pop\n        /* \"#utility.yul\":3348:3656   */\n      swap2\n      swap1\n      pop\n      jump\t// out\n        /* \"#utility.yul\":3662:3810   */\n    tag_103:\n        /* \"#utility.yul\":3760:3766   */\n      dup3\n        /* \"#utility.yul\":3755:3758   */\n      dup2\n        /* \"#utility.yul\":3750:3753   */\n      dup4\n        /* \"#utility.yul\":3737:3767   */\n      calldatacopy\n        /* \"#utility.yul\":3801:3802   */\n      0x00\n        /* \"#utility.yul\":3792:3798   */\n      dup4\n        /* \"#utility.yul\":3787:3790   */\n      dup4\n        /* \"#utility.yul\":3783:3799   */\n      add\n        /* \"#utility.yul\":3776:3803   */\n      mstore\n        /* \"#utility.yul\":3662:3810   */\n      pop\n      pop\n      pop\n      jump\t// out\n        /* \"#utility.yul\":3816:4241   */\n    tag_104:\n        /* \"#utility.yul\":3894:3899   */\n      0x00\n        /* \"#utility.yul\":3919:3985   */\n      tag_182\n        /* \"#utility.yul\":3935:3984   */\n      tag_183\n        /* \"#utility.yul\":3977:3983   */\n      dup5\n        /* \"#utility.yul\":3935:3984   */\n      tag_102\n      jump\t// in\n    tag_183:\n        /* \"#utility.yul\":3919:3985   */\n      tag_101\n      jump\t// in\n    tag_182:\n        /* \"#utility.yul\":3910:3985   */\n      swap1\n      pop\n        /* \"#utility.yul\":4008:4014   */\n      dup3\n        /* \"#utility.yul\":4001:4006   */\n      dup2\n        /* \"#utility.yul\":3994:4015   */\n      mstore\n        /* \"#utility.yul\":4046:4050   */\n      0x20\n        /* \"#utility.yul\":4039:4044   */\n      dup2\n        /* \"#utility.yul\":4035:4051   */\n      add\n        /* \"#utility.yul\":4084:4087   */\n      dup5\n        /* \"#utility.yul\":4075:4081   */\n      dup5\n        /* \"#utility.yul\":4070:4073   */\n      dup5\n        /* \"#utility.yul\":4066:4082   */\n      add\n        /* \"#utility.yul\":4063:4088   */\n      gt\n        /* \"#utility.yul\":4060:4172   */\n      iszero\n      tag_184\n      jumpi\n        /* \"#utility.yul\":4091:4170   */\n      tag_185\n      tag_98\n      jump\t// in\n    tag_185:\n        /* \"#utility.yul\":4060:4172   */\n    tag_184:\n        /* \"#utility.yul\":4181:4235   */\n      tag_186\n        /* \"#utility.yul\":4228:4234   */\n      dup5\n        /* \"#utility.yul\":4223:4226   */\n      dup3\n        /* \"#utility.yul\":4218:4221   */\n      dup6\n        /* \"#utility.yul\":4181:4235   */\n      tag_103\n      jump\t// in\n    tag_186:\n        /* \"#utility.yul\":3900:4241   */\n      pop\n        /* \"#utility.yul\":3816:4241   */\n      swap4\n      swap3\n      pop\n      pop\n      pop\n      jump\t// out\n        /* \"#utility.yul\":4261:4601   */\n    tag_105:\n        /* \"#utility.yul\":4317:4322   */\n      0x00\n        /* \"#utility.yul\":4366:4369   */\n      dup3\n        /* \"#utility.yul\":4359:4363   */\n      0x1f\n        /* \"#utility.yul\":4351:4357   */\n      dup4\n        /* \"#utility.yul\":4347:4364   */\n      add\n        /* \"#utility.yul\":4343:4370   */\n      slt\n        /* \"#utility.yul\":4333:4455   */\n      tag_188\n      jumpi\n        /* \"#utility.yul\":4374:4453   */\n      tag_189\n      tag_97\n      jump\t// in\n    tag_189:\n        /* \"#utility.yul\":4333:4455   */\n    tag_188:\n        /* \"#utility.yul\":4491:4497   */\n      dup2\n        /* \"#utility.yul\":4478:4498   */\n      calldataload\n        /* \"#utility.yul\":4516:4595   */\n      tag_190\n        /* \"#utility.yul\":4591:4594   */\n      dup5\n        /* \"#utility.yul\":4583:4589   */\n      dup3\n        /* \"#utility.yul\":4576:4580   */\n      0x20\n        /* \"#utility.yul\":4568:4574   */\n      dup7\n        /* \"#utility.yul\":4564:4581   */\n      add\n        /* \"#utility.yul\":4516:4595   */\n      tag_104\n      jump\t// in\n    tag_190:\n        /* \"#utility.yul\":4507:4595   */\n      swap2\n      pop\n        /* \"#utility.yul\":4323:4601   */\n      pop\n        /* \"#utility.yul\":4261:4601   */\n      swap3\n      swap2\n      pop\n      pop\n      jump\t// out\n        /* \"#utility.yul\":4607:5116   */\n    tag_15:\n        /* \"#utility.yul\":4676:4682   */\n      0x00\n        /* \"#utility.yul\":4725:4727   */\n      0x20\n        /* \"#utility.yul\":4713:4722   */\n      dup3\n        /* \"#utility.yul\":4704:4711   */\n      dup5\n        /* \"#utility.yul\":4700:4723   */\n      sub\n        /* \"#utility.yul\":4696:4728   */\n      slt\n        /* \"#utility.yul\":4693:4812   */\n      iszero\n      tag_192\n      jumpi\n        /* \"#utility.yul\":4731:4810   */\n      tag_193\n      tag_86\n      jump\t// in\n    tag_193:\n        /* \"#utility.yul\":4693:4812   */\n    tag_192:\n        /* \"#utility.yul\":4879:4880   */\n      0x00\n        /* \"#utility.yul\":4868:4877   */\n      dup3\n        /* \"#utility.yul\":4864:4881   */\n      add\n        /* \"#utility.yul\":4851:4882   */\n      calldataload\n        /* \"#utility.yul\":4909:4927   */\n      0xffffffffffffffff\n        /* \"#utility.yul\":4901:4907   */\n      dup2\n        /* \"#utility.yul\":4898:4928   */\n      gt\n        /* \"#utility.yul\":4895:5012   */\n      iszero\n      tag_194\n      jumpi\n        /* \"#utility.yul\":4931:5010   */\n      tag_195\n      tag_87\n      jump\t// in\n    tag_195:\n        /* \"#utility.yul\":4895:5012   */\n    tag_194:\n        /* \"#utility.yul\":5036:5099   */\n      tag_196\n        /* \"#utility.yul\":5091:5098   */\n      dup5\n        /* \"#utility.yul\":5082:5088   */\n      dup3\n        /* \"#utility.yul\":5071:5080   */\n      dup6\n        /* \"#utility.yul\":5067:5089   */\n      add\n        /* \"#utility.yul\":5036:5099   */\n      tag_105\n      jump\t// in\n    tag_196:\n        /* \"#utility.yul\":5026:5099   */\n      swap2\n      pop\n        /* \"#utility.yul\":4822:5109   */\n      pop\n        /* \"#utility.yul\":4607:5116   */\n      swap3\n      swap2\n      pop\n      pop\n      jump\t// out\n        /* \"#utility.yul\":5122:5256   */\n    tag_106:\n        /* \"#utility.yul\":5209:5215   */\n      0x00\n        /* \"#utility.yul\":5243:5248   */\n      dup2\n        /* \"#utility.yul\":5237:5249   */\n      mload\n        /* \"#utility.yul\":5227:5249   */\n      swap1\n      pop\n        /* \"#utility.yul\":5122:5256   */\n      swap2\n      swap1\n      pop\n      jump\t// out\n        /* \"#utility.yul\":5262:5466   */\n    tag_107:\n        /* \"#utility.yul\":5381:5392   */\n      0x00\n        /* \"#utility.yul\":5415:5421   */\n      dup3\n        /* \"#utility.yul\":5410:5413   */\n      dup3\n        /* \"#utility.yul\":5403:5422   */\n      mstore\n        /* \"#utility.yul\":5455:5459   */\n      0x20\n        /* \"#utility.yul\":5450:5453   */\n      dup3\n        /* \"#utility.yul\":5446:5460   */\n      add\n        /* \"#utility.yul\":5431:5460   */\n      swap1\n      pop\n        /* \"#utility.yul\":5262:5466   */\n      swap3\n      swap2\n      pop\n      pop\n      jump\t// out\n        /* \"#utility.yul\":5472:5624   */\n    tag_108:\n        /* \"#utility.yul\":5559:5563   */\n      0x00\n        /* \"#utility.yul\":5582:5585   */\n      dup2\n        /* \"#utility.yul\":5574:5585   */\n      swap1\n      pop\n        /* \"#utility.yul\":5612:5616   */\n      0x20\n        /* \"#utility.yul\":5607:5610   */\n      dup3\n        /* \"#utility.yul\":5603:5617   */\n      add\n        /* \"#utility.yul\":5595:5617   */\n      swap1\n      pop\n        /* \"#utility.yul\":5472:5624   */\n      swap2\n      swap1\n      pop\n      jump\t// out\n        /* \"#utility.yul\":5630:5789   */\n    tag_109:\n        /* \"#utility.yul\":5704:5715   */\n      0x00\n        /* \"#utility.yul\":5738:5744   */\n      dup3\n        /* \"#utility.yul\":5733:5736   */\n      dup3\n        /* \"#utility.yul\":5726:5745   */\n      mstore\n        /* \"#utility.yul\":5778:5782   */\n      0x20\n        /* \"#utility.yul\":5773:5776   */\n      dup3\n        /* \"#utility.yul\":5769:5783   */\n      add\n        /* \"#utility.yul\":5754:5783   */\n      swap1\n      pop\n        /* \"#utility.yul\":5630:5789   */\n      swap3\n      swap2\n      pop\n      pop\n      jump\t// out\n        /* \"#utility.yul\":5795:6152   */\n    tag_110:\n        /* \"#utility.yul\":5873:5876   */\n      0x00\n        /* \"#utility.yul\":5901:5940   */\n      tag_202\n        /* \"#utility.yul\":5934:5939   */\n      dup3\n        /* \"#utility.yul\":5901:5940   */\n      tag_91\n      jump\t// in\n    tag_202:\n        /* \"#utility.yul\":5956:6017   */\n      tag_203\n        /* \"#utility.yul\":6010:6016   */\n      dup2\n        /* \"#utility.yul\":6005:6008   */\n      dup6\n        /* \"#utility.yul\":5956:6017   */\n      tag_109\n      jump\t// in\n    tag_203:\n        /* \"#utility.yul\":5949:6017   */\n      swap4\n      pop\n        /* \"#utility.yul\":6026:6091   */\n      tag_204\n        /* \"#utility.yul\":6084:6090   */\n      dup2\n        /* \"#utility.yul\":6079:6082   */\n      dup6\n        /* \"#utility.yul\":6072:6076   */\n      0x20\n        /* \"#utility.yul\":6065:6070   */\n      dup7\n        /* \"#utility.yul\":6061:6077   */\n      add\n        /* \"#utility.yul\":6026:6091   */\n      tag_93\n      jump\t// in\n    tag_204:\n        /* \"#utility.yul\":6116:6145   */\n      tag_205\n        /* \"#utility.yul\":6138:6144   */\n      dup2\n        /* \"#utility.yul\":6116:6145   */\n      tag_94\n      jump\t// in\n    tag_205:\n        /* \"#utility.yul\":6111:6114   */\n      dup5\n        /* \"#utility.yul\":6107:6146   */\n      add\n        /* \"#utility.yul\":6100:6146   */\n      swap2\n      pop\n        /* \"#utility.yul\":5877:6152   */\n      pop\n        /* \"#utility.yul\":5795:6152   */\n      swap3\n      swap2\n      pop\n      pop\n      jump\t// out\n        /* \"#utility.yul\":6158:6266   */\n    tag_111:\n        /* \"#utility.yul\":6235:6259   */\n      tag_207\n        /* \"#utility.yul\":6253:6258   */\n      dup2\n        /* \"#utility.yul\":6235:6259   */\n      tag_88\n      jump\t// in\n    tag_207:\n        /* \"#utility.yul\":6230:6233   */\n      dup3\n        /* \"#utility.yul\":6223:6260   */\n      mstore\n        /* \"#utility.yul\":6158:6266   */\n      pop\n      pop\n      jump\t// out\n        /* \"#utility.yul\":6326:6931   */\n    tag_112:\n        /* \"#utility.yul\":6425:6428   */\n      0x00\n        /* \"#utility.yul\":6461:6465   */\n      0x40\n        /* \"#utility.yul\":6456:6459   */\n      dup4\n        /* \"#utility.yul\":6452:6466   */\n      add\n        /* \"#utility.yul\":6555:6559   */\n      0x00\n        /* \"#utility.yul\":6548:6553   */\n      dup4\n        /* \"#utility.yul\":6544:6560   */\n      add\n        /* \"#utility.yul\":6538:6561   */\n      mload\n        /* \"#utility.yul\":6608:6611   */\n      dup5\n        /* \"#utility.yul\":6602:6606   */\n      dup3\n        /* \"#utility.yul\":6598:6612   */\n      sub\n        /* \"#utility.yul\":6591:6595   */\n      0x00\n        /* \"#utility.yul\":6586:6589   */\n      dup7\n        /* \"#utility.yul\":6582:6596   */\n      add\n        /* \"#utility.yul\":6575:6613   */\n      mstore\n        /* \"#utility.yul\":6634:6707   */\n      tag_209\n        /* \"#utility.yul\":6702:6706   */\n      dup3\n        /* \"#utility.yul\":6688:6700   */\n      dup3\n        /* \"#utility.yul\":6634:6707   */\n      tag_110\n      jump\t// in\n    tag_209:\n        /* \"#utility.yul\":6626:6707   */\n      swap2\n      pop\n        /* \"#utility.yul\":6476:6718   */\n      pop\n        /* \"#utility.yul\":6812:6816   */\n      0x20\n        /* \"#utility.yul\":6805:6810   */\n      dup4\n        /* \"#utility.yul\":6801:6817   */\n      add\n        /* \"#utility.yul\":6795:6818   */\n      mload\n        /* \"#utility.yul\":6831:6894   */\n      tag_210\n        /* \"#utility.yul\":6888:6892   */\n      0x20\n        /* \"#utility.yul\":6883:6886   */\n      dup7\n        /* \"#utility.yul\":6879:6893   */\n      add\n        /* \"#utility.yul\":6865:6877   */\n      dup3\n        /* \"#utility.yul\":6831:6894   */\n      tag_111\n      jump\t// in\n    tag_210:\n        /* \"#utility.yul\":6728:6904   */\n      pop\n        /* \"#utility.yul\":6921:6925   */\n      dup1\n        /* \"#utility.yul\":6914:6925   */\n      swap2\n      pop\n        /* \"#utility.yul\":6430:6931   */\n      pop\n        /* \"#utility.yul\":6326:6931   */\n      swap3\n      swap2\n      pop\n      pop\n      jump\t// out\n        /* \"#utility.yul\":6937:7173   */\n    tag_113:\n        /* \"#utility.yul\":7046:7056   */\n      0x00\n        /* \"#utility.yul\":7081:7167   */\n      tag_212\n        /* \"#utility.yul\":7163:7166   */\n      dup4\n        /* \"#utility.yul\":7155:7161   */\n      dup4\n        /* \"#utility.yul\":7081:7167   */\n      tag_112\n      jump\t// in\n    tag_212:\n        /* \"#utility.yul\":7067:7167   */\n      swap1\n      pop\n        /* \"#utility.yul\":6937:7173   */\n      swap3\n      swap2\n      pop\n      pop\n      jump\t// out\n        /* \"#utility.yul\":7179:7312   */\n    tag_114:\n        /* \"#utility.yul\":7269:7273   */\n      0x00\n        /* \"#utility.yul\":7301:7305   */\n      0x20\n        /* \"#utility.yul\":7296:7299   */\n      dup3\n        /* \"#utility.yul\":7292:7306   */\n      add\n        /* \"#utility.yul\":7284:7306   */\n      swap1\n      pop\n        /* \"#utility.yul\":7179:7312   */\n      swap2\n      swap1\n      pop\n      jump\t// out\n        /* \"#utility.yul\":7376:8447   */\n    tag_115:\n        /* \"#utility.yul\":7535:7538   */\n      0x00\n        /* \"#utility.yul\":7564:7638   */\n      tag_215\n        /* \"#utility.yul\":7632:7637   */\n      dup3\n        /* \"#utility.yul\":7564:7638   */\n      tag_106\n      jump\t// in\n    tag_215:\n        /* \"#utility.yul\":7654:7760   */\n      tag_216\n        /* \"#utility.yul\":7753:7759   */\n      dup2\n        /* \"#utility.yul\":7748:7751   */\n      dup6\n        /* \"#utility.yul\":7654:7760   */\n      tag_107\n      jump\t// in\n    tag_216:\n        /* \"#utility.yul\":7647:7760   */\n      swap4\n      pop\n        /* \"#utility.yul\":7786:7789   */\n      dup4\n        /* \"#utility.yul\":7831:7835   */\n      0x20\n        /* \"#utility.yul\":7823:7829   */\n      dup3\n        /* \"#utility.yul\":7819:7836   */\n      mul\n        /* \"#utility.yul\":7814:7817   */\n      dup6\n        /* \"#utility.yul\":7810:7837   */\n      add\n        /* \"#utility.yul\":7861:7937   */\n      tag_217\n        /* \"#utility.yul\":7931:7936   */\n      dup6\n        /* \"#utility.yul\":7861:7937   */\n      tag_108\n      jump\t// in\n    tag_217:\n        /* \"#utility.yul\":7960:7967   */\n      dup1\n        /* \"#utility.yul\":7991:7992   */\n      0x00\n        /* \"#utility.yul\":7976:8402   */\n    tag_218:\n        /* \"#utility.yul\":8001:8007   */\n      dup6\n        /* \"#utility.yul\":7998:7999   */\n      dup2\n        /* \"#utility.yul\":7995:8008   */\n      lt\n        /* \"#utility.yul\":7976:8402   */\n      iszero\n      tag_220\n      jumpi\n        /* \"#utility.yul\":8072:8081   */\n      dup5\n        /* \"#utility.yul\":8066:8070   */\n      dup5\n        /* \"#utility.yul\":8062:8082   */\n      sub\n        /* \"#utility.yul\":8057:8060   */\n      dup10\n        /* \"#utility.yul\":8050:8083   */\n      mstore\n        /* \"#utility.yul\":8123:8129   */\n      dup2\n        /* \"#utility.yul\":8117:8130   */\n      mload\n        /* \"#utility.yul\":8151:8255   */\n      tag_221\n        /* \"#utility.yul\":8250:8254   */\n      dup6\n        /* \"#utility.yul\":8235:8248   */\n      dup3\n        /* \"#utility.yul\":8151:8255   */\n      tag_113\n      jump\t// in\n    tag_221:\n        /* \"#utility.yul\":8143:8255   */\n      swap5\n      pop\n        /* \"#utility.yul\":8278:8358   */\n      tag_222\n        /* \"#utility.yul\":8351:8357   */\n      dup4\n        /* \"#utility.yul\":8278:8358   */\n      tag_114\n      jump\t// in\n    tag_222:\n        /* \"#utility.yul\":8268:8358   */\n      swap3\n      pop\n        /* \"#utility.yul\":8387:8391   */\n      0x20\n        /* \"#utility.yul\":8382:8385   */\n      dup11\n        /* \"#utility.yul\":8378:8392   */\n      add\n        /* \"#utility.yul\":8371:8392   */\n      swap10\n      pop\n        /* \"#utility.yul\":8036:8402   */\n      pop\n        /* \"#utility.yul\":8023:8024   */\n      0x01\n        /* \"#utility.yul\":8020:8021   */\n      dup2\n        /* \"#utility.yul\":8016:8025   */\n      add\n        /* \"#utility.yul\":8011:8025   */\n      swap1\n      pop\n        /* \"#utility.yul\":7976:8402   */\n      jump(tag_218)\n    tag_220:\n        /* \"#utility.yul\":7980:7994   */\n      pop\n        /* \"#utility.yul\":8418:8422   */\n      dup3\n        /* \"#utility.yul\":8411:8422   */\n      swap8\n      pop\n        /* \"#utility.yul\":8438:8441   */\n      dup8\n        /* \"#utility.yul\":8431:8441   */\n      swap6\n      pop\n        /* \"#utility.yul\":7540:8447   */\n      pop\n      pop\n      pop\n      pop\n      pop\n        /* \"#utility.yul\":7376:8447   */\n      swap3\n      swap2\n      pop\n      pop\n      jump\t// out\n        /* \"#utility.yul\":8453:8906   */\n    tag_20:\n        /* \"#utility.yul\":8636:8640   */\n      0x00\n        /* \"#utility.yul\":8674:8676   */\n      0x20\n        /* \"#utility.yul\":8663:8672   */\n      dup3\n        /* \"#utility.yul\":8659:8677   */\n      add\n        /* \"#utility.yul\":8651:8677   */\n      swap1\n      pop\n        /* \"#utility.yul\":8723:8732   */\n      dup2\n        /* \"#utility.yul\":8717:8721   */\n      dup2\n        /* \"#utility.yul\":8713:8733   */\n      sub\n        /* \"#utility.yul\":8709:8710   */\n      0x00\n        /* \"#utility.yul\":8698:8707   */\n      dup4\n        /* \"#utility.yul\":8694:8711   */\n      add\n        /* \"#utility.yul\":8687:8734   */\n      mstore\n        /* \"#utility.yul\":8751:8899   */\n      tag_224\n        /* \"#utility.yul\":8894:8898   */\n      dup2\n        /* \"#utility.yul\":8885:8891   */\n      dup5\n        /* \"#utility.yul\":8751:8899   */\n      tag_115\n      jump\t// in\n    tag_224:\n        /* \"#utility.yul\":8743:8899   */\n      swap1\n      pop\n        /* \"#utility.yul\":8453:8906   */\n      swap3\n      swap2\n      pop\n      pop\n      jump\t// out\n        /* \"#utility.yul\":8912:9092   */\n    tag_116:\n        /* \"#utility.yul\":8960:9037   */\n      0x4e487b7100000000000000000000000000000000000000000000000000000000\n        /* \"#utility.yul\":8957:8958   */\n      0x00\n        /* \"#utility.yul\":8950:9038   */\n      mstore\n        /* \"#utility.yul\":9057:9061   */\n      0x22\n        /* \"#utility.yul\":9054:9055   */\n      0x04\n        /* \"#utility.yul\":9047:9062   */\n      mstore\n        /* \"#utility.yul\":9081:9085   */\n      0x24\n        /* \"#utility.yul\":9078:9079   */\n      0x00\n        /* \"#utility.yul\":9071:9086   */\n      revert\n        /* \"#utility.yul\":9098:9418   */\n    tag_27:\n        /* \"#utility.yul\":9142:9148   */\n      0x00\n        /* \"#utility.yul\":9179:9180   */\n      0x02\n        /* \"#utility.yul\":9173:9177   */\n      dup3\n        /* \"#utility.yul\":9169:9181   */\n      div\n        /* \"#utility.yul\":9159:9181   */\n      swap1\n      pop\n        /* \"#utility.yul\":9226:9227   */\n      0x01\n        /* \"#utility.yul\":9220:9224   */\n      dup3\n        /* \"#utility.yul\":9216:9228   */\n      and\n        /* \"#utility.yul\":9247:9265   */\n      dup1\n        /* \"#utility.yul\":9237:9318   */\n      tag_227\n      jumpi\n        /* \"#utility.yul\":9303:9307   */\n      0x7f\n        /* \"#utility.yul\":9295:9301   */\n      dup3\n        /* \"#utility.yul\":9291:9308   */\n      and\n        /* \"#utility.yul\":9281:9308   */\n      swap2\n      pop\n        /* \"#utility.yul\":9237:9318   */\n    tag_227:\n        /* \"#utility.yul\":9365:9367   */\n      0x20\n        /* \"#utility.yul\":9357:9363   */\n      dup3\n        /* \"#utility.yul\":9354:9368   */\n      lt\n        /* \"#utility.yul\":9334:9352   */\n      dup2\n        /* \"#utility.yul\":9331:9369   */\n      sub\n        /* \"#utility.yul\":9328:9412   */\n      tag_228\n      jumpi\n        /* \"#utility.yul\":9384:9402   */\n      tag_229\n      tag_116\n      jump\t// in\n    tag_229:\n        /* \"#utility.yul\":9328:9412   */\n    tag_228:\n        /* \"#utility.yul\":9149:9418   */\n      pop\n        /* \"#utility.yul\":9098:9418   */\n      swap2\n      swap1\n      pop\n      jump\t// out\n        /* \"#utility.yul\":9424:9604   */\n    tag_38:\n        /* \"#utility.yul\":9472:9549   */\n      0x4e487b7100000000000000000000000000000000000000000000000000000000\n        /* \"#utility.yul\":9469:9470   */\n      0x00\n        /* \"#utility.yul\":9462:9550   */\n      mstore\n        /* \"#utility.yul\":9569:9573   */\n      0x32\n        /* \"#utility.yul\":9566:9567   */\n      0x04\n        /* \"#utility.yul\":9559:9574   */\n      mstore\n        /* \"#utility.yul\":9593:9597   */\n      0x24\n        /* \"#utility.yul\":9590:9591   */\n      0x00\n        /* \"#utility.yul\":9583:9598   */\n      revert\n        /* \"#utility.yul\":9610:9758   */\n    tag_117:\n        /* \"#utility.yul\":9712:9723   */\n      0x00\n        /* \"#utility.yul\":9749:9752   */\n      dup2\n        /* \"#utility.yul\":9734:9752   */\n      swap1\n      pop\n        /* \"#utility.yul\":9610:9758   */\n      swap3\n      swap2\n      pop\n      pop\n      jump\t// out\n        /* \"#utility.yul\":9764:9905   */\n    tag_118:\n        /* \"#utility.yul\":9813:9817   */\n      0x00\n        /* \"#utility.yul\":9836:9839   */\n      dup2\n        /* \"#utility.yul\":9828:9839   */\n      swap1\n      pop\n        /* \"#utility.yul\":9859:9862   */\n      dup2\n        /* \"#utility.yul\":9856:9857   */\n      0x00\n        /* \"#utility.yul\":9849:9863   */\n      mstore\n        /* \"#utility.yul\":9893:9897   */\n      0x20\n        /* \"#utility.yul\":9890:9891   */\n      0x00\n        /* \"#utility.yul\":9880:9898   */\n      keccak256\n        /* \"#utility.yul\":9872:9898   */\n      swap1\n      pop\n        /* \"#utility.yul\":9764:9905   */\n      swap2\n      swap1\n      pop\n      jump\t// out\n        /* \"#utility.yul\":9935:10809   */\n    tag_119:\n        /* \"#utility.yul\":10038:10041   */\n      0x00\n        /* \"#utility.yul\":10075:10080   */\n      dup2\n        /* \"#utility.yul\":10069:10081   */\n      sload\n        /* \"#utility.yul\":10104:10140   */\n      tag_234\n        /* \"#utility.yul\":10130:10139   */\n      dup2\n        /* \"#utility.yul\":10104:10140   */\n      tag_27\n      jump\t// in\n    tag_234:\n        /* \"#utility.yul\":10156:10245   */\n      tag_235\n        /* \"#utility.yul\":10238:10244   */\n      dup2\n        /* \"#utility.yul\":10233:10236   */\n      dup7\n        /* \"#utility.yul\":10156:10245   */\n      tag_117\n      jump\t// in\n    tag_235:\n        /* \"#utility.yul\":10149:10245   */\n      swap5\n      pop\n        /* \"#utility.yul\":10276:10277   */\n      0x01\n        /* \"#utility.yul\":10265:10274   */\n      dup3\n        /* \"#utility.yul\":10261:10278   */\n      and\n        /* \"#utility.yul\":10292:10293   */\n      0x00\n        /* \"#utility.yul\":10287:10453   */\n      dup2\n      eq\n      tag_237\n      jumpi\n        /* \"#utility.yul\":10467:10468   */\n      0x01\n        /* \"#utility.yul\":10462:10803   */\n      dup2\n      eq\n      tag_238\n      jumpi\n        /* \"#utility.yul\":10254:10803   */\n      jump(tag_236)\n        /* \"#utility.yul\":10287:10453   */\n    tag_237:\n        /* \"#utility.yul\":10371:10375   */\n      0xff\n        /* \"#utility.yul\":10367:10376   */\n      not\n        /* \"#utility.yul\":10356:10365   */\n      dup4\n        /* \"#utility.yul\":10352:10377   */\n      and\n        /* \"#utility.yul\":10347:10350   */\n      dup7\n        /* \"#utility.yul\":10340:10378   */\n      mstore\n        /* \"#utility.yul\":10433:10439   */\n      dup2\n        /* \"#utility.yul\":10426:10440   */\n      iszero\n        /* \"#utility.yul\":10419:10441   */\n      iszero\n        /* \"#utility.yul\":10411:10417   */\n      dup3\n        /* \"#utility.yul\":10407:10442   */\n      mul\n        /* \"#utility.yul\":10402:10405   */\n      dup7\n        /* \"#utility.yul\":10398:10443   */\n      add\n        /* \"#utility.yul\":10391:10443   */\n      swap4\n      pop\n        /* \"#utility.yul\":10287:10453   */\n      jump(tag_236)\n        /* \"#utility.yul\":10462:10803   */\n    tag_238:\n        /* \"#utility.yul\":10529:10567   */\n      tag_239\n        /* \"#utility.yul\":10561:10566   */\n      dup6\n        /* \"#utility.yul\":10529:10567   */\n      tag_118\n      jump\t// in\n    tag_239:\n        /* \"#utility.yul\":10589:10590   */\n      0x00\n        /* \"#utility.yul\":10603:10757   */\n    tag_240:\n        /* \"#utility.yul\":10617:10623   */\n      dup4\n        /* \"#utility.yul\":10614:10615   */\n      dup2\n        /* \"#utility.yul\":10611:10624   */\n      lt\n        /* \"#utility.yul\":10603:10757   */\n      iszero\n      tag_242\n      jumpi\n        /* \"#utility.yul\":10691:10698   */\n      dup2\n        /* \"#utility.yul\":10685:10699   */\n      sload\n        /* \"#utility.yul\":10681:10682   */\n      dup2\n        /* \"#utility.yul\":10676:10679   */\n      dup10\n        /* \"#utility.yul\":10672:10683   */\n      add\n        /* \"#utility.yul\":10665:10700   */\n      mstore\n        /* \"#utility.yul\":10741:10742   */\n      0x01\n        /* \"#utility.yul\":10732:10739   */\n      dup3\n        /* \"#utility.yul\":10728:10743   */\n      add\n        /* \"#utility.yul\":10717:10743   */\n      swap2\n      pop\n        /* \"#utility.yul\":10639:10643   */\n      0x20\n        /* \"#utility.yul\":10636:10637   */\n      dup2\n        /* \"#utility.yul\":10632:10644   */\n      add\n        /* \"#utility.yul\":10627:10644   */\n      swap1\n      pop\n        /* \"#utility.yul\":10603:10757   */\n      jump(tag_240)\n    tag_242:\n        /* \"#utility.yul\":10786:10792   */\n      dup4\n        /* \"#utility.yul\":10781:10784   */\n      dup9\n        /* \"#utility.yul\":10777:10793   */\n      add\n        /* \"#utility.yul\":10770:10793   */\n      swap6\n      pop\n        /* \"#utility.yul\":10469:10803   */\n      pop\n      pop\n        /* \"#utility.yul\":10254:10803   */\n    tag_236:\n      pop\n        /* \"#utility.yul\":10042:10809   */\n      pop\n      pop\n        /* \"#utility.yul\":9935:10809   */\n      swap3\n      swap2\n      pop\n      pop\n      jump\t// out\n        /* \"#utility.yul\":10815:11084   */\n    tag_41:\n        /* \"#utility.yul\":10944:10947   */\n      0x00\n        /* \"#utility.yul\":10966:11058   */\n      tag_244\n        /* \"#utility.yul\":11054:11057   */\n      dup3\n        /* \"#utility.yul\":11045:11051   */\n      dup5\n        /* \"#utility.yul\":10966:11058   */\n      tag_119\n      jump\t// in\n    tag_244:\n        /* \"#utility.yul\":10959:11058   */\n      swap2\n      pop\n        /* \"#utility.yul\":11075:11078   */\n      dup2\n        /* \"#utility.yul\":11068:11078   */\n      swap1\n      pop\n        /* \"#utility.yul\":10815:11084   */\n      swap3\n      swap2\n      pop\n      pop\n      jump\t// out\n        /* \"#utility.yul\":11090:11480   */\n    tag_120:\n        /* \"#utility.yul\":11196:11199   */\n      0x00\n        /* \"#utility.yul\":11224:11263   */\n      tag_246\n        /* \"#utility.yul\":11257:11262   */\n      dup3\n        /* \"#utility.yul\":11224:11263   */\n      tag_91\n      jump\t// in\n    tag_246:\n        /* \"#utility.yul\":11279:11368   */\n      tag_247\n        /* \"#utility.yul\":11361:11367   */\n      dup2\n        /* \"#utility.yul\":11356:11359   */\n      dup6\n        /* \"#utility.yul\":11279:11368   */\n      tag_117\n      jump\t// in\n    tag_247:\n        /* \"#utility.yul\":11272:11368   */\n      swap4\n      pop\n        /* \"#utility.yul\":11377:11442   */\n      tag_248\n        /* \"#utility.yul\":11435:11441   */\n      dup2\n        /* \"#utility.yul\":11430:11433   */\n      dup6\n        /* \"#utility.yul\":11423:11427   */\n      0x20\n        /* \"#utility.yul\":11416:11421   */\n      dup7\n        /* \"#utility.yul\":11412:11428   */\n      add\n        /* \"#utility.yul\":11377:11442   */\n      tag_93\n      jump\t// in\n    tag_248:\n        /* \"#utility.yul\":11467:11473   */\n      dup1\n        /* \"#utility.yul\":11462:11465   */\n      dup5\n        /* \"#utility.yul\":11458:11474   */\n      add\n        /* \"#utility.yul\":11451:11474   */\n      swap2\n      pop\n        /* \"#utility.yul\":11200:11480   */\n      pop\n        /* \"#utility.yul\":11090:11480   */\n      swap3\n      swap2\n      pop\n      pop\n      jump\t// out\n        /* \"#utility.yul\":11486:11761   */\n    tag_43:\n        /* \"#utility.yul\":11618:11621   */\n      0x00\n        /* \"#utility.yul\":11640:11735   */\n      tag_250\n        /* \"#utility.yul\":11731:11734   */\n      dup3\n        /* \"#utility.yul\":11722:11728   */\n      dup5\n        /* \"#utility.yul\":11640:11735   */\n      tag_120\n      jump\t// in\n    tag_250:\n        /* \"#utility.yul\":11633:11735   */\n      swap2\n      pop\n        /* \"#utility.yul\":11752:11755   */\n      dup2\n        /* \"#utility.yul\":11745:11755   */\n      swap1\n      pop\n        /* \"#utility.yul\":11486:11761   */\n      swap3\n      swap2\n      pop\n      pop\n      jump\t// out\n        /* \"#utility.yul\":11767:11947   */\n    tag_121:\n        /* \"#utility.yul\":11815:11892   */\n      0x4e487b7100000000000000000000000000000000000000000000000000000000\n        /* \"#utility.yul\":11812:11813   */\n      0x00\n        /* \"#utility.yul\":11805:11893   */\n      mstore\n        /* \"#utility.yul\":11912:11916   */\n      0x11\n        /* \"#utility.yul\":11909:11910   */\n      0x04\n        /* \"#utility.yul\":11902:11917   */\n      mstore\n        /* \"#utility.yul\":11936:11940   */\n      0x24\n        /* \"#utility.yul\":11933:11934   */\n      0x00\n        /* \"#utility.yul\":11926:11941   */\n      revert\n        /* \"#utility.yul\":11953:12147   */\n    tag_46:\n        /* \"#utility.yul\":11993:11997   */\n      0x00\n        /* \"#utility.yul\":12013:12033   */\n      tag_253\n        /* \"#utility.yul\":12031:12032   */\n      dup3\n        /* \"#utility.yul\":12013:12033   */\n      tag_88\n      jump\t// in\n    tag_253:\n        /* \"#utility.yul\":12008:12033   */\n      swap2\n      pop\n        /* \"#utility.yul\":12047:12067   */\n      tag_254\n        /* \"#utility.yul\":12065:12066   */\n      dup4\n        /* \"#utility.yul\":12047:12067   */\n      tag_88\n      jump\t// in\n    tag_254:\n        /* \"#utility.yul\":12042:12067   */\n      swap3\n      pop\n        /* \"#utility.yul\":12091:12092   */\n      dup3\n        /* \"#utility.yul\":12088:12089   */\n      dup3\n        /* \"#utility.yul\":12084:12093   */\n      sub\n        /* \"#utility.yul\":12076:12093   */\n      swap1\n      pop\n        /* \"#utility.yul\":12115:12116   */\n      dup2\n        /* \"#utility.yul\":12109:12113   */\n      dup2\n        /* \"#utility.yul\":12106:12117   */\n      gt\n        /* \"#utility.yul\":12103:12140   */\n      iszero\n      tag_255\n      jumpi\n        /* \"#utility.yul\":12120:12138   */\n      tag_256\n      tag_121\n      jump\t// in\n    tag_256:\n        /* \"#utility.yul\":12103:12140   */\n    tag_255:\n        /* \"#utility.yul\":11953:12147   */\n      swap3\n      swap2\n      pop\n      pop\n      jump\t// out\n        /* \"#utility.yul\":12153:12302   */\n    tag_122:\n        /* \"#utility.yul\":12202:12208   */\n      0x00\n        /* \"#utility.yul\":12236:12241   */\n      dup2\n        /* \"#utility.yul\":12230:12242   */\n      sload\n        /* \"#utility.yul\":12220:12242   */\n      swap1\n      pop\n        /* \"#utility.yul\":12262:12295   */\n      tag_258\n        /* \"#utility.yul\":12288:12294   */\n      dup2\n        /* \"#utility.yul\":12262:12295   */\n      tag_27\n      jump\t// in\n    tag_258:\n        /* \"#utility.yul\":12252:12295   */\n      swap1\n      pop\n        /* \"#utility.yul\":12153:12302   */\n      swap2\n      swap1\n      pop\n      jump\t// out\n        /* \"#utility.yul\":12308:12401   */\n    tag_123:\n        /* \"#utility.yul\":12345:12351   */\n      0x00\n        /* \"#utility.yul\":12392:12394   */\n      0x20\n        /* \"#utility.yul\":12387:12389   */\n      0x1f\n        /* \"#utility.yul\":12380:12385   */\n      dup4\n        /* \"#utility.yul\":12376:12390   */\n      add\n        /* \"#utility.yul\":12372:12395   */\n      div\n        /* \"#utility.yul\":12362:12395   */\n      swap1\n      pop\n        /* \"#utility.yul\":12308:12401   */\n      swap2\n      swap1\n      pop\n      jump\t// out\n        /* \"#utility.yul\":12407:12514   */\n    tag_124:\n        /* \"#utility.yul\":12451:12459   */\n      0x00\n        /* \"#utility.yul\":12501:12506   */\n      dup3\n        /* \"#utility.yul\":12495:12499   */\n      dup3\n        /* \"#utility.yul\":12491:12507   */\n      shl\n        /* \"#utility.yul\":12470:12507   */\n      swap1\n      pop\n        /* \"#utility.yul\":12407:12514   */\n      swap3\n      swap2\n      pop\n      pop\n      jump\t// out\n        /* \"#utility.yul\":12520:12913   */\n    tag_125:\n        /* \"#utility.yul\":12589:12595   */\n      0x00\n        /* \"#utility.yul\":12639:12640   */\n      0x08\n        /* \"#utility.yul\":12627:12637   */\n      dup4\n        /* \"#utility.yul\":12623:12641   */\n      mul\n        /* \"#utility.yul\":12662:12759   */\n      tag_262\n        /* \"#utility.yul\":12692:12758   */\n      0xffffffffffffffffffffffffffffffffffffffffffffffffffffffffffffffff\n        /* \"#utility.yul\":12681:12690   */\n      dup3\n        /* \"#utility.yul\":12662:12759   */\n      tag_124\n      jump\t// in\n    tag_262:\n        /* \"#utility.yul\":12780:12819   */\n      tag_263\n        /* \"#utility.yul\":12810:12818   */\n      dup7\n        /* \"#utility.yul\":12799:12808   */\n      dup4\n        /* \"#utility.yul\":12780:12819   */\n      tag_124\n      jump\t// in\n    tag_263:\n        /* \"#utility.yul\":12768:12819   */\n      swap6\n      pop\n        /* \"#utility.yul\":12852:12856   */\n      dup1\n        /* \"#utility.yul\":12848:12857   */\n      not\n        /* \"#utility.yul\":12841:12846   */\n      dup5\n        /* \"#utility.yul\":12837:12858   */\n      and\n        /* \"#utility.yul\":12828:12858   */\n      swap4\n      pop\n        /* \"#utility.yul\":12901:12905   */\n      dup1\n        /* \"#utility.yul\":12891:12899   */\n      dup7\n        /* \"#utility.yul\":12887:12906   */\n      and\n        /* \"#utility.yul\":12880:12885   */\n      dup5\n        /* \"#utility.yul\":12877:12907   */\n      or\n        /* \"#utility.yul\":12867:12907   */\n      swap3\n      pop\n        /* \"#utility.yul\":12596:12913   */\n      pop\n      pop\n        /* \"#utility.yul\":12520:12913   */\n      swap4\n      swap3\n      pop\n      pop\n      pop\n      jump\t// out\n        /* \"#utility.yul\":12919:12979   */\n    tag_126:\n        /* \"#utility.yul\":12947:12950   */\n      0x00\n        /* \"#utility.yul\":12968:12973   */\n      dup2\n        /* \"#utility.yul\":12961:12973   */\n      swap1\n      pop\n        /* \"#utility.yul\":12919:12979   */\n      swap2\n      swap1\n      pop\n      jump\t// out\n        /* \"#utility.yul\":12985:13127   */\n    tag_127:\n        /* \"#utility.yul\":13035:13044   */\n      0x00\n        /* \"#utility.yul\":13068:13121   */\n      tag_266\n        /* \"#utility.yul\":13086:13120   */\n      tag_267\n        /* \"#utility.yul\":13095:13119   */\n      tag_268\n        /* \"#utility.yul\":13113:13118   */\n      dup5\n        /* \"#utility.yul\":13095:13119   */\n      tag_88\n      jump\t// in\n    tag_268:\n        /* \"#utility.yul\":13086:13120   */\n      tag_126\n      jump\t// in\n    tag_267:\n        /* \"#utility.yul\":13068:13121   */\n      tag_88\n      jump\t// in\n    tag_266:\n        /* \"#utility.yul\":13055:13121   */\n      swap1\n      pop\n        /* \"#utility.yul\":12985:13127   */\n      swap2\n      swap1\n      pop\n      jump\t// out\n        /* \"#utility.yul\":13133:13208   */\n    tag_128:\n        /* \"#utility.yul\":13176:13179   */\n      0x00\n        /* \"#utility.yul\":13197:13202   */\n      dup2\n        /* \"#utility.yul\":13190:13202   */\n      swap1\n      pop\n        /* \"#utility.yul\":13133:13208   */\n      swap2\n      swap1\n      pop\n      jump\t// out\n        /* \"#utility.yul\":13214:13483   */\n    tag_129:\n        /* \"#utility.yul\":13324:13363   */\n      tag_271\n        /* \"#utility.yul\":13355:13362   */\n      dup4\n        /* \"#utility.yul\":13324:13363   */\n      tag_127\n      jump\t// in\n    tag_271:\n        /* \"#utility.yul\":13385:13476   */\n      tag_272\n        /* \"#utility.yul\":13434:13475   */\n      tag_273\n        /* \"#utility.yul\":13458:13474   */\n      dup3\n        /* \"#utility.yul\":13434:13475   */\n      tag_128\n      jump\t// in\n    tag_273:\n        /* \"#utility.yul\":13426:13432   */\n      dup5\n        /* \"#utility.yul\":13419:13423   */\n      dup5\n        /* \"#utility.yul\":13413:13424   */\n      sload\n        /* \"#utility.yul\":13385:13476   */\n      tag_125\n      jump\t// in\n    tag_272:\n        /* \"#utility.yul\":13379:13383   */\n      dup3\n        /* \"#utility.yul\":13372:13477   */\n      sstore\n        /* \"#utility.yul\":13290:13483   */\n      pop\n        /* \"#utility.yul\":13214:13483   */\n      pop\n      pop\n      pop\n      jump\t// out\n        /* \"#utility.yul\":13489:13562   */\n    tag_130:\n        /* \"#utility.yul\":13534:13537   */\n      0x00\n        /* \"#utility.yul\":13489:13562   */\n      swap1\n      jump\t// out\n        /* \"#utility.yul\":13568:13757   */\n    tag_131:\n        /* \"#utility.yul\":13645:13677   */\n      tag_276\n      tag_130\n      jump\t// in\n    tag_276:\n        /* \"#utility.yul\":13686:13751   */\n      tag_277\n        /* \"#utility.yul\":13744:13750   */\n      dup2\n        /* \"#utility.yul\":13736:13742   */\n      dup5\n        /* \"#utility.yul\":13730:13734   */\n      dup5\n        /* \"#utility.yul\":13686:13751   */\n      tag_129\n      jump\t// in\n    tag_277:\n        /* \"#utility.yul\":13621:13757   */\n      pop\n        /* \"#utility.yul\":13568:13757   */\n      pop\n      pop\n      jump\t// out\n        /* \"#utility.yul\":13763:13949   */\n    tag_132:\n        /* \"#utility.yul\":13823:13943   */\n    tag_279:\n        /* \"#utility.yul\":13840:13843   */\n      dup2\n        /* \"#utility.yul\":13833:13838   */\n      dup2\n        /* \"#utility.yul\":13830:13844   */\n      lt\n        /* \"#utility.yul\":13823:13943   */\n      iszero\n      tag_281\n      jumpi\n        /* \"#utility.yul\":13894:13933   */\n      tag_282\n        /* \"#utility.yul\":13931:13932   */\n      0x00\n        /* \"#utility.yul\":13924:13929   */\n      dup3\n        /* \"#utility.yul\":13894:13933   */\n      tag_131\n      jump\t// in\n    tag_282:\n        /* \"#utility.yul\":13867:13868   */\n      0x01\n        /* \"#utility.yul\":13860:13865   */\n      dup2\n        /* \"#utility.yul\":13856:13869   */\n      add\n        /* \"#utility.yul\":13847:13869   */\n      swap1\n      pop\n        /* \"#utility.yul\":13823:13943   */\n      jump(tag_279)\n    tag_281:\n        /* \"#utility.yul\":13763:13949   */\n      pop\n      pop\n      jump\t// out\n        /* \"#utility.yul\":13955:14498   */\n    tag_133:\n        /* \"#utility.yul\":14056:14058   */\n      0x1f\n        /* \"#utility.yul\":14051:14054   */\n      dup3\n        /* \"#utility.yul\":14048:14059   */\n      gt\n        /* \"#utility.yul\":14045:14491   */\n      iszero\n      tag_284\n      jumpi\n        /* \"#utility.yul\":14090:14128   */\n      tag_285\n        /* \"#utility.yul\":14122:14127   */\n      dup2\n        /* \"#utility.yul\":14090:14128   */\n      tag_118\n      jump\t// in\n    tag_285:\n        /* \"#utility.yul\":14174:14203   */\n      tag_286\n        /* \"#utility.yul\":14192:14202   */\n      dup5\n        /* \"#utility.yul\":14174:14203   */\n      tag_123\n      jump\t// in\n    tag_286:\n        /* \"#utility.yul\":14164:14172   */\n      dup2\n        /* \"#utility.yul\":14160:14204   */\n      add\n        /* \"#utility.yul\":14357:14359   */\n      0x20\n        /* \"#utility.yul\":14345:14355   */\n      dup6\n        /* \"#utility.yul\":14342:14360   */\n      lt\n        /* \"#utility.yul\":14339:14388   */\n      iszero\n      tag_287\n      jumpi\n        /* \"#utility.yul\":14378:14386   */\n      dup2\n        /* \"#utility.yul\":14363:14386   */\n      swap1\n      pop\n        /* \"#utility.yul\":14339:14388   */\n    tag_287:\n        /* \"#utility.yul\":14401:14481   */\n      tag_288\n        /* \"#utility.yul\":14457:14479   */\n      tag_289\n        /* \"#utility.yul\":14475:14478   */\n      dup6\n        /* \"#utility.yul\":14457:14479   */\n      tag_123\n      jump\t// in\n    tag_289:\n        /* \"#utility.yul\":14447:14455   */\n      dup4\n        /* \"#utility.yul\":14443:14480   */\n      add\n        /* \"#utility.yul\":14430:14441   */\n      dup3\n        /* \"#utility.yul\":14401:14481   */\n      tag_132\n      jump\t// in\n    tag_288:\n        /* \"#utility.yul\":14060:14491   */\n      pop\n      pop\n        /* \"#utility.yul\":14045:14491   */\n    tag_284:\n        /* \"#utility.yul\":13955:14498   */\n      pop\n      pop\n      pop\n      jump\t// out\n        /* \"#utility.yul\":14504:14621   */\n    tag_134:\n        /* \"#utility.yul\":14558:14566   */\n      0x00\n        /* \"#utility.yul\":14608:14613   */\n      dup3\n        /* \"#utility.yul\":14602:14606   */\n      dup3\n        /* \"#utility.yul\":14598:14614   */\n      shr\n        /* \"#utility.yul\":14577:14614   */\n      swap1\n      pop\n        /* \"#utility.yul\":14504:14621   */\n      swap3\n      swap2\n      pop\n      pop\n      jump\t// out\n        /* \"#utility.yul\":14627:14796   */\n    tag_135:\n        /* \"#utility.yul\":14671:14677   */\n      0x00\n        /* \"#utility.yul\":14704:14755   */\n      tag_292\n        /* \"#utility.yul\":14752:14753   */\n      0x00\n        /* \"#utility.yul\":14748:14754   */\n      not\n        /* \"#utility.yul\":14740:14745   */\n      dup5\n        /* \"#utility.yul\":14737:14738   */\n      0x08\n        /* \"#utility.yul\":14733:14746   */\n      mul\n        /* \"#utility.yul\":14704:14755   */\n      tag_134\n      jump\t// in\n    tag_292:\n        /* \"#utility.yul\":14700:14756   */\n      not\n        /* \"#utility.yul\":14785:14789   */\n      dup1\n        /* \"#utility.yul\":14779:14783   */\n      dup4\n        /* \"#utility.yul\":14775:14790   */\n      and\n        /* \"#utility.yul\":14765:14790   */\n      swap2\n      pop\n        /* \"#utility.yul\":14678:14796   */\n      pop\n        /* \"#utility.yul\":14627:14796   */\n      swap3\n      swap2\n      pop\n      pop\n      jump\t// out\n        /* \"#utility.yul\":14801:15096   */\n    tag_136:\n        /* \"#utility.yul\":14877:14881   */\n      0x00\n        /* \"#utility.yul\":15023:15052   */\n      tag_294\n        /* \"#utility.yul\":15048:15051   */\n      dup4\n        /* \"#utility.yul\":15042:15046   */\n      dup4\n        /* \"#utility.yul\":15023:15052   */\n      tag_135\n      jump\t// in\n    tag_294:\n        /* \"#utility.yul\":15015:15052   */\n      swap2\n      pop\n        /* \"#utility.yul\":15085:15088   */\n      dup3\n        /* \"#utility.yul\":15082:15083   */\n      0x02\n        /* \"#utility.yul\":15078:15089   */\n      mul\n        /* \"#utility.yul\":15072:15076   */\n      dup3\n        /* \"#utility.yul\":15069:15090   */\n      or\n        /* \"#utility.yul\":15061:15090   */\n      swap1\n      pop\n        /* \"#utility.yul\":14801:15096   */\n      swap3\n      swap2\n      pop\n      pop\n      jump\t// out\n        /* \"#utility.yul\":15101:16552   */\n    tag_54:\n        /* \"#utility.yul\":15212:15215   */\n      dup2\n        /* \"#utility.yul\":15206:15210   */\n      dup2\n        /* \"#utility.yul\":15203:15216   */\n      sub\n        /* \"#utility.yul\":15200:15226   */\n      tag_296\n      jumpi\n        /* \"#utility.yul\":15219:15224   */\n      pop\n      pop\n      jump(tag_295)\n        /* \"#utility.yul\":15200:15226   */\n    tag_296:\n        /* \"#utility.yul\":15250:15284   */\n      tag_297\n        /* \"#utility.yul\":15280:15283   */\n      dup3\n        /* \"#utility.yul\":15250:15284   */\n      tag_122\n      jump\t// in\n    tag_297:\n        /* \"#utility.yul\":15349:15367   */\n      0xffffffffffffffff\n        /* \"#utility.yul\":15341:15347   */\n      dup2\n        /* \"#utility.yul\":15338:15368   */\n      gt\n        /* \"#utility.yul\":15335:15391   */\n      iszero\n      tag_298\n      jumpi\n        /* \"#utility.yul\":15371:15389   */\n      tag_299\n      tag_99\n      jump\t// in\n    tag_299:\n        /* \"#utility.yul\":15335:15391   */\n    tag_298:\n        /* \"#utility.yul\":15415:15453   */\n      tag_300\n        /* \"#utility.yul\":15447:15451   */\n      dup3\n        /* \"#utility.yul\":15441:15452   */\n      sload\n        /* \"#utility.yul\":15415:15453   */\n      tag_27\n      jump\t// in\n    tag_300:\n        /* \"#utility.yul\":15500:15567   */\n      tag_301\n        /* \"#utility.yul\":15560:15566   */\n      dup3\n        /* \"#utility.yul\":15552:15558   */\n      dup3\n        /* \"#utility.yul\":15546:15550   */\n      dup6\n        /* \"#utility.yul\":15500:15567   */\n      tag_133\n      jump\t// in\n    tag_301:\n        /* \"#utility.yul\":15594:15595   */\n      0x00\n        /* \"#utility.yul\":15623:15625   */\n      0x1f\n        /* \"#utility.yul\":15615:15621   */\n      dup4\n        /* \"#utility.yul\":15612:15626   */\n      gt\n        /* \"#utility.yul\":15640:15641   */\n      0x01\n        /* \"#utility.yul\":15635:16307   */\n      dup2\n      eq\n      tag_303\n      jumpi\n        /* \"#utility.yul\":16351:16352   */\n      0x00\n        /* \"#utility.yul\":16368:16374   */\n      dup5\n        /* \"#utility.yul\":16365:16442   */\n      iszero\n      tag_304\n      jumpi\n        /* \"#utility.yul\":16417:16426   */\n      dup3\n        /* \"#utility.yul\":16412:16415   */\n      dup8\n        /* \"#utility.yul\":16408:16427   */\n      add\n        /* \"#utility.yul\":16402:16428   */\n      sload\n        /* \"#utility.yul\":16393:16428   */\n      swap1\n      pop\n        /* \"#utility.yul\":16365:16442   */\n    tag_304:\n        /* \"#utility.yul\":16468:16535   */\n      tag_305\n        /* \"#utility.yul\":16528:16534   */\n      dup6\n        /* \"#utility.yul\":16521:16526   */\n      dup3\n        /* \"#utility.yul\":16468:16535   */\n      tag_136\n      jump\t// in\n    tag_305:\n        /* \"#utility.yul\":16462:16466   */\n      dup7\n        /* \"#utility.yul\":16455:16536   */\n      sstore\n        /* \"#utility.yul\":16324:16546   */\n      pop\n        /* \"#utility.yul\":15605:16546   */\n      jump(tag_302)\n        /* \"#utility.yul\":15635:16307   */\n    tag_303:\n        /* \"#utility.yul\":15687:15691   */\n      0x1f\n        /* \"#utility.yul\":15683:15692   */\n      not\n        /* \"#utility.yul\":15675:15681   */\n      dup5\n        /* \"#utility.yul\":15671:15693   */\n      and\n        /* \"#utility.yul\":15713:15749   */\n      tag_306\n        /* \"#utility.yul\":15745:15748   */\n      dup8\n        /* \"#utility.yul\":15713:15749   */\n      tag_118\n      jump\t// in\n    tag_306:\n        /* \"#utility.yul\":15706:15749   */\n      swap7\n      pop\n        /* \"#utility.yul\":15776:15813   */\n      tag_307\n        /* \"#utility.yul\":15808:15812   */\n      dup7\n        /* \"#utility.yul\":15776:15813   */\n      tag_118\n      jump\t// in\n    tag_307:\n        /* \"#utility.yul\":15835:15836   */\n      0x00\n        /* \"#utility.yul\":15849:16056   */\n    tag_308:\n        /* \"#utility.yul\":15863:15870   */\n      dup3\n        /* \"#utility.yul\":15860:15861   */\n      dup2\n        /* \"#utility.yul\":15857:15871   */\n      lt\n        /* \"#utility.yul\":15849:16056   */\n      iszero\n      tag_310\n      jumpi\n        /* \"#utility.yul\":15942:15951   */\n      dup5\n        /* \"#utility.yul\":15937:15940   */\n      dup10\n        /* \"#utility.yul\":15933:15952   */\n      add\n        /* \"#utility.yul\":15927:15953   */\n      sload\n        /* \"#utility.yul\":15919:15925   */\n      dup3\n        /* \"#utility.yul\":15912:15954   */\n      sstore\n        /* \"#utility.yul\":15993:15994   */\n      0x01\n        /* \"#utility.yul\":15985:15991   */\n      dup3\n        /* \"#utility.yul\":15981:15995   */\n      add\n        /* \"#utility.yul\":15971:15995   */\n      swap2\n      pop\n        /* \"#utility.yul\":16040:16041   */\n      0x01\n        /* \"#utility.yul\":16029:16038   */\n      dup6\n        /* \"#utility.yul\":16025:16042   */\n      add\n        /* \"#utility.yul\":16012:16042   */\n      swap5\n      pop\n        /* \"#utility.yul\":15886:15890   */\n      0x20\n        /* \"#utility.yul\":15883:15884   */\n      dup2\n        /* \"#utility.yul\":15879:15891   */\n      add\n        /* \"#utility.yul\":15874:15891   */\n      swap1\n      pop\n        /* \"#utility.yul\":15849:16056   */\n      jump(tag_308)\n    tag_310:\n        /* \"#utility.yul\":16084:16090   */\n      dup7\n        /* \"#utility.yul\":16075:16082   */\n      dup4\n        /* \"#utility.yul\":16072:16091   */\n      lt\n        /* \"#utility.yul\":16069:16248   */\n      iszero\n      tag_311\n      jumpi\n        /* \"#utility.yul\":16142:16151   */\n      dup5\n        /* \"#utility.yul\":16137:16140   */\n      dup10\n        /* \"#utility.yul\":16133:16152   */\n      add\n        /* \"#utility.yul\":16127:16153   */\n      sload\n        /* \"#utility.yul\":16185:16233   */\n      tag_312\n        /* \"#utility.yul\":16227:16231   */\n      0x1f\n        /* \"#utility.yul\":16219:16225   */\n      dup10\n        /* \"#utility.yul\":16215:16232   */\n      and\n        /* \"#utility.yul\":16204:16213   */\n      dup3\n        /* \"#utility.yul\":16185:16233   */\n      tag_135\n      jump\t// in\n    tag_312:\n        /* \"#utility.yul\":16177:16183   */\n      dup4\n        /* \"#utility.yul\":16170:16234   */\n      sstore\n        /* \"#utility.yul\":16092:16248   */\n      pop\n        /* \"#utility.yul\":16069:16248   */\n    tag_311:\n        /* \"#utility.yul\":16294:16295   */\n      0x01\n        /* \"#utility.yul\":16290:16291   */\n      0x02\n        /* \"#utility.yul\":16282:16288   */\n      dup9\n        /* \"#utility.yul\":16278:16292   */\n      mul\n        /* \"#utility.yul\":16274:16296   */\n      add\n        /* \"#utility.yul\":16268:16272   */\n      dup9\n        /* \"#utility.yul\":16261:16297   */\n      sstore\n        /* \"#utility.yul\":15642:16307   */\n      pop\n      pop\n      pop\n        /* \"#utility.yul\":15605:16546   */\n    tag_302:\n      pop\n        /* \"#utility.yul\":15190:16552   */\n      pop\n      pop\n      pop\n        /* \"#utility.yul\":15101:16552   */\n      pop\n      pop\n    tag_295:\n      jump\t// out\n        /* \"#utility.yul\":16558:16738   */\n    tag_57:\n        /* \"#utility.yul\":16606:16683   */\n      0x4e487b7100000000000000000000000000000000000000000000000000000000\n        /* \"#utility.yul\":16603:16604   */\n      0x00\n        /* \"#utility.yul\":16596:16684   */\n      mstore\n        /* \"#utility.yul\":16703:16707   */\n      0x31\n        /* \"#utility.yul\":16700:16701   */\n      0x04\n        /* \"#utility.yul\":16693:16708   */\n      mstore\n        /* \"#utility.yul\":16727:16731   */\n      0x24\n        /* \"#utility.yul\":16724:16725   */\n      0x00\n        /* \"#utility.yul\":16717:16732   */\n      revert\n        /* \"#utility.yul\":16744:17057   */\n    tag_62:\n        /* \"#utility.yul\":16857:16861   */\n      0x00\n        /* \"#utility.yul\":16895:16897   */\n      0x20\n        /* \"#utility.yul\":16884:16893   */\n      dup3\n        /* \"#utility.yul\":16880:16898   */\n      add\n        /* \"#utility.yul\":16872:16898   */\n      swap1\n      pop\n        /* \"#utility.yul\":16944:16953   */\n      dup2\n        /* \"#utility.yul\":16938:16942   */\n      dup2\n        /* \"#utility.yul\":16934:16954   */\n      sub\n        /* \"#utility.yul\":16930:16931   */\n      0x00\n        /* \"#utility.yul\":16919:16928   */\n      dup4\n        /* \"#utility.yul\":16915:16932   */\n      add\n        /* \"#utility.yul\":16908:16955   */\n      mstore\n        /* \"#utility.yul\":16972:17050   */\n      tag_315\n        /* \"#utility.yul\":17045:17049   */\n      dup2\n        /* \"#utility.yul\":17036:17042   */\n      dup5\n        /* \"#utility.yul\":16972:17050   */\n      tag_95\n      jump\t// in\n    tag_315:\n        /* \"#utility.yul\":16964:17050   */\n      swap1\n      pop\n        /* \"#utility.yul\":16744:17057   */\n      swap3\n      swap2\n      pop\n      pop\n      jump\t// out\n        /* \"#utility.yul\":17063:18458   */\n    tag_75:\n        /* \"#utility.yul\":17180:17217   */\n      tag_317\n        /* \"#utility.yul\":17213:17216   */\n      dup3\n        /* \"#utility.yul\":17180:17217   */\n      tag_91\n      jump\t// in\n    tag_317:\n        /* \"#utility.yul\":17282:17300   */\n      0xffffffffffffffff\n        /* \"#utility.yul\":17274:17280   */\n      dup2\n        /* \"#utility.yul\":17271:17301   */\n      gt\n        /* \"#utility.yul\":17268:17324   */\n      iszero\n      tag_318\n      jumpi\n        /* \"#utility.yul\":17304:17322   */\n      tag_319\n      tag_99\n      jump\t// in\n    tag_319:\n        /* \"#utility.yul\":17268:17324   */\n    tag_318:\n        /* \"#utility.yul\":17348:17386   */\n      tag_320\n        /* \"#utility.yul\":17380:17384   */\n      dup3\n        /* \"#utility.yul\":17374:17385   */\n      sload\n        /* \"#utility.yul\":17348:17386   */\n      tag_27\n      jump\t// in\n    tag_320:\n        /* \"#utility.yul\":17433:17500   */\n      tag_321\n        /* \"#utility.yul\":17493:17499   */\n      dup3\n        /* \"#utility.yul\":17485:17491   */\n      dup3\n        /* \"#utility.yul\":17479:17483   */\n      dup6\n        /* \"#utility.yul\":17433:17500   */\n      tag_133\n      jump\t// in\n    tag_321:\n        /* \"#utility.yul\":17527:17528   */\n      0x00\n        /* \"#utility.yul\":17551:17555   */\n      0x20\n        /* \"#utility.yul\":17538:17555   */\n      swap1\n      pop\n        /* \"#utility.yul\":17583:17585   */\n      0x1f\n        /* \"#utility.yul\":17575:17581   */\n      dup4\n        /* \"#utility.yul\":17572:17586   */\n      gt\n        /* \"#utility.yul\":17600:17601   */\n      0x01\n        /* \"#utility.yul\":17595:18213   */\n      dup2\n      eq\n      tag_323\n      jumpi\n        /* \"#utility.yul\":18257:18258   */\n      0x00\n        /* \"#utility.yul\":18274:18280   */\n      dup5\n        /* \"#utility.yul\":18271:18348   */\n      iszero\n      tag_324\n      jumpi\n        /* \"#utility.yul\":18323:18332   */\n      dup3\n        /* \"#utility.yul\":18318:18321   */\n      dup8\n        /* \"#utility.yul\":18314:18333   */\n      add\n        /* \"#utility.yul\":18308:18334   */\n      mload\n        /* \"#utility.yul\":18299:18334   */\n      swap1\n      pop\n        /* \"#utility.yul\":18271:18348   */\n    tag_324:\n        /* \"#utility.yul\":18374:18441   */\n      tag_325\n        /* \"#utility.yul\":18434:18440   */\n      dup6\n        /* \"#utility.yul\":18427:18432   */\n      dup3\n        /* \"#utility.yul\":18374:18441   */\n      tag_136\n      jump\t// in\n    tag_325:\n        /* \"#utility.yul\":18368:18372   */\n      dup7\n        /* \"#utility.yul\":18361:18442   */\n      sstore\n        /* \"#utility.yul\":18230:18452   */\n      pop\n        /* \"#utility.yul\":17565:18452   */\n      jump(tag_322)\n        /* \"#utility.yul\":17595:18213   */\n    tag_323:\n        /* \"#utility.yul\":17647:17651   */\n      0x1f\n        /* \"#utility.yul\":17643:17652   */\n      not\n        /* \"#utility.yul\":17635:17641   */\n      dup5\n        /* \"#utility.yul\":17631:17653   */\n      and\n        /* \"#utility.yul\":17681:17718   */\n      tag_326\n        /* \"#utility.yul\":17713:17717   */\n      dup7\n        /* \"#utility.yul\":17681:17718   */\n      tag_118\n      jump\t// in\n    tag_326:\n        /* \"#utility.yul\":17740:17741   */\n      0x00\n        /* \"#utility.yul\":17754:17962   */\n    tag_327:\n        /* \"#utility.yul\":17768:17775   */\n      dup3\n        /* \"#utility.yul\":17765:17766   */\n      dup2\n        /* \"#utility.yul\":17762:17776   */\n      lt\n        /* \"#utility.yul\":17754:17962   */\n      iszero\n      tag_329\n      jumpi\n        /* \"#utility.yul\":17847:17856   */\n      dup5\n        /* \"#utility.yul\":17842:17845   */\n      dup10\n        /* \"#utility.yul\":17838:17857   */\n      add\n        /* \"#utility.yul\":17832:17858   */\n      mload\n        /* \"#utility.yul\":17824:17830   */\n      dup3\n        /* \"#utility.yul\":17817:17859   */\n      sstore\n        /* \"#utility.yul\":17898:17899   */\n      0x01\n        /* \"#utility.yul\":17890:17896   */\n      dup3\n        /* \"#utility.yul\":17886:17900   */\n      add\n        /* \"#utility.yul\":17876:17900   */\n      swap2\n      pop\n        /* \"#utility.yul\":17945:17947   */\n      0x20\n        /* \"#utility.yul\":17934:17943   */\n      dup6\n        /* \"#utility.yul\":17930:17948   */\n      add\n        /* \"#utility.yul\":17917:17948   */\n      swap5\n      pop\n        /* \"#utility.yul\":17791:17795   */\n      0x20\n        /* \"#utility.yul\":17788:17789   */\n      dup2\n        /* \"#utility.yul\":17784:17796   */\n      add\n        /* \"#utility.yul\":17779:17796   */\n      swap1\n      pop\n        /* \"#utility.yul\":17754:17962   */\n      jump(tag_327)\n    tag_329:\n        /* \"#utility.yul\":17990:17996   */\n      dup7\n        /* \"#utility.yul\":17981:17988   */\n      dup4\n        /* \"#utility.yul\":17978:17997   */\n      lt\n        /* \"#utility.yul\":17975:18154   */\n      iszero\n      tag_330\n      jumpi\n        /* \"#utility.yul\":18048:18057   */\n      dup5\n        /* \"#utility.yul\":18043:18046   */\n      dup10\n        /* \"#utility.yul\":18039:18058   */\n      add\n        /* \"#utility.yul\":18033:18059   */\n      mload\n        /* \"#utility.yul\":18091:18139   */\n      tag_331\n        /* \"#utility.yul\":18133:18137   */\n      0x1f\n        /* \"#utility.yul\":18125:18131   */\n      dup10\n        /* \"#utility.yul\":18121:18138   */\n      and\n        /* \"#utility.yul\":18110:18119   */\n      dup3\n        /* \"#utility.yul\":18091:18139   */\n      tag_135\n      jump\t// in\n    tag_331:\n        /* \"#utility.yul\":18083:18089   */\n      dup4\n        /* \"#utility.yul\":18076:18140   */\n      sstore\n        /* \"#utility.yul\":17998:18154   */\n      pop\n        /* \"#utility.yul\":17975:18154   */\n    tag_330:\n        /* \"#utility.yul\":18200:18201   */\n      0x01\n        /* \"#utility.yul\":18196:18197   */\n      0x02\n        /* \"#utility.yul\":18188:18194   */\n      dup9\n        /* \"#utility.yul\":18184:18198   */\n      mul\n        /* \"#utility.yul\":18180:18202   */\n      add\n        /* \"#utility.yul\":18174:18178   */\n      dup9\n        /* \"#utility.yul\":18167:18203   */\n      sstore\n        /* \"#utility.yul\":17602:18213   */\n      pop\n      pop\n      pop\n        /* \"#utility.yul\":17565:18452   */\n    tag_322:\n      pop\n        /* \"#utility.yul\":17155:18458   */\n      pop\n      pop\n      pop\n        /* \"#utility.yul\":17063:18458   */\n      pop\n      pop\n      jump\t// out\n        /* \"#utility.yul\":18518:19133   */\n    tag_137:\n        /* \"#utility.yul\":18627:18630   */\n      0x00\n        /* \"#utility.yul\":18663:18667   */\n      0x40\n        /* \"#utility.yul\":18658:18661   */\n      dup4\n        /* \"#utility.yul\":18654:18668   */\n      add\n        /* \"#utility.yul\":18757:18761   */\n      0x00\n        /* \"#utility.yul\":18750:18755   */\n      dup4\n        /* \"#utility.yul\":18746:18762   */\n      add\n        /* \"#utility.yul\":18740:18763   */\n      mload\n        /* \"#utility.yul\":18810:18813   */\n      dup5\n        /* \"#utility.yul\":18804:18808   */\n      dup3\n        /* \"#utility.yul\":18800:18814   */\n      sub\n        /* \"#utility.yul\":18793:18797   */\n      0x00\n        /* \"#utility.yul\":18788:18791   */\n      dup7\n        /* \"#utility.yul\":18784:18798   */\n      add\n        /* \"#utility.yul\":18777:18815   */\n      mstore\n        /* \"#utility.yul\":18836:18909   */\n      tag_333\n        /* \"#utility.yul\":18904:18908   */\n      dup3\n        /* \"#utility.yul\":18890:18902   */\n      dup3\n        /* \"#utility.yul\":18836:18909   */\n      tag_110\n      jump\t// in\n    tag_333:\n        /* \"#utility.yul\":18828:18909   */\n      swap2\n      pop\n        /* \"#utility.yul\":18678:18920   */\n      pop\n        /* \"#utility.yul\":19014:19018   */\n      0x20\n        /* \"#utility.yul\":19007:19012   */\n      dup4\n        /* \"#utility.yul\":19003:19019   */\n      add\n        /* \"#utility.yul\":18997:19020   */\n      mload\n        /* \"#utility.yul\":19033:19096   */\n      tag_334\n        /* \"#utility.yul\":19090:19094   */\n      0x20\n        /* \"#utility.yul\":19085:19088   */\n      dup7\n        /* \"#utility.yul\":19081:19095   */\n      add\n        /* \"#utility.yul\":19067:19079   */\n      dup3\n        /* \"#utility.yul\":19033:19096   */\n      tag_111\n      jump\t// in\n    tag_334:\n        /* \"#utility.yul\":18930:19106   */\n      pop\n        /* \"#utility.yul\":19123:19127   */\n      dup1\n        /* \"#utility.yul\":19116:19127   */\n      swap2\n      pop\n        /* \"#utility.yul\":18632:19133   */\n      pop\n        /* \"#utility.yul\":18518:19133   */\n      swap3\n      swap2\n      pop\n      pop\n      jump\t// out\n        /* \"#utility.yul\":19139:19492   */\n    tag_77:\n        /* \"#utility.yul\":19272:19276   */\n      0x00\n        /* \"#utility.yul\":19310:19312   */\n      0x20\n        /* \"#utility.yul\":19299:19308   */\n      dup3\n        /* \"#utility.yul\":19295:19313   */\n      add\n        /* \"#utility.yul\":19287:19313   */\n      swap1\n      pop\n        /* \"#utility.yul\":19359:19368   */\n      dup2\n        /* \"#utility.yul\":19353:19357   */\n      dup2\n        /* \"#utility.yul\":19349:19369   */\n      sub\n        /* \"#utility.yul\":19345:19346   */\n      0x00\n        /* \"#utility.yul\":19334:19343   */\n      dup4\n        /* \"#utility.yul\":19330:19347   */\n      add\n        /* \"#utility.yul\":19323:19370   */\n      mstore\n        /* \"#utility.yul\":19387:19485   */\n      tag_336\n        /* \"#utility.yul\":19480:19484   */\n      dup2\n        /* \"#utility.yul\":19471:19477   */\n      dup5\n        /* \"#utility.yul\":19387:19485   */\n      tag_137\n      jump\t// in\n    tag_336:\n        /* \"#utility.yul\":19379:19485   */\n      swap1\n      pop\n        /* \"#utility.yul\":19139:19492   */\n      swap3\n      swap2\n      pop\n      pop\n      jump\t// out\n\n    auxdata: 0xa264697066735822122085993dd23e409faa0b05c2423ea8d58a8ebc59056d1387c031862d42ca5d045064736f6c634300081a0033\n}\n",
				"bytecode": {
					"linkReferences": {},
					"object": "6080604052348015600e575f80fd5b50610ef98061001c5f395ff3fe608060405234801561000f575f80fd5b506004361061004a575f3560e01c806392a3351a1461004e5780639550975a1461007f578063d06ba6671461009b578063d97546cc146100b9575b5f80fd5b6100686004803603810190610063919061052f565b6100d5565b6040516100769291906105d9565b60405180910390f35b61009960048036038101906100949190610733565b610189565b005b6100a3610304565b6040516100b091906108c6565b60405180910390f35b6100d360048036038101906100ce9190610733565b6103f8565b005b5f81815481106100e3575f80fd5b905f5260205f2090600202015f91509050805f01805461010290610913565b80601f016020809104026020016040519081016040528092919081815260200182805461012e90610913565b80156101795780601f1061015057610100808354040283529160200191610179565b820191905f5260205f20905b81548152906001019060200180831161015c57829003601f168201915b5050505050908060010154905082565b5f808054905090505f5b818110156102fe575f81815481106101ae576101ad610943565b5b905f5260205f2090600202015f016040516020016101cc9190610a0c565b60405160208183030381529060405280519060200120836040516020016101f39190610a52565b60405160208183030381529060405280519060200120036102f3575f60018361021c9190610a95565b8154811061022d5761022c610943565b5b905f5260205f2090600202015f828154811061024c5761024b610943565b5b905f5260205f2090600202015f8201815f01908161026a9190610c68565b50600182015481600101559050505f80548061028957610288610d4d565b5b600190038181905f5260205f2090600202015f8082015f6102aa9190610493565b600182015f9055505090557f84280858adc9e4f831e1b5ec7eb6470e03e2425a3d599d520a240df5bf7cc875836040516102e49190610d7a565b60405180910390a15050610301565b806001019050610193565b50505b50565b60605f805480602002602001604051908101604052809291908181526020015f905b828210156103ef578382905f5260205f2090600202016040518060400160405290815f8201805461035690610913565b80601f016020809104026020016040519081016040528092919081815260200182805461038290610913565b80156103cd5780601f106103a4576101008083540402835291602001916103cd565b820191905f5260205f20905b8154815290600101906020018083116103b057829003601f168201915b5050505050815260200160018201548152505081526020019060010190610326565b50505050905090565b5f60405180604001604052808381526020014281525090505f81908060018154018082558091505060019003905f5260205f2090600202015f909190919091505f820151815f01908161044b9190610d9a565b506020820151816001015550507f729d56662bd244a0d14c77e8b01992ae4ee007438978bf5235e107847cb52120816040516104879190610ea3565b60405180910390a15050565b50805461049f90610913565b5f825580601f106104b057506104cd565b601f0160209004905f5260205f20908101906104cc91906104d0565b5b50565b5b808211156104e7575f815f9055506001016104d1565b5090565b5f604051905090565b5f80fd5b5f80fd5b5f819050919050565b61050e816104fc565b8114610518575f80fd5b50565b5f8135905061052981610505565b92915050565b5f60208284031215610544576105436104f4565b5b5f6105518482850161051b565b91505092915050565b5f81519050919050565b5f82825260208201905092915050565b8281835e5f83830152505050565b5f601f19601f8301169050919050565b5f61059c8261055a565b6105a68185610564565b93506105b6818560208601610574565b6105bf81610582565b840191505092915050565b6105d3816104fc565b82525050565b5f6040820190508181035f8301526105f18185610592565b905061060060208301846105ca565b9392505050565b5f80fd5b5f80fd5b7f4e487b71000000000000000000000000000000000000000000000000000000005f52604160045260245ffd5b61064582610582565b810181811067ffffffffffffffff821117156106645761066361060f565b5b80604052505050565b5f6106766104eb565b9050610682828261063c565b919050565b5f67ffffffffffffffff8211156106a1576106a061060f565b5b6106aa82610582565b9050602081019050919050565b828183375f83830152505050565b5f6106d76106d284610687565b61066d565b9050828152602081018484840111156106f3576106f261060b565b5b6106fe8482856106b7565b509392505050565b5f82601f83011261071a57610719610607565b5b813561072a8482602086016106c5565b91505092915050565b5f60208284031215610748576107476104f4565b5b5f82013567ffffffffffffffff811115610765576107646104f8565b5b61077184828501610706565b91505092915050565b5f81519050919050565b5f82825260208201905092915050565b5f819050602082019050919050565b5f82825260208201905092915050565b5f6107bd8261055a565b6107c781856107a3565b93506107d7818560208601610574565b6107e081610582565b840191505092915050565b6107f4816104fc565b82525050565b5f604083015f8301518482035f86015261081482826107b3565b915050602083015161082960208601826107eb565b508091505092915050565b5f61083f83836107fa565b905092915050565b5f602082019050919050565b5f61085d8261077a565b6108678185610784565b93508360208202850161087985610794565b805f5b858110156108b457848403895281516108958582610834565b94506108a083610847565b925060208a0199505060018101905061087c565b50829750879550505050505092915050565b5f6020820190508181035f8301526108de8184610853565b905092915050565b7f4e487b71000000000000000000000000000000000000000000000000000000005f52602260045260245ffd5b5f600282049050600182168061092a57607f821691505b60208210810361093d5761093c6108e6565b5b50919050565b7f4e487b71000000000000000000000000000000000000000000000000000000005f52603260045260245ffd5b5f81905092915050565b5f819050815f5260205f209050919050565b5f815461099881610913565b6109a28186610970565b9450600182165f81146109bc57600181146109d157610a03565b60ff1983168652811515820286019350610a03565b6109da8561097a565b5f5b838110156109fb578154818901526001820191506020810190506109dc565b838801955050505b50505092915050565b5f610a17828461098c565b915081905092915050565b5f610a2c8261055a565b610a368185610970565b9350610a46818560208601610574565b80840191505092915050565b5f610a5d8284610a22565b915081905092915050565b7f4e487b71000000000000000000000000000000000000000000000000000000005f52601160045260245ffd5b5f610a9f826104fc565b9150610aaa836104fc565b9250828203905081811115610ac257610ac1610a68565b5b92915050565b5f81549050610ad681610913565b9050919050565b5f6020601f8301049050919050565b5f82821b905092915050565b5f60088302610b277fffffffffffffffffffffffffffffffffffffffffffffffffffffffffffffffff82610aec565b610b318683610aec565b95508019841693508086168417925050509392505050565b5f819050919050565b5f610b6c610b67610b62846104fc565b610b49565b6104fc565b9050919050565b5f819050919050565b610b8583610b52565b610b99610b9182610b73565b848454610af8565b825550505050565b5f90565b610bad610ba1565b610bb8818484610b7c565b505050565b5b81811015610bdb57610bd05f82610ba5565b600181019050610bbe565b5050565b601f821115610c2057610bf18161097a565b610bfa84610add565b81016020851015610c09578190505b610c1d610c1585610add565b830182610bbd565b50505b505050565b5f82821c905092915050565b5f610c405f1984600802610c25565b1980831691505092915050565b5f610c588383610c31565b9150826002028217905092915050565b818103610c76575050610d4b565b610c7f82610ac8565b67ffffffffffffffff811115610c9857610c9761060f565b5b610ca28254610913565b610cad828285610bdf565b5f601f831160018114610cda575f8415610cc8578287015490505b610cd28582610c4d565b865550610d44565b601f198416610ce88761097a565b9650610cf38661097a565b5f5b82811015610d1a57848901548255600182019150600185019450602081019050610cf5565b86831015610d375784890154610d33601f891682610c31565b8355505b6001600288020188555050505b5050505050505b565b7f4e487b71000000000000000000000000000000000000000000000000000000005f52603160045260245ffd5b5f6020820190508181035f830152610d928184610592565b905092915050565b610da38261055a565b67ffffffffffffffff811115610dbc57610dbb61060f565b5b610dc68254610913565b610dd1828285610bdf565b5f60209050601f831160018114610e02575f8415610df0578287015190505b610dfa8582610c4d565b865550610e61565b601f198416610e108661097a565b5f5b82811015610e3757848901518255600182019150602085019450602081019050610e12565b86831015610e545784890151610e50601f891682610c31565b8355505b6001600288020188555050505b505050505050565b5f604083015f8301518482035f860152610e8382826107b3565b9150506020830151610e9860208601826107eb565b508091505092915050565b5f6020820190508181035f830152610ebb8184610e69565b90509291505056fea264697066735822122085993dd23e409faa0b05c2423ea8d58a8ebc59056d1387c031862d42ca5d045064736f6c634300081a0033",
					"opcodes": "PUSH1 0x80 PUSH1 0x40 MSTORE CALLVALUE DUP1 ISZERO PUSH1 0xE JUMPI PUSH0 DUP1 REVERT JUMPDEST POP PUSH2 0xEF9 DUP1 PUSH2 0x1C PUSH0 CODECOPY PUSH0 RETURN INVALID PUSH1 0x80 PUSH1 0x40 MSTORE CALLVALUE DUP1 ISZERO PUSH2 0xF JUMPI PUSH0 DUP1 REVERT JUMPDEST POP PUSH1 0x4 CALLDATASIZE LT PUSH2 0x4A JUMPI PUSH0 CALLDATALOAD PUSH1 0xE0 SHR DUP1 PUSH4 0x92A3351A EQ PUSH2 0x4E JUMPI DUP1 PUSH4 0x9550975A EQ PUSH2 0x7F JUMPI DUP1 PUSH4 0xD06BA667 EQ PUSH2 0x9B JUMPI DUP1 PUSH4 0xD97546CC EQ PUSH2 0xB9 JUMPI JUMPDEST PUSH0 DUP1 REVERT JUMPDEST PUSH2 0x68 PUSH1 0x4 DUP1 CALLDATASIZE SUB DUP2 ADD SWAP1 PUSH2 0x63 SWAP2 SWAP1 PUSH2 0x52F JUMP JUMPDEST PUSH2 0xD5 JUMP JUMPDEST PUSH1 0x40 MLOAD PUSH2 0x76 SWAP3 SWAP2 SWAP1 PUSH2 0x5D9 JUMP JUMPDEST PUSH1 0x40 MLOAD DUP1 SWAP2 SUB SWAP1 RETURN JUMPDEST PUSH2 0x99 PUSH1 0x4 DUP1 CALLDATASIZE SUB DUP2 ADD SWAP1 PUSH2 0x94 SWAP2 SWAP1 PUSH2 0x733 JUMP JUMPDEST PUSH2 0x189 JUMP JUMPDEST STOP JUMPDEST PUSH2 0xA3 PUSH2 0x304 JUMP JUMPDEST PUSH1 0x40 MLOAD PUSH2 0xB0 SWAP2 SWAP1 PUSH2 0x8C6 JUMP JUMPDEST PUSH1 0x40 MLOAD DUP1 SWAP2 SUB SWAP1 RETURN JUMPDEST PUSH2 0xD3 PUSH1 0x4 DUP1 CALLDATASIZE SUB DUP2 ADD SWAP1 PUSH2 0xCE SWAP2 SWAP1 PUSH2 0x733 JUMP JUMPDEST PUSH2 0x3F8 JUMP JUMPDEST STOP JUMPDEST PUSH0 DUP2 DUP2 SLOAD DUP2 LT PUSH2 0xE3 JUMPI PUSH0 DUP1 REVERT JUMPDEST SWAP1 PUSH0 MSTORE PUSH1 0x20 PUSH0 KECCAK256 SWAP1 PUSH1 0x2 MUL ADD PUSH0 SWAP2 POP SWAP1 POP DUP1 PUSH0 ADD DUP1 SLOAD PUSH2 0x102 SWAP1 PUSH2 0x913 JUMP JUMPDEST DUP1 PUSH1 0x1F ADD PUSH1 0x20 DUP1 SWAP2 DIV MUL PUSH1 0x20 ADD PUSH1 0x40 MLOAD SWAP1 DUP2 ADD PUSH1 0x40 MSTORE DUP1 SWAP3 SWAP2 SWAP1 DUP2 DUP2 MSTORE PUSH1 0x20 ADD DUP3 DUP1 SLOAD PUSH2 0x12E SWAP1 PUSH2 0x913 JUMP JUMPDEST DUP1 ISZERO PUSH2 0x179 JUMPI DUP1 PUSH1 0x1F LT PUSH2 0x150 JUMPI PUSH2 0x100 DUP1 DUP4 SLOAD DIV MUL DUP4 MSTORE SWAP2 PUSH1 0x20 ADD SWAP2 PUSH2 0x179 JUMP JUMPDEST DUP3 ADD SWAP2 SWAP1 PUSH0 MSTORE PUSH1 0x20 PUSH0 KECCAK256 SWAP1 JUMPDEST DUP2 SLOAD DUP2 MSTORE SWAP1 PUSH1 0x1 ADD SWAP1 PUSH1 0x20 ADD DUP1 DUP4 GT PUSH2 0x15C JUMPI DUP3 SWAP1 SUB PUSH1 0x1F AND DUP3 ADD SWAP2 JUMPDEST POP POP POP POP POP SWAP1 DUP1 PUSH1 0x1 ADD SLOAD SWAP1 POP DUP3 JUMP JUMPDEST PUSH0 DUP1 DUP1 SLOAD SWAP1 POP SWAP1 POP PUSH0 JUMPDEST DUP2 DUP2 LT ISZERO PUSH2 0x2FE JUMPI PUSH0 DUP2 DUP2 SLOAD DUP2 LT PUSH2 0x1AE JUMPI PUSH2 0x1AD PUSH2 0x943 JUMP JUMPDEST JUMPDEST SWAP1 PUSH0 MSTORE PUSH1 0x20 PUSH0 KECCAK256 SWAP1 PUSH1 0x2 MUL ADD PUSH0 ADD PUSH1 0x40 MLOAD PUSH1 0x20 ADD PUSH2 0x1CC SWAP2 SWAP1 PUSH2 0xA0C JUMP JUMPDEST PUSH1 0x40 MLOAD PUSH1 0x20 DUP2 DUP4 SUB SUB DUP2 MSTORE SWAP1 PUSH1 0x40 MSTORE DUP1 MLOAD SWAP1 PUSH1 0x20 ADD KECCAK256 DUP4 PUSH1 0x40 MLOAD PUSH1 0x20 ADD PUSH2 0x1F3 SWAP2 SWAP1 PUSH2 0xA52 JUMP JUMPDEST PUSH1 0x40 MLOAD PUSH1 0x20 DUP2 DUP4 SUB SUB DUP2 MSTORE SWAP1 PUSH1 0x40 MSTORE DUP1 MLOAD SWAP1 PUSH1 0x20 ADD KECCAK256 SUB PUSH2 0x2F3 JUMPI PUSH0 PUSH1 0x1 DUP4 PUSH2 0x21C SWAP2 SWAP1 PUSH2 0xA95 JUMP JUMPDEST DUP2 SLOAD DUP2 LT PUSH2 0x22D JUMPI PUSH2 0x22C PUSH2 0x943 JUMP JUMPDEST JUMPDEST SWAP1 PUSH0 MSTORE PUSH1 0x20 PUSH0 KECCAK256 SWAP1 PUSH1 0x2 MUL ADD PUSH0 DUP3 DUP2 SLOAD DUP2 LT PUSH2 0x24C JUMPI PUSH2 0x24B PUSH2 0x943 JUMP JUMPDEST JUMPDEST SWAP1 PUSH0 MSTORE PUSH1 0x20 PUSH0 KECCAK256 SWAP1 PUSH1 0x2 MUL ADD PUSH0 DUP3 ADD DUP2 PUSH0 ADD SWAP1 DUP2 PUSH2 0x26A SWAP2 SWAP1 PUSH2 0xC68 JUMP JUMPDEST POP PUSH1 0x1 DUP3 ADD SLOAD DUP2 PUSH1 0x1 ADD SSTORE SWAP1 POP POP PUSH0 DUP1 SLOAD DUP1 PUSH2 0x289 JUMPI PUSH2 0x288 PUSH2 0xD4D JUMP JUMPDEST JUMPDEST PUSH1 0x1 SWAP1 SUB DUP2 DUP2 SWAP1 PUSH0 MSTORE PUSH1 0x20 PUSH0 KECCAK256 SWAP1 PUSH1 0x2 MUL ADD PUSH0 DUP1 DUP3 ADD PUSH0 PUSH2 0x2AA SWAP2 SWAP1 PUSH2 0x493 JUMP JUMPDEST PUSH1 0x1 DUP3 ADD PUSH0 SWAP1 SSTORE POP POP SWAP1 SSTORE PUSH32 0x84280858ADC9E4F831E1B5EC7EB6470E03E2425A3D599D520A240DF5BF7CC875 DUP4 PUSH1 0x40 MLOAD PUSH2 0x2E4 SWAP2 SWAP1 PUSH2 0xD7A JUMP JUMPDEST PUSH1 0x40 MLOAD DUP1 SWAP2 SUB SWAP1 LOG1 POP POP PUSH2 0x301 JUMP JUMPDEST DUP1 PUSH1 0x1 ADD SWAP1 POP PUSH2 0x193 JUMP JUMPDEST POP POP JUMPDEST POP JUMP JUMPDEST PUSH1 0x60 PUSH0 DUP1 SLOAD DUP1 PUSH1 0x20 MUL PUSH1 0x20 ADD PUSH1 0x40 MLOAD SWAP1 DUP2 ADD PUSH1 0x40 MSTORE DUP1 SWAP3 SWAP2 SWAP1 DUP2 DUP2 MSTORE PUSH1 0x20 ADD PUSH0 SWAP1 JUMPDEST DUP3 DUP3 LT ISZERO PUSH2 0x3EF JUMPI DUP4 DUP3 SWAP1 PUSH0 MSTORE PUSH1 0x20 PUSH0 KECCAK256 SWAP1 PUSH1 0x2 MUL ADD PUSH1 0x40 MLOAD DUP1 PUSH1 0x40 ADD PUSH1 0x40 MSTORE SWAP1 DUP2 PUSH0 DUP3 ADD DUP1 SLOAD PUSH2 0x356 SWAP1 PUSH2 0x913 JUMP JUMPDEST DUP1 PUSH1 0x1F ADD PUSH1 0x20 DUP1 SWAP2 DIV MUL PUSH1 0x20 ADD PUSH1 0x40 MLOAD SWAP1 DUP2 ADD PUSH1 0x40 MSTORE DUP1 SWAP3 SWAP2 SWAP1 DUP2 DUP2 MSTORE PUSH1 0x20 ADD DUP3 DUP1 SLOAD PUSH2 0x382 SWAP1 PUSH2 0x913 JUMP JUMPDEST DUP1 ISZERO PUSH2 0x3CD JUMPI DUP1 PUSH1 0x1F LT PUSH2 0x3A4 JUMPI PUSH2 0x100 DUP1 DUP4 SLOAD DIV MUL DUP4 MSTORE SWAP2 PUSH1 0x20 ADD SWAP2 PUSH2 0x3CD JUMP JUMPDEST DUP3 ADD SWAP2 SWAP1 PUSH0 MSTORE PUSH1 0x20 PUSH0 KECCAK256 SWAP1 JUMPDEST DUP2 SLOAD DUP2 MSTORE SWAP1 PUSH1 0x1 ADD SWAP1 PUSH1 0x20 ADD DUP1 DUP4 GT PUSH2 0x3B0 JUMPI DUP3 SWAP1 SUB PUSH1 0x1F AND DUP3 ADD SWAP2 JUMPDEST POP POP POP POP POP DUP2 MSTORE PUSH1 0x20 ADD PUSH1 0x1 DUP3 ADD SLOAD DUP2 MSTORE POP POP DUP2 MSTORE PUSH1 0x20 ADD SWAP1 PUSH1 0x1 ADD SWAP1 PUSH2 0x326 JUMP JUMPDEST POP POP POP POP SWAP1 POP SWAP1 JUMP JUMPDEST PUSH0 PUSH1 0x40 MLOAD DUP1 PUSH1 0x40 ADD PUSH1 0x40 MSTORE DUP1 DUP4 DUP2 MSTORE PUSH1 0x20 ADD TIMESTAMP DUP2 MSTORE POP SWAP1 POP PUSH0 DUP2 SWAP1 DUP1 PUSH1 0x1 DUP2 SLOAD ADD DUP1 DUP3 SSTORE DUP1 SWAP2 POP POP PUSH1 0x1 SWAP1 SUB SWAP1 PUSH0 MSTORE PUSH1 0x20 PUSH0 KECCAK256 SWAP1 PUSH1 0x2 MUL ADD PUSH0 SWAP1 SWAP2 SWAP1 SWAP2 SWAP1 SWAP2 POP PUSH0 DUP3 ADD MLOAD DUP2 PUSH0 ADD SWAP1 DUP2 PUSH2 0x44B SWAP2 SWAP1 PUSH2 0xD9A JUMP JUMPDEST POP PUSH1 0x20 DUP3 ADD MLOAD DUP2 PUSH1 0x1 ADD SSTORE POP POP PUSH32 0x729D56662BD244A0D14C77E8B01992AE4EE007438978BF5235E107847CB52120 DUP2 PUSH1 0x40 MLOAD PUSH2 0x487 SWAP2 SWAP1 PUSH2 0xEA3 JUMP JUMPDEST PUSH1 0x40 MLOAD DUP1 SWAP2 SUB SWAP1 LOG1 POP POP JUMP JUMPDEST POP DUP1 SLOAD PUSH2 0x49F SWAP1 PUSH2 0x913 JUMP JUMPDEST PUSH0 DUP3 SSTORE DUP1 PUSH1 0x1F LT PUSH2 0x4B0 JUMPI POP PUSH2 0x4CD JUMP JUMPDEST PUSH1 0x1F ADD PUSH1 0x20 SWAP1 DIV SWAP1 PUSH0 MSTORE PUSH1 0x20 PUSH0 KECCAK256 SWAP1 DUP2 ADD SWAP1 PUSH2 0x4CC SWAP2 SWAP1 PUSH2 0x4D0 JUMP JUMPDEST JUMPDEST POP JUMP JUMPDEST JUMPDEST DUP1 DUP3 GT ISZERO PUSH2 0x4E7 JUMPI PUSH0 DUP2 PUSH0 SWAP1 SSTORE POP PUSH1 0x1 ADD PUSH2 0x4D1 JUMP JUMPDEST POP SWAP1 JUMP JUMPDEST PUSH0 PUSH1 0x40 MLOAD SWAP1 POP SWAP1 JUMP JUMPDEST PUSH0 DUP1 REVERT JUMPDEST PUSH0 DUP1 REVERT JUMPDEST PUSH0 DUP2 SWAP1 POP SWAP2 SWAP1 POP JUMP JUMPDEST PUSH2 0x50E DUP2 PUSH2 0x4FC JUMP JUMPDEST DUP2 EQ PUSH2 0x518 JUMPI PUSH0 DUP1 REVERT JUMPDEST POP JUMP JUMPDEST PUSH0 DUP2 CALLDATALOAD SWAP1 POP PUSH2 0x529 DUP2 PUSH2 0x505 JUMP JUMPDEST SWAP3 SWAP2 POP POP JUMP JUMPDEST PUSH0 PUSH1 0x20 DUP3 DUP5 SUB SLT ISZERO PUSH2 0x544 JUMPI PUSH2 0x543 PUSH2 0x4F4 JUMP JUMPDEST JUMPDEST PUSH0 PUSH2 0x551 DUP5 DUP3 DUP6 ADD PUSH2 0x51B JUMP JUMPDEST SWAP2 POP POP SWAP3 SWAP2 POP POP JUMP JUMPDEST PUSH0 DUP2 MLOAD SWAP1 POP SWAP2 SWAP1 POP JUMP JUMPDEST PUSH0 DUP3 DUP3 MSTORE PUSH1 0x20 DUP3 ADD SWAP1 POP SWAP3 SWAP2 POP POP JUMP JUMPDEST DUP3 DUP2 DUP4 MCOPY PUSH0 DUP4 DUP4 ADD MSTORE POP POP POP JUMP JUMPDEST PUSH0 PUSH1 0x1F NOT PUSH1 0x1F DUP4 ADD AND SWAP1 POP SWAP2 SWAP1 POP JUMP JUMPDEST PUSH0 PUSH2 0x59C DUP3 PUSH2 0x55A JUMP JUMPDEST PUSH2 0x5A6 DUP2 DUP6 PUSH2 0x564 JUMP JUMPDEST SWAP4 POP PUSH2 0x5B6 DUP2 DUP6 PUSH1 0x20 DUP7 ADD PUSH2 0x574 JUMP JUMPDEST PUSH2 0x5BF DUP2 PUSH2 0x582 JUMP JUMPDEST DUP5 ADD SWAP2 POP POP SWAP3 SWAP2 POP POP JUMP JUMPDEST PUSH2 0x5D3 DUP2 PUSH2 0x4FC JUMP JUMPDEST DUP3 MSTORE POP POP JUMP JUMPDEST PUSH0 PUSH1 0x40 DUP3 ADD SWAP1 POP DUP2 DUP2 SUB PUSH0 DUP4 ADD MSTORE PUSH2 0x5F1 DUP2 DUP6 PUSH2 0x592 JUMP JUMPDEST SWAP1 POP PUSH2 0x600 PUSH1 0x20 DUP4 ADD DUP5 PUSH2 0x5CA JUMP JUMPDEST SWAP4 SWAP3 POP POP POP JUMP JUMPDEST PUSH0 DUP1 REVERT JUMPDEST PUSH0 DUP1 REVERT JUMPDEST PUSH32 0x4E487B7100000000000000000000000000000000000000000000000000000000 PUSH0 MSTORE PUSH1 0x41 PUSH1 0x4 MSTORE PUSH1 0x24 PUSH0 REVERT JUMPDEST PUSH2 0x645 DUP3 PUSH2 0x582 JUMP JUMPDEST DUP2 ADD DUP2 DUP2 LT PUSH8 0xFFFFFFFFFFFFFFFF DUP3 GT OR ISZERO PUSH2 0x664 JUMPI PUSH2 0x663 PUSH2 0x60F JUMP JUMPDEST JUMPDEST DUP1 PUSH1 0x40 MSTORE POP POP POP JUMP JUMPDEST PUSH0 PUSH2 0x676 PUSH2 0x4EB JUMP JUMPDEST SWAP1 POP PUSH2 0x682 DUP3 DUP3 PUSH2 0x63C JUMP JUMPDEST SWAP2 SWAP1 POP JUMP JUMPDEST PUSH0 PUSH8 0xFFFFFFFFFFFFFFFF DUP3 GT ISZERO PUSH2 0x6A1 JUMPI PUSH2 0x6A0 PUSH2 0x60F JUMP JUMPDEST JUMPDEST PUSH2 0x6AA DUP3 PUSH2 0x582 JUMP JUMPDEST SWAP1 POP PUSH1 0x20 DUP2 ADD SWAP1 POP SWAP2 SWAP1 POP JUMP JUMPDEST DUP3 DUP2 DUP4 CALLDATACOPY PUSH0 DUP4 DUP4 ADD MSTORE POP POP POP JUMP JUMPDEST PUSH0 PUSH2 0x6D7 PUSH2 0x6D2 DUP5 PUSH2 0x687 JUMP JUMPDEST PUSH2 0x66D JUMP JUMPDEST SWAP1 POP DUP3 DUP2 MSTORE PUSH1 0x20 DUP2 ADD DUP5 DUP5 DUP5 ADD GT ISZERO PUSH2 0x6F3 JUMPI PUSH2 0x6F2 PUSH2 0x60B JUMP JUMPDEST JUMPDEST PUSH2 0x6FE DUP5 DUP3 DUP6 PUSH2 0x6B7 JUMP JUMPDEST POP SWAP4 SWAP3 POP POP POP JUMP JUMPDEST PUSH0 DUP3 PUSH1 0x1F DUP4 ADD SLT PUSH2 0x71A JUMPI PUSH2 0x719 PUSH2 0x607 JUMP JUMPDEST JUMPDEST DUP2 CALLDATALOAD PUSH2 0x72A DUP5 DUP3 PUSH1 0x20 DUP7 ADD PUSH2 0x6C5 JUMP JUMPDEST SWAP2 POP POP SWAP3 SWAP2 POP POP JUMP JUMPDEST PUSH0 PUSH1 0x20 DUP3 DUP5 SUB SLT ISZERO PUSH2 0x748 JUMPI PUSH2 0x747 PUSH2 0x4F4 JUMP JUMPDEST JUMPDEST PUSH0 DUP3 ADD CALLDATALOAD PUSH8 0xFFFFFFFFFFFFFFFF DUP2 GT ISZERO PUSH2 0x765 JUMPI PUSH2 0x764 PUSH2 0x4F8 JUMP JUMPDEST JUMPDEST PUSH2 0x771 DUP5 DUP3 DUP6 ADD PUSH2 0x706 JUMP JUMPDEST SWAP2 POP POP SWAP3 SWAP2 POP POP JUMP JUMPDEST PUSH0 DUP2 MLOAD SWAP1 POP SWAP2 SWAP1 POP JUMP JUMPDEST PUSH0 DUP3 DUP3 MSTORE PUSH1 0x20 DUP3 ADD SWAP1 POP SWAP3 SWAP2 POP POP JUMP JUMPDEST PUSH0 DUP2 SWAP1 POP PUSH1 0x20 DUP3 ADD SWAP1 POP SWAP2 SWAP1 POP JUMP JUMPDEST PUSH0 DUP3 DUP3 MSTORE PUSH1 0x20 DUP3 ADD SWAP1 POP SWAP3 SWAP2 POP POP JUMP JUMPDEST PUSH0 PUSH2 0x7BD DUP3 PUSH2 0x55A JUMP JUMPDEST PUSH2 0x7C7 DUP2 DUP6 PUSH2 0x7A3 JUMP JUMPDEST SWAP4 POP PUSH2 0x7D7 DUP2 DUP6 PUSH1 0x20 DUP7 ADD PUSH2 0x574 JUMP JUMPDEST PUSH2 0x7E0 DUP2 PUSH2 0x582 JUMP JUMPDEST DUP5 ADD SWAP2 POP POP SWAP3 SWAP2 POP POP JUMP JUMPDEST PUSH2 0x7F4 DUP2 PUSH2 0x4FC JUMP JUMPDEST DUP3 MSTORE POP POP JUMP JUMPDEST PUSH0 PUSH1 0x40 DUP4 ADD PUSH0 DUP4 ADD MLOAD DUP5 DUP3 SUB PUSH0 DUP7 ADD MSTORE PUSH2 0x814 DUP3 DUP3 PUSH2 0x7B3 JUMP JUMPDEST SWAP2 POP POP PUSH1 0x20 DUP4 ADD MLOAD PUSH2 0x829 PUSH1 0x20 DUP7 ADD DUP3 PUSH2 0x7EB JUMP JUMPDEST POP DUP1 SWAP2 POP POP SWAP3 SWAP2 POP POP JUMP JUMPDEST PUSH0 PUSH2 0x83F DUP4 DUP4 PUSH2 0x7FA JUMP JUMPDEST SWAP1 POP SWAP3 SWAP2 POP POP JUMP JUMPDEST PUSH0 PUSH1 0x20 DUP3 ADD SWAP1 POP SWAP2 SWAP1 POP JUMP JUMPDEST PUSH0 PUSH2 0x85D DUP3 PUSH2 0x77A JUMP JUMPDEST PUSH2 0x867 DUP2 DUP6 PUSH2 0x784 JUMP JUMPDEST SWAP4 POP DUP4 PUSH1 0x20 DUP3 MUL DUP6 ADD PUSH2 0x879 DUP6 PUSH2 0x794 JUMP JUMPDEST DUP1 PUSH0 JUMPDEST DUP6 DUP2 LT ISZERO PUSH2 0x8B4 JUMPI DUP5 DUP5 SUB DUP10 MSTORE DUP2 MLOAD PUSH2 0x895 DUP6 DUP3 PUSH2 0x834 JUMP JUMPDEST SWAP5 POP PUSH2 0x8A0 DUP4 PUSH2 0x847 JUMP JUMPDEST SWAP3 POP PUSH1 0x20 DUP11 ADD SWAP10 POP POP PUSH1 0x1 DUP2 ADD SWAP1 POP PUSH2 0x87C JUMP JUMPDEST POP DUP3 SWAP8 POP DUP8 SWAP6 POP POP POP POP POP POP SWAP3 SWAP2 POP POP JUMP JUMPDEST PUSH0 PUSH1 0x20 DUP3 ADD SWAP1 POP DUP2 DUP2 SUB PUSH0 DUP4 ADD MSTORE PUSH2 0x8DE DUP2 DUP5 PUSH2 0x853 JUMP JUMPDEST SWAP1 POP SWAP3 SWAP2 POP POP JUMP JUMPDEST PUSH32 0x4E487B7100000000000000000000000000000000000000000000000000000000 PUSH0 MSTORE PUSH1 0x22 PUSH1 0x4 MSTORE PUSH1 0x24 PUSH0 REVERT JUMPDEST PUSH0 PUSH1 0x2 DUP3 DIV SWAP1 POP PUSH1 0x1 DUP3 AND DUP1 PUSH2 0x92A JUMPI PUSH1 0x7F DUP3 AND SWAP2 POP JUMPDEST PUSH1 0x20 DUP3 LT DUP2 SUB PUSH2 0x93D JUMPI PUSH2 0x93C PUSH2 0x8E6 JUMP JUMPDEST JUMPDEST POP SWAP2 SWAP1 POP JUMP JUMPDEST PUSH32 0x4E487B7100000000000000000000000000000000000000000000000000000000 PUSH0 MSTORE PUSH1 0x32 PUSH1 0x4 MSTORE PUSH1 0x24 PUSH0 REVERT JUMPDEST PUSH0 DUP2 SWAP1 POP SWAP3 SWAP2 POP POP JUMP JUMPDEST PUSH0 DUP2 SWAP1 POP DUP2 PUSH0 MSTORE PUSH1 0x20 PUSH0 KECCAK256 SWAP1 POP SWAP2 SWAP1 POP JUMP JUMPDEST PUSH0 DUP2 SLOAD PUSH2 0x998 DUP2 PUSH2 0x913 JUMP JUMPDEST PUSH2 0x9A2 DUP2 DUP7 PUSH2 0x970 JUMP JUMPDEST SWAP5 POP PUSH1 0x1 DUP3 AND PUSH0 DUP2 EQ PUSH2 0x9BC JUMPI PUSH1 0x1 DUP2 EQ PUSH2 0x9D1 JUMPI PUSH2 0xA03 JUMP JUMPDEST PUSH1 0xFF NOT DUP4 AND DUP7 MSTORE DUP2 ISZERO ISZERO DUP3 MUL DUP7 ADD SWAP4 POP PUSH2 0xA03 JUMP JUMPDEST PUSH2 0x9DA DUP6 PUSH2 0x97A JUMP JUMPDEST PUSH0 JUMPDEST DUP4 DUP2 LT ISZERO PUSH2 0x9FB JUMPI DUP2 SLOAD DUP2 DUP10 ADD MSTORE PUSH1 0x1 DUP3 ADD SWAP2 POP PUSH1 0x20 DUP2 ADD SWAP1 POP PUSH2 0x9DC JUMP JUMPDEST DUP4 DUP9 ADD SWAP6 POP POP POP JUMPDEST POP POP POP SWAP3 SWAP2 POP POP JUMP JUMPDEST PUSH0 PUSH2 0xA17 DUP3 DUP5 PUSH2 0x98C JUMP JUMPDEST SWAP2 POP DUP2 SWAP1 POP SWAP3 SWAP2 POP POP JUMP JUMPDEST PUSH0 PUSH2 0xA2C DUP3 PUSH2 0x55A JUMP JUMPDEST PUSH2 0xA36 DUP2 DUP6 PUSH2 0x970 JUMP JUMPDEST SWAP4 POP PUSH2 0xA46 DUP2 DUP6 PUSH1 0x20 DUP7 ADD PUSH2 0x574 JUMP JUMPDEST DUP1 DUP5 ADD SWAP2 POP POP SWAP3 SWAP2 POP POP JUMP JUMPDEST PUSH0 PUSH2 0xA5D DUP3 DUP5 PUSH2 0xA22 JUMP JUMPDEST SWAP2 POP DUP2 SWAP1 POP SWAP3 SWAP2 POP POP JUMP JUMPDEST PUSH32 0x4E487B7100000000000000000000000000000000000000000000000000000000 PUSH0 MSTORE PUSH1 0x11 PUSH1 0x4 MSTORE PUSH1 0x24 PUSH0 REVERT JUMPDEST PUSH0 PUSH2 0xA9F DUP3 PUSH2 0x4FC JUMP JUMPDEST SWAP2 POP PUSH2 0xAAA DUP4 PUSH2 0x4FC JUMP JUMPDEST SWAP3 POP DUP3 DUP3 SUB SWAP1 POP DUP2 DUP2 GT ISZERO PUSH2 0xAC2 JUMPI PUSH2 0xAC1 PUSH2 0xA68 JUMP JUMPDEST JUMPDEST SWAP3 SWAP2 POP POP JUMP JUMPDEST PUSH0 DUP2 SLOAD SWAP1 POP PUSH2 0xAD6 DUP2 PUSH2 0x913 JUMP JUMPDEST SWAP1 POP SWAP2 SWAP1 POP JUMP JUMPDEST PUSH0 PUSH1 0x20 PUSH1 0x1F DUP4 ADD DIV SWAP1 POP SWAP2 SWAP1 POP JUMP JUMPDEST PUSH0 DUP3 DUP3 SHL SWAP1 POP SWAP3 SWAP2 POP POP JUMP JUMPDEST PUSH0 PUSH1 0x8 DUP4 MUL PUSH2 0xB27 PUSH32 0xFFFFFFFFFFFFFFFFFFFFFFFFFFFFFFFFFFFFFFFFFFFFFFFFFFFFFFFFFFFFFFFF DUP3 PUSH2 0xAEC JUMP JUMPDEST PUSH2 0xB31 DUP7 DUP4 PUSH2 0xAEC JUMP JUMPDEST SWAP6 POP DUP1 NOT DUP5 AND SWAP4 POP DUP1 DUP7 AND DUP5 OR SWAP3 POP POP POP SWAP4 SWAP3 POP POP POP JUMP JUMPDEST PUSH0 DUP2 SWAP1 POP SWAP2 SWAP1 POP JUMP JUMPDEST PUSH0 PUSH2 0xB6C PUSH2 0xB67 PUSH2 0xB62 DUP5 PUSH2 0x4FC JUMP JUMPDEST PUSH2 0xB49 JUMP JUMPDEST PUSH2 0x4FC JUMP JUMPDEST SWAP1 POP SWAP2 SWAP1 POP JUMP JUMPDEST PUSH0 DUP2 SWAP1 POP SWAP2 SWAP1 POP JUMP JUMPDEST PUSH2 0xB85 DUP4 PUSH2 0xB52 JUMP JUMPDEST PUSH2 0xB99 PUSH2 0xB91 DUP3 PUSH2 0xB73 JUMP JUMPDEST DUP5 DUP5 SLOAD PUSH2 0xAF8 JUMP JUMPDEST DUP3 SSTORE POP POP POP POP JUMP JUMPDEST PUSH0 SWAP1 JUMP JUMPDEST PUSH2 0xBAD PUSH2 0xBA1 JUMP JUMPDEST PUSH2 0xBB8 DUP2 DUP5 DUP5 PUSH2 0xB7C JUMP JUMPDEST POP POP POP JUMP JUMPDEST JUMPDEST DUP2 DUP2 LT ISZERO PUSH2 0xBDB JUMPI PUSH2 0xBD0 PUSH0 DUP3 PUSH2 0xBA5 JUMP JUMPDEST PUSH1 0x1 DUP2 ADD SWAP1 POP PUSH2 0xBBE JUMP JUMPDEST POP POP JUMP JUMPDEST PUSH1 0x1F DUP3 GT ISZERO PUSH2 0xC20 JUMPI PUSH2 0xBF1 DUP2 PUSH2 0x97A JUMP JUMPDEST PUSH2 0xBFA DUP5 PUSH2 0xADD JUMP JUMPDEST DUP2 ADD PUSH1 0x20 DUP6 LT ISZERO PUSH2 0xC09 JUMPI DUP2 SWAP1 POP JUMPDEST PUSH2 0xC1D PUSH2 0xC15 DUP6 PUSH2 0xADD JUMP JUMPDEST DUP4 ADD DUP3 PUSH2 0xBBD JUMP JUMPDEST POP POP JUMPDEST POP POP POP JUMP JUMPDEST PUSH0 DUP3 DUP3 SHR SWAP1 POP SWAP3 SWAP2 POP POP JUMP JUMPDEST PUSH0 PUSH2 0xC40 PUSH0 NOT DUP5 PUSH1 0x8 MUL PUSH2 0xC25 JUMP JUMPDEST NOT DUP1 DUP4 AND SWAP2 POP POP SWAP3 SWAP2 POP POP JUMP JUMPDEST PUSH0 PUSH2 0xC58 DUP4 DUP4 PUSH2 0xC31 JUMP JUMPDEST SWAP2 POP DUP3 PUSH1 0x2 MUL DUP3 OR SWAP1 POP SWAP3 SWAP2 POP POP JUMP JUMPDEST DUP2 DUP2 SUB PUSH2 0xC76 JUMPI POP POP PUSH2 0xD4B JUMP JUMPDEST PUSH2 0xC7F DUP3 PUSH2 0xAC8 JUMP JUMPDEST PUSH8 0xFFFFFFFFFFFFFFFF DUP2 GT ISZERO PUSH2 0xC98 JUMPI PUSH2 0xC97 PUSH2 0x60F JUMP JUMPDEST JUMPDEST PUSH2 0xCA2 DUP3 SLOAD PUSH2 0x913 JUMP JUMPDEST PUSH2 0xCAD DUP3 DUP3 DUP6 PUSH2 0xBDF JUMP JUMPDEST PUSH0 PUSH1 0x1F DUP4 GT PUSH1 0x1 DUP2 EQ PUSH2 0xCDA JUMPI PUSH0 DUP5 ISZERO PUSH2 0xCC8 JUMPI DUP3 DUP8 ADD SLOAD SWAP1 POP JUMPDEST PUSH2 0xCD2 DUP6 DUP3 PUSH2 0xC4D JUMP JUMPDEST DUP7 SSTORE POP PUSH2 0xD44 JUMP JUMPDEST PUSH1 0x1F NOT DUP5 AND PUSH2 0xCE8 DUP8 PUSH2 0x97A JUMP JUMPDEST SWAP7 POP PUSH2 0xCF3 DUP7 PUSH2 0x97A JUMP JUMPDEST PUSH0 JUMPDEST DUP3 DUP2 LT ISZERO PUSH2 0xD1A JUMPI DUP5 DUP10 ADD SLOAD DUP3 SSTORE PUSH1 0x1 DUP3 ADD SWAP2 POP PUSH1 0x1 DUP6 ADD SWAP5 POP PUSH1 0x20 DUP2 ADD SWAP1 POP PUSH2 0xCF5 JUMP JUMPDEST DUP7 DUP4 LT ISZERO PUSH2 0xD37 JUMPI DUP5 DUP10 ADD SLOAD PUSH2 0xD33 PUSH1 0x1F DUP10 AND DUP3 PUSH2 0xC31 JUMP JUMPDEST DUP4 SSTORE POP JUMPDEST PUSH1 0x1 PUSH1 0x2 DUP9 MUL ADD DUP9 SSTORE POP POP POP JUMPDEST POP POP POP POP POP POP JUMPDEST JUMP JUMPDEST PUSH32 0x4E487B7100000000000000000000000000000000000000000000000000000000 PUSH0 MSTORE PUSH1 0x31 PUSH1 0x4 MSTORE PUSH1 0x24 PUSH0 REVERT JUMPDEST PUSH0 PUSH1 0x20 DUP3 ADD SWAP1 POP DUP2 DUP2 SUB PUSH0 DUP4 ADD MSTORE PUSH2 0xD92 DUP2 DUP5 PUSH2 0x592 JUMP JUMPDEST SWAP1 POP SWAP3 SWAP2 POP POP JUMP JUMPDEST PUSH2 0xDA3 DUP3 PUSH2 0x55A JUMP JUMPDEST PUSH8 0xFFFFFFFFFFFFFFFF DUP2 GT ISZERO PUSH2 0xDBC JUMPI PUSH2 0xDBB PUSH2 0x60F JUMP JUMPDEST JUMPDEST PUSH2 0xDC6 DUP3 SLOAD PUSH2 0x913 JUMP JUMPDEST PUSH2 0xDD1 DUP3 DUP3 DUP6 PUSH2 0xBDF JUMP JUMPDEST PUSH0 PUSH1 0x20 SWAP1 POP PUSH1 0x1F DUP4 GT PUSH1 0x1 DUP2 EQ PUSH2 0xE02 JUMPI PUSH0 DUP5 ISZERO PUSH2 0xDF0 JUMPI DUP3 DUP8 ADD MLOAD SWAP1 POP JUMPDEST PUSH2 0xDFA DUP6 DUP3 PUSH2 0xC4D JUMP JUMPDEST DUP7 SSTORE POP PUSH2 0xE61 JUMP JUMPDEST PUSH1 0x1F NOT DUP5 AND PUSH2 0xE10 DUP7 PUSH2 0x97A JUMP JUMPDEST PUSH0 JUMPDEST DUP3 DUP2 LT ISZERO PUSH2 0xE37 JUMPI DUP5 DUP10 ADD MLOAD DUP3 SSTORE PUSH1 0x1 DUP3 ADD SWAP2 POP PUSH1 0x20 DUP6 ADD SWAP5 POP PUSH1 0x20 DUP2 ADD SWAP1 POP PUSH2 0xE12 JUMP JUMPDEST DUP7 DUP4 LT ISZERO PUSH2 0xE54 JUMPI DUP5 DUP10 ADD MLOAD PUSH2 0xE50 PUSH1 0x1F DUP10 AND DUP3 PUSH2 0xC31 JUMP JUMPDEST DUP4 SSTORE POP JUMPDEST PUSH1 0x1 PUSH1 0x2 DUP9 MUL ADD DUP9 SSTORE POP POP POP JUMPDEST POP POP POP POP POP POP JUMP JUMPDEST PUSH0 PUSH1 0x40 DUP4 ADD PUSH0 DUP4 ADD MLOAD DUP5 DUP3 SUB PUSH0 DUP7 ADD MSTORE PUSH2 0xE83 DUP3 DUP3 PUSH2 0x7B3 JUMP JUMPDEST SWAP2 POP POP PUSH1 0x20 DUP4 ADD MLOAD PUSH2 0xE98 PUSH1 0x20 DUP7 ADD DUP3 PUSH2 0x7EB JUMP JUMPDEST POP DUP1 SWAP2 POP POP SWAP3 SWAP2 POP POP JUMP JUMPDEST PUSH0 PUSH1 0x20 DUP3 ADD SWAP1 POP DUP2 DUP2 SUB PUSH0 DUP4 ADD MSTORE PUSH2 0xEBB DUP2 DUP5 PUSH2 0xE69 JUMP JUMPDEST SWAP1 POP SWAP3 SWAP2 POP POP JUMP INVALID LOG2 PUSH5 0x6970667358 0x22 SLT KECCAK256 DUP6 SWAP10 RETURNDATASIZE 0xD2 RETURNDATACOPY BLOCKHASH SWAP16 0xAA SIGNEXTEND SDIV 0xC2 TIMESTAMP RETURNDATACOPY 0xA8 0xD5 DUP11 DUP15 0xBC MSIZE SDIV PUSH14 0x1387C031862D42CA5D045064736F PUSH13 0x634300081A0033000000000000 "
				},
				"gasEstimates": {
					"creation": {
						"codeDepositCost": "766600",
						"executionCost": "797",
						"totalCost": "767397"
					},
					"external": {
						"eliminarTarea(string)": "infinite",
						"getTarea()": "infinite",
						"s_tareas(uint256)": "infinite",
						"setTarea(string)": "infinite"
					}
				},
				"methodIdentifiers": {
					"eliminarTarea(string)": "9550975a",
					"getTarea()": "d06ba667",
					"s_tareas(uint256)": "92a3351a",
					"setTarea(string)": "d97546cc"
				}
			},
			"storageLayout": {
				"storage": [
					{
						"astId": 13,
						"contract": "modulo2/proyecto1/todolist.sol:ToDoList",
						"label": "s_tareas",
						"offset": 0,
						"slot": "0",
						"type": "t_array(t_struct(Tarea)8_storage)dyn_storage"
					}
				],
				"types": {
					"t_array(t_struct(Tarea)8_storage)dyn_storage": {
						"base": "t_struct(Tarea)8_storage",
						"encoding": "dynamic_array",
						"label": "struct ToDoList.Tarea[]",
						"numberOfBytes": "32"
					},
					"t_string_storage": {
						"encoding": "bytes",
						"label": "string",
						"numberOfBytes": "32"
					},
					"t_struct(Tarea)8_storage": {
						"encoding": "inplace",
						"label": "struct ToDoList.Tarea",
						"members": [
							{
								"astId": 5,
								"contract": "modulo2/proyecto1/todolist.sol:ToDoList",
								"label": "descripcion",
								"offset": 0,
								"slot": "0",
								"type": "t_string_storage"
							},
							{
								"astId": 7,
								"contract": "modulo2/proyecto1/todolist.sol:ToDoList",
								"label": "tiempoDeCreacion",
								"offset": 0,
								"slot": "1",
								"type": "t_uint256"
							}
						],
						"numberOfBytes": "64"
					},
					"t_uint256": {
						"encoding": "inplace",
						"label": "uint256",
						"numberOfBytes": "32"
					}
				}
			},
			"userdoc": {
				"events": {
					"ToDoList_TareaAnadida((string,uint256))": {
						"notice": "Evento emitido cuando se añade una nueva tarea"
					},
					"ToDoList_TareaCompletadaYEliminada(string)": {
						"notice": "Evento emitido cuando una tarea es completada y eliminada"
					}
				},
				"kind": "user",
				"methods": {
					"eliminarTarea(string)": {
						"notice": "Funcion para eliminar tareas completadas"
					},
					"getTarea()": {
						"notice": "Función que retorna todas las tareas almacenadas en el array s_tareas"
					},
					"s_tareas(uint256)": {
						"notice": "Array para almacenar la estructura de datos"
					},
					"setTarea(string)": {
						"notice": "Función para añadir tareas al almacenamiento del contrato"
					}
				},
				"notice": "Contrato para organizar tareas",
				"version": 1
			}
		}
	}
}