{
	"contracts/TpFinalModulo2.sol": {
		"KipuBank": {
			"abi": [
				{
					"inputs": [
						{
							"internalType": "uint256",
							"name": "_LimitePorBanco",
							"type": "uint256"
						},
						{
							"internalType": "uint256",
							"name": "_LimiteRetiroPorTransaccion",
							"type": "uint256"
						}
					],
					"stateMutability": "nonpayable",
					"type": "constructor"
				},
				{
					"inputs": [],
					"name": "CantidadIgualACero",
					"type": "error"
				},
				{
					"inputs": [
						{
							"internalType": "uint256",
							"name": "Requerido",
							"type": "uint256"
						},
						{
							"internalType": "uint256",
							"name": "Disponible",
							"type": "uint256"
						}
					],
					"name": "ExcedeBalance",
					"type": "error"
				},
				{
					"inputs": [
						{
							"internalType": "uint256",
							"name": "Requerido",
							"type": "uint256"
						},
						{
							"internalType": "uint256",
							"name": "Remanente",
							"type": "uint256"
						}
					],
					"name": "ExcedeCapacidadPorBanco",
					"type": "error"
				},
				{
					"inputs": [
						{
							"internalType": "uint256",
							"name": "Requerido",
							"type": "uint256"
						},
						{
							"internalType": "uint256",
							"name": "LimitePorTransaccion",
							"type": "uint256"
						}
					],
					"name": "ExcedeLimitePorTransaccion",
					"type": "error"
				},
				{
					"inputs": [],
					"name": "Reentrada",
					"type": "error"
				},
				{
					"inputs": [
						{
							"internalType": "address",
							"name": "Recepctor",
							"type": "address"
						},
						{
							"internalType": "uint256",
							"name": "Cantidad",
							"type": "uint256"
						}
					],
					"name": "TransferenciaFallida",
					"type": "error"
				},
				{
					"anonymous": false,
					"inputs": [
						{
							"indexed": false,
							"internalType": "address",
							"name": "Cuenta",
							"type": "address"
						},
						{
							"indexed": false,
							"internalType": "uint256",
							"name": "Cantidad",
							"type": "uint256"
						},
						{
							"indexed": false,
							"internalType": "uint256",
							"name": "BalanceResultante",
							"type": "uint256"
						},
						{
							"indexed": false,
							"internalType": "uint256",
							"name": "DepositoTotalGlobal",
							"type": "uint256"
						}
					],
					"name": "Depositado",
					"type": "event"
				},
				{
					"anonymous": false,
					"inputs": [
						{
							"indexed": false,
							"internalType": "address",
							"name": "Cuenta",
							"type": "address"
						},
						{
							"indexed": false,
							"internalType": "uint256",
							"name": "Cantidad",
							"type": "uint256"
						},
						{
							"indexed": false,
							"internalType": "uint256",
							"name": "BalanceResultante",
							"type": "uint256"
						}
					],
					"name": "Retiro",
					"type": "event"
				},
				{
					"inputs": [],
					"name": "CapacidadDeDepositoRestante",
					"outputs": [
						{
							"internalType": "uint256",
							"name": "",
							"type": "uint256"
						}
					],
					"stateMutability": "view",
					"type": "function"
				},
				{
					"inputs": [],
					"name": "Deposito",
					"outputs": [],
					"stateMutability": "payable",
					"type": "function"
				},
				{
					"inputs": [],
					"name": "LimitePorBanco",
					"outputs": [
						{
							"internalType": "uint256",
							"name": "",
							"type": "uint256"
						}
					],
					"stateMutability": "view",
					"type": "function"
				},
				{
					"inputs": [],
					"name": "LimiteRetiroPorTransaccion",
					"outputs": [
						{
							"internalType": "uint256",
							"name": "",
							"type": "uint256"
						}
					],
					"stateMutability": "view",
					"type": "function"
				},
				{
					"inputs": [],
					"name": "NumeroDeDepositos",
					"outputs": [
						{
							"internalType": "uint256",
							"name": "",
							"type": "uint256"
						}
					],
					"stateMutability": "view",
					"type": "function"
				},
				{
					"inputs": [],
					"name": "NumeroDeRetiros",
					"outputs": [
						{
							"internalType": "uint256",
							"name": "",
							"type": "uint256"
						}
					],
					"stateMutability": "view",
					"type": "function"
				},
				{
					"inputs": [
						{
							"internalType": "uint256",
							"name": "Cantidad",
							"type": "uint256"
						}
					],
					"name": "RetiroSaldo",
					"outputs": [],
					"stateMutability": "nonpayable",
					"type": "function"
				},
				{
					"inputs": [
						{
							"internalType": "address",
							"name": "Cuenta",
							"type": "address"
						}
					],
					"name": "SaldoDeCuenta",
					"outputs": [
						{
							"internalType": "uint256",
							"name": "",
							"type": "uint256"
						}
					],
					"stateMutability": "view",
					"type": "function"
				},
				{
					"inputs": [],
					"name": "TotalDepositado",
					"outputs": [
						{
							"internalType": "uint256",
							"name": "",
							"type": "uint256"
						}
					],
					"stateMutability": "view",
					"type": "function"
				},
				{
					"stateMutability": "payable",
					"type": "receive"
				}
			],
			"devdoc": {
				"author": "Leandro Toloza",
				"errors": {
					"ExcedeBalance(uint256,uint256)": [
						{
							"params": {
								"Disponible": "Saldo disponible del usuario.",
								"Requerido": "Monto solicitado a retirar."
							}
						}
					],
					"ExcedeCapacidadPorBanco(uint256,uint256)": [
						{
							"params": {
								"Remanente": "Capacidad restante del banco.",
								"Requerido": "Monto a depositar."
							}
						}
					],
					"ExcedeLimitePorTransaccion(uint256,uint256)": [
						{
							"params": {
								"LimitePorTransaccion": "Límite permitido por transacción.",
								"Requerido": "Monto solicitado a retirar."
							}
						}
					],
					"TransferenciaFallida(address,uint256)": [
						{
							"params": {
								"Cantidad": "Monto en wei.",
								"Recepctor": "Quien recibe envio."
							}
						}
					]
				},
				"events": {
					"Depositado(address,uint256,uint256,uint256)": {
						"params": {
							"BalanceResultante": "Saldo actualizado",
							"Cantidad": "Monto depositado",
							"Cuenta": "Direccion de quien deposita",
							"DepositoTotalGlobal": "Total acumulado depositado"
						}
					},
					"Retiro(address,uint256,uint256)": {
						"params": {
							"BalanceResultante": "Saldo actualizado",
							"Cantidad": "Monto retirado",
							"Cuenta": "Direccion de quien retiro"
						}
					}
				},
				"kind": "dev",
				"methods": {
					"RetiroSaldo(uint256)": {
						"params": {
							"Cantidad": "Monto a retirar"
						}
					},
					"SaldoDeCuenta(address)": {
						"params": {
							"Cuenta": "Dirección"
						}
					},
					"constructor": {
						"params": {
							"_LimitePorBanco": "Límite de depositos por banco",
							"_LimiteRetiroPorTransaccion": "Limite retro por transaccion"
						}
					}
				},
				"title": "KipuBank ",
				"version": 1
			},
			"evm": {
				"assembly": "    /* \"contracts/TpFinalModulo2.sol\":311:7001  contract KipuBank {... */\n  mstore(0x40, 0xc0)\n    /* \"contracts/TpFinalModulo2.sol\":3678:3922  constructor(uint256 _LimitePorBanco, uint256 _LimiteRetiroPorTransaccion) {... */\n  callvalue\n  dup1\n  iszero\n  tag_1\n  jumpi\n  0x00\n  dup1\n  revert\ntag_1:\n  pop\n  mload(0x40)\n  sub(codesize, bytecodeSize)\n  dup1\n  bytecodeSize\n  dup4\n  codecopy\n  dup2\n  dup2\n  add\n  0x40\n  mstore\n  dup2\n  add\n  swap1\n  tag_2\n  swap2\n  swap1\n  tag_3\n  jump\t// in\ntag_2:\n    /* \"contracts/TpFinalModulo2.sol\":3789:3790  0 */\n  0x00\n    /* \"contracts/TpFinalModulo2.sol\":3771:3786  _LimitePorBanco */\n  dup3\n    /* \"contracts/TpFinalModulo2.sol\":3771:3790  _LimitePorBanco > 0 */\n  gt\n    /* \"contracts/TpFinalModulo2.sol\":3763:3804  require(_LimitePorBanco > 0, \"bankCap=0\") */\n  tag_6\n  jumpi\n  mload(0x40)\n  0x08c379a000000000000000000000000000000000000000000000000000000000\n  dup2\n  mstore\n  0x04\n  add\n  tag_7\n  swap1\n  tag_8\n  jump\t// in\ntag_7:\n  mload(0x40)\n  dup1\n  swap2\n  sub\n  swap1\n  revert\ntag_6:\n    /* \"contracts/TpFinalModulo2.sol\":3832:3847  _LimitePorBanco */\n  dup2\n    /* \"contracts/TpFinalModulo2.sol\":3815:3847  LimitePorBanco = _LimitePorBanco */\n  0x80\n  dup2\n  dup2\n  mstore\n  pop\n  pop\n    /* \"contracts/TpFinalModulo2.sol\":3887:3914  _LimiteRetiroPorTransaccion */\n  dup1\n    /* \"contracts/TpFinalModulo2.sol\":3858:3914  LimiteRetiroPorTransaccion = _LimiteRetiroPorTransaccion */\n  0xa0\n  dup2\n  dup2\n  mstore\n  pop\n  pop\n    /* \"contracts/TpFinalModulo2.sol\":3678:3922  constructor(uint256 _LimitePorBanco, uint256 _LimiteRetiroPorTransaccion) {... */\n  pop\n  pop\n    /* \"contracts/TpFinalModulo2.sol\":311:7001  contract KipuBank {... */\n  jump(tag_9)\n    /* \"#utility.yul\":88:205   */\ntag_11:\n    /* \"#utility.yul\":197:198   */\n  0x00\n    /* \"#utility.yul\":194:195   */\n  dup1\n    /* \"#utility.yul\":187:199   */\n  revert\n    /* \"#utility.yul\":334:411   */\ntag_13:\n    /* \"#utility.yul\":371:378   */\n  0x00\n    /* \"#utility.yul\":400:405   */\n  dup2\n    /* \"#utility.yul\":389:405   */\n  swap1\n  pop\n    /* \"#utility.yul\":334:411   */\n  swap2\n  swap1\n  pop\n  jump\t// out\n    /* \"#utility.yul\":417:539   */\ntag_14:\n    /* \"#utility.yul\":490:514   */\n  tag_25\n    /* \"#utility.yul\":508:513   */\n  dup2\n    /* \"#utility.yul\":490:514   */\n  tag_13\n  jump\t// in\ntag_25:\n    /* \"#utility.yul\":483:488   */\n  dup2\n    /* \"#utility.yul\":480:515   */\n  eq\n    /* \"#utility.yul\":470:533   */\n  tag_26\n  jumpi\n    /* \"#utility.yul\":529:530   */\n  0x00\n    /* \"#utility.yul\":526:527   */\n  dup1\n    /* \"#utility.yul\":519:531   */\n  revert\n    /* \"#utility.yul\":470:533   */\ntag_26:\n    /* \"#utility.yul\":417:539   */\n  pop\n  jump\t// out\n    /* \"#utility.yul\":545:688   */\ntag_15:\n    /* \"#utility.yul\":602:607   */\n  0x00\n    /* \"#utility.yul\":633:639   */\n  dup2\n    /* \"#utility.yul\":627:640   */\n  mload\n    /* \"#utility.yul\":618:640   */\n  swap1\n  pop\n    /* \"#utility.yul\":649:682   */\n  tag_28\n    /* \"#utility.yul\":676:681   */\n  dup2\n    /* \"#utility.yul\":649:682   */\n  tag_14\n  jump\t// in\ntag_28:\n    /* \"#utility.yul\":545:688   */\n  swap3\n  swap2\n  pop\n  pop\n  jump\t// out\n    /* \"#utility.yul\":694:1201   */\ntag_3:\n    /* \"#utility.yul\":773:779   */\n  0x00\n    /* \"#utility.yul\":781:787   */\n  dup1\n    /* \"#utility.yul\":830:832   */\n  0x40\n    /* \"#utility.yul\":818:827   */\n  dup4\n    /* \"#utility.yul\":809:816   */\n  dup6\n    /* \"#utility.yul\":805:828   */\n  sub\n    /* \"#utility.yul\":801:833   */\n  slt\n    /* \"#utility.yul\":798:917   */\n  iszero\n  tag_30\n  jumpi\n    /* \"#utility.yul\":836:915   */\n  tag_31\n  tag_11\n  jump\t// in\ntag_31:\n    /* \"#utility.yul\":798:917   */\ntag_30:\n    /* \"#utility.yul\":956:957   */\n  0x00\n    /* \"#utility.yul\":981:1045   */\n  tag_32\n    /* \"#utility.yul\":1037:1044   */\n  dup6\n    /* \"#utility.yul\":1028:1034   */\n  dup3\n    /* \"#utility.yul\":1017:1026   */\n  dup7\n    /* \"#utility.yul\":1013:1035   */\n  add\n    /* \"#utility.yul\":981:1045   */\n  tag_15\n  jump\t// in\ntag_32:\n    /* \"#utility.yul\":971:1045   */\n  swap3\n  pop\n    /* \"#utility.yul\":927:1055   */\n  pop\n    /* \"#utility.yul\":1094:1096   */\n  0x20\n    /* \"#utility.yul\":1120:1184   */\n  tag_33\n    /* \"#utility.yul\":1176:1183   */\n  dup6\n    /* \"#utility.yul\":1167:1173   */\n  dup3\n    /* \"#utility.yul\":1156:1165   */\n  dup7\n    /* \"#utility.yul\":1152:1174   */\n  add\n    /* \"#utility.yul\":1120:1184   */\n  tag_15\n  jump\t// in\ntag_33:\n    /* \"#utility.yul\":1110:1184   */\n  swap2\n  pop\n    /* \"#utility.yul\":1065:1194   */\n  pop\n    /* \"#utility.yul\":694:1201   */\n  swap3\n  pop\n  swap3\n  swap1\n  pop\n  jump\t// out\n    /* \"#utility.yul\":1207:1376   */\ntag_16:\n    /* \"#utility.yul\":1291:1302   */\n  0x00\n    /* \"#utility.yul\":1325:1331   */\n  dup3\n    /* \"#utility.yul\":1320:1323   */\n  dup3\n    /* \"#utility.yul\":1313:1332   */\n  mstore\n    /* \"#utility.yul\":1365:1369   */\n  0x20\n    /* \"#utility.yul\":1360:1363   */\n  dup3\n    /* \"#utility.yul\":1356:1370   */\n  add\n    /* \"#utility.yul\":1341:1370   */\n  swap1\n  pop\n    /* \"#utility.yul\":1207:1376   */\n  swap3\n  swap2\n  pop\n  pop\n  jump\t// out\n    /* \"#utility.yul\":1382:1541   */\ntag_17:\n    /* \"#utility.yul\":1522:1533   */\n  0x62616e6b4361703d300000000000000000000000000000000000000000000000\n    /* \"#utility.yul\":1518:1519   */\n  0x00\n    /* \"#utility.yul\":1510:1516   */\n  dup3\n    /* \"#utility.yul\":1506:1520   */\n  add\n    /* \"#utility.yul\":1499:1534   */\n  mstore\n    /* \"#utility.yul\":1382:1541   */\n  pop\n  jump\t// out\n    /* \"#utility.yul\":1547:1912   */\ntag_18:\n    /* \"#utility.yul\":1689:1692   */\n  0x00\n    /* \"#utility.yul\":1710:1776   */\n  tag_37\n    /* \"#utility.yul\":1774:1775   */\n  0x09\n    /* \"#utility.yul\":1769:1772   */\n  dup4\n    /* \"#utility.yul\":1710:1776   */\n  tag_16\n  jump\t// in\ntag_37:\n    /* \"#utility.yul\":1703:1776   */\n  swap2\n  pop\n    /* \"#utility.yul\":1785:1878   */\n  tag_38\n    /* \"#utility.yul\":1874:1877   */\n  dup3\n    /* \"#utility.yul\":1785:1878   */\n  tag_17\n  jump\t// in\ntag_38:\n    /* \"#utility.yul\":1903:1905   */\n  0x20\n    /* \"#utility.yul\":1898:1901   */\n  dup3\n    /* \"#utility.yul\":1894:1906   */\n  add\n    /* \"#utility.yul\":1887:1906   */\n  swap1\n  pop\n    /* \"#utility.yul\":1547:1912   */\n  swap2\n  swap1\n  pop\n  jump\t// out\n    /* \"#utility.yul\":1918:2337   */\ntag_8:\n    /* \"#utility.yul\":2084:2088   */\n  0x00\n    /* \"#utility.yul\":2122:2124   */\n  0x20\n    /* \"#utility.yul\":2111:2120   */\n  dup3\n    /* \"#utility.yul\":2107:2125   */\n  add\n    /* \"#utility.yul\":2099:2125   */\n  swap1\n  pop\n    /* \"#utility.yul\":2171:2180   */\n  dup2\n    /* \"#utility.yul\":2165:2169   */\n  dup2\n    /* \"#utility.yul\":2161:2181   */\n  sub\n    /* \"#utility.yul\":2157:2158   */\n  0x00\n    /* \"#utility.yul\":2146:2155   */\n  dup4\n    /* \"#utility.yul\":2142:2159   */\n  add\n    /* \"#utility.yul\":2135:2182   */\n  mstore\n    /* \"#utility.yul\":2199:2330   */\n  tag_40\n    /* \"#utility.yul\":2325:2329   */\n  dup2\n    /* \"#utility.yul\":2199:2330   */\n  tag_18\n  jump\t// in\ntag_40:\n    /* \"#utility.yul\":2191:2330   */\n  swap1\n  pop\n    /* \"#utility.yul\":1918:2337   */\n  swap2\n  swap1\n  pop\n  jump\t// out\n    /* \"contracts/TpFinalModulo2.sol\":311:7001  contract KipuBank {... */\ntag_9:\n  mload(0x80)\n  mload(0xa0)\n  codecopy(0x00, dataOffset(sub_0), dataSize(sub_0))\n  0x00\n  assignImmutable(\"0xd9670a00d025e59e1bd58d53874bea4ab34fea782716e2c168e89a3c8452d3bb\")\n  0x00\n  assignImmutable(\"0xdec29173c70f4e70086d64e09cb72b415f3d6a1843817cff62483903f0e12f62\")\n  return(0x00, dataSize(sub_0))\nstop\n\nsub_0: assembly {\n        /* \"contracts/TpFinalModulo2.sol\":311:7001  contract KipuBank {... */\n      mstore(0x40, 0x80)\n      jumpi(tag_1, lt(calldatasize, 0x04))\n      shr(0xe0, calldataload(0x00))\n      dup1\n      0x3c3089c0\n      gt\n      tag_12\n      jumpi\n      dup1\n      0x3c3089c0\n      eq\n      tag_7\n      jumpi\n      dup1\n      0x5e68d306\n      eq\n      tag_8\n      jumpi\n      dup1\n      0x991bc4f3\n      eq\n      tag_9\n      jumpi\n      dup1\n      0xe443900e\n      eq\n      tag_10\n      jumpi\n      dup1\n      0xf6d3bde8\n      eq\n      tag_11\n      jumpi\n      jump(tag_2)\n    tag_12:\n      dup1\n      0x12462f66\n      eq\n      tag_3\n      jumpi\n      dup1\n      0x134ad0c8\n      eq\n      tag_4\n      jumpi\n      dup1\n      0x2a7fe4e9\n      eq\n      tag_5\n      jumpi\n      dup1\n      0x39bf7744\n      eq\n      tag_6\n      jumpi\n      jump(tag_2)\n    tag_1:\n      jumpi(tag_2, calldatasize)\n        /* \"contracts/TpFinalModulo2.sol\":5672:5704  _deposito(msg.sender, msg.value) */\n      tag_15\n        /* \"contracts/TpFinalModulo2.sol\":5682:5692  msg.sender */\n      caller\n        /* \"contracts/TpFinalModulo2.sol\":5694:5703  msg.value */\n      callvalue\n        /* \"contracts/TpFinalModulo2.sol\":5672:5681  _deposito */\n      tag_16\n        /* \"contracts/TpFinalModulo2.sol\":5672:5704  _deposito(msg.sender, msg.value) */\n      jump\t// in\n    tag_15:\n        /* \"contracts/TpFinalModulo2.sol\":311:7001  contract KipuBank {... */\n      stop\n    tag_2:\n      0x00\n      dup1\n      revert\n        /* \"contracts/TpFinalModulo2.sol\":2719:2751  uint256 public NumeroDeDepositos */\n    tag_3:\n      callvalue\n      dup1\n      iszero\n      tag_17\n      jumpi\n      0x00\n      dup1\n      revert\n    tag_17:\n      pop\n      tag_18\n      tag_19\n      jump\t// in\n    tag_18:\n      mload(0x40)\n      tag_20\n      swap2\n      swap1\n      tag_21\n      jump\t// in\n    tag_20:\n      mload(0x40)\n      dup1\n      swap2\n      sub\n      swap1\n      return\n        /* \"contracts/TpFinalModulo2.sol\":2886:2916  uint256 public TotalDepositado */\n    tag_4:\n      callvalue\n      dup1\n      iszero\n      tag_22\n      jumpi\n      0x00\n      dup1\n      revert\n    tag_22:\n      pop\n      tag_23\n      tag_24\n      jump\t// in\n    tag_23:\n      mload(0x40)\n      tag_25\n      swap2\n      swap1\n      tag_21\n      jump\t// in\n    tag_25:\n      mload(0x40)\n      dup1\n      swap2\n      sub\n      swap1\n      return\n        /* \"contracts/TpFinalModulo2.sol\":5249:5470  function CapacidadDeDepositoRestante() external view returns (uint256) {... */\n    tag_5:\n      callvalue\n      dup1\n      iszero\n      tag_26\n      jumpi\n      0x00\n      dup1\n      revert\n    tag_26:\n      pop\n      tag_27\n      tag_28\n      jump\t// in\n    tag_27:\n      mload(0x40)\n      tag_29\n      swap2\n      swap1\n      tag_21\n      jump\t// in\n    tag_29:\n      mload(0x40)\n      dup1\n      swap2\n      sub\n      swap1\n      return\n        /* \"contracts/TpFinalModulo2.sol\":4306:4973  function RetiroSaldo(uint256 Cantidad) external SinReentradas{... */\n    tag_6:\n      callvalue\n      dup1\n      iszero\n      tag_30\n      jumpi\n      0x00\n      dup1\n      revert\n    tag_30:\n      pop\n      tag_31\n      0x04\n      dup1\n      calldatasize\n      sub\n      dup2\n      add\n      swap1\n      tag_32\n      swap2\n      swap1\n      tag_33\n      jump\t// in\n    tag_32:\n      tag_34\n      jump\t// in\n    tag_31:\n      stop\n        /* \"contracts/TpFinalModulo2.sol\":2514:2565  uint256 public immutable LimiteRetiroPorTransaccion */\n    tag_7:\n      callvalue\n      dup1\n      iszero\n      tag_35\n      jumpi\n      0x00\n      dup1\n      revert\n    tag_35:\n      pop\n      tag_36\n      tag_37\n      jump\t// in\n    tag_36:\n      mload(0x40)\n      tag_38\n      swap2\n      swap1\n      tag_21\n      jump\t// in\n    tag_38:\n      mload(0x40)\n      dup1\n      swap2\n      sub\n      swap1\n      return\n        /* \"contracts/TpFinalModulo2.sol\":4080:4168  function Deposito() external payable {... */\n    tag_8:\n      tag_39\n      tag_40\n      jump\t// in\n    tag_39:\n      stop\n        /* \"contracts/TpFinalModulo2.sol\":5062:5176  function SaldoDeCuenta(address Cuenta) external view returns (uint256) {... */\n    tag_9:\n      callvalue\n      dup1\n      iszero\n      tag_41\n      jumpi\n      0x00\n      dup1\n      revert\n    tag_41:\n      pop\n      tag_42\n      0x04\n      dup1\n      calldatasize\n      sub\n      dup2\n      add\n      swap1\n      tag_43\n      swap2\n      swap1\n      tag_44\n      jump\t// in\n    tag_43:\n      tag_45\n      jump\t// in\n    tag_42:\n      mload(0x40)\n      tag_46\n      swap2\n      swap1\n      tag_21\n      jump\t// in\n    tag_46:\n      mload(0x40)\n      dup1\n      swap2\n      sub\n      swap1\n      return\n        /* \"contracts/TpFinalModulo2.sol\":2415:2454  uint256 public immutable LimitePorBanco */\n    tag_10:\n      callvalue\n      dup1\n      iszero\n      tag_47\n      jumpi\n      0x00\n      dup1\n      revert\n    tag_47:\n      pop\n      tag_48\n      tag_49\n      jump\t// in\n    tag_48:\n      mload(0x40)\n      tag_50\n      swap2\n      swap1\n      tag_21\n      jump\t// in\n    tag_50:\n      mload(0x40)\n      dup1\n      swap2\n      sub\n      swap1\n      return\n        /* \"contracts/TpFinalModulo2.sol\":2812:2842  uint256 public NumeroDeRetiros */\n    tag_11:\n      callvalue\n      dup1\n      iszero\n      tag_51\n      jumpi\n      0x00\n      dup1\n      revert\n    tag_51:\n      pop\n      tag_52\n      tag_53\n      jump\t// in\n    tag_52:\n      mload(0x40)\n      tag_54\n      swap2\n      swap1\n      tag_21\n      jump\t// in\n    tag_54:\n      mload(0x40)\n      dup1\n      swap2\n      sub\n      swap1\n      return\n        /* \"contracts/TpFinalModulo2.sol\":5967:6573  function _deposito(address Destinatario, uint256 Cantidad) private {... */\n    tag_16:\n        /* \"contracts/TpFinalModulo2.sol\":6061:6062  0 */\n      0x00\n        /* \"contracts/TpFinalModulo2.sol\":6049:6057  Cantidad */\n      dup2\n        /* \"contracts/TpFinalModulo2.sol\":6049:6062  Cantidad == 0 */\n      sub\n        /* \"contracts/TpFinalModulo2.sol\":6045:6091  if (Cantidad == 0) revert CantidadIgualACero() */\n      tag_56\n      jumpi\n        /* \"contracts/TpFinalModulo2.sol\":6071:6091  CantidadIgualACero() */\n      mload(0x40)\n      0xf3b24f2b00000000000000000000000000000000000000000000000000000000\n      dup2\n      mstore\n      0x04\n      add\n      mload(0x40)\n      dup1\n      swap2\n      sub\n      swap1\n      revert\n        /* \"contracts/TpFinalModulo2.sol\":6045:6091  if (Cantidad == 0) revert CantidadIgualACero() */\n    tag_56:\n        /* \"contracts/TpFinalModulo2.sol\":6104:6121  uint256 remanente */\n      0x00\n        /* \"contracts/TpFinalModulo2.sol\":6124:6145  _CapacidadRemanente() */\n      tag_57\n        /* \"contracts/TpFinalModulo2.sol\":6124:6143  _CapacidadRemanente */\n      tag_58\n        /* \"contracts/TpFinalModulo2.sol\":6124:6145  _CapacidadRemanente() */\n      jump\t// in\n    tag_57:\n        /* \"contracts/TpFinalModulo2.sol\":6104:6145  uint256 remanente = _CapacidadRemanente() */\n      swap1\n      pop\n        /* \"contracts/TpFinalModulo2.sol\":6220:6229  remanente */\n      dup1\n        /* \"contracts/TpFinalModulo2.sol\":6209:6217  Cantidad */\n      dup3\n        /* \"contracts/TpFinalModulo2.sol\":6209:6229  Cantidad > remanente */\n      gt\n        /* \"contracts/TpFinalModulo2.sol\":6205:6282  if (Cantidad > remanente) revert ExcedeCapacidadPorBanco(Cantidad, remanente) */\n      iszero\n      tag_59\n      jumpi\n        /* \"contracts/TpFinalModulo2.sol\":6262:6270  Cantidad */\n      dup2\n        /* \"contracts/TpFinalModulo2.sol\":6272:6281  remanente */\n      dup2\n        /* \"contracts/TpFinalModulo2.sol\":6238:6282  ExcedeCapacidadPorBanco(Cantidad, remanente) */\n      mload(0x40)\n      0xd2ed5d1600000000000000000000000000000000000000000000000000000000\n      dup2\n      mstore\n      0x04\n      add\n      tag_60\n      swap3\n      swap2\n      swap1\n      tag_61\n      jump\t// in\n    tag_60:\n      mload(0x40)\n      dup1\n      swap2\n      sub\n      swap1\n      revert\n        /* \"contracts/TpFinalModulo2.sol\":6205:6282  if (Cantidad > remanente) revert ExcedeCapacidadPorBanco(Cantidad, remanente) */\n    tag_59:\n        /* \"contracts/TpFinalModulo2.sol\":6342:6350  Cantidad */\n      dup2\n        /* \"contracts/TpFinalModulo2.sol\":6315:6324  _balances */\n      0x00\n        /* \"contracts/TpFinalModulo2.sol\":6315:6338  _balances[Destinatario] */\n      dup1\n        /* \"contracts/TpFinalModulo2.sol\":6325:6337  Destinatario */\n      dup6\n        /* \"contracts/TpFinalModulo2.sol\":6315:6338  _balances[Destinatario] */\n      0xffffffffffffffffffffffffffffffffffffffff\n      and\n      0xffffffffffffffffffffffffffffffffffffffff\n      and\n      dup2\n      mstore\n      0x20\n      add\n      swap1\n      dup2\n      mstore\n      0x20\n      add\n      0x00\n      keccak256\n      0x00\n        /* \"contracts/TpFinalModulo2.sol\":6315:6350  _balances[Destinatario] += Cantidad */\n      dup3\n      dup3\n      sload\n      tag_62\n      swap2\n      swap1\n      tag_63\n      jump\t// in\n    tag_62:\n      swap3\n      pop\n      pop\n      dup2\n      swap1\n      sstore\n      pop\n        /* \"contracts/TpFinalModulo2.sol\":6380:6388  Cantidad */\n      dup2\n        /* \"contracts/TpFinalModulo2.sol\":6361:6376  TotalDepositado */\n      0x03\n      0x00\n        /* \"contracts/TpFinalModulo2.sol\":6361:6388  TotalDepositado += Cantidad */\n      dup3\n      dup3\n      sload\n      tag_64\n      swap2\n      swap1\n      tag_63\n      jump\t// in\n    tag_64:\n      swap3\n      pop\n      pop\n      dup2\n      swap1\n      sstore\n      pop\n        /* \"contracts/TpFinalModulo2.sol\":6470:6471  1 */\n      0x01\n        /* \"contracts/TpFinalModulo2.sol\":6449:6466  NumeroDeDepositos */\n      dup1\n      0x00\n        /* \"contracts/TpFinalModulo2.sol\":6449:6471  NumeroDeDepositos += 1 */\n      dup3\n      dup3\n      sload\n      tag_65\n      swap2\n      swap1\n      tag_63\n      jump\t// in\n    tag_65:\n      swap3\n      pop\n      pop\n      dup2\n      swap1\n      sstore\n      pop\n        /* \"contracts/TpFinalModulo2.sol\":6489:6565  Depositado(Destinatario, Cantidad, _balances[Destinatario], TotalDepositado) */\n      0x21ad3da3f7fb75339a9115ee70aec211e99442183ccc18b3d1d56e3bfe920caf\n        /* \"contracts/TpFinalModulo2.sol\":6500:6512  Destinatario */\n      dup4\n        /* \"contracts/TpFinalModulo2.sol\":6514:6522  Cantidad */\n      dup4\n        /* \"contracts/TpFinalModulo2.sol\":6524:6533  _balances */\n      0x00\n        /* \"contracts/TpFinalModulo2.sol\":6524:6547  _balances[Destinatario] */\n      dup1\n        /* \"contracts/TpFinalModulo2.sol\":6534:6546  Destinatario */\n      dup8\n        /* \"contracts/TpFinalModulo2.sol\":6524:6547  _balances[Destinatario] */\n      0xffffffffffffffffffffffffffffffffffffffff\n      and\n      0xffffffffffffffffffffffffffffffffffffffff\n      and\n      dup2\n      mstore\n      0x20\n      add\n      swap1\n      dup2\n      mstore\n      0x20\n      add\n      0x00\n      keccak256\n      sload\n        /* \"contracts/TpFinalModulo2.sol\":6549:6564  TotalDepositado */\n      sload(0x03)\n        /* \"contracts/TpFinalModulo2.sol\":6489:6565  Depositado(Destinatario, Cantidad, _balances[Destinatario], TotalDepositado) */\n      mload(0x40)\n      tag_66\n      swap5\n      swap4\n      swap3\n      swap2\n      swap1\n      tag_67\n      jump\t// in\n    tag_66:\n      mload(0x40)\n      dup1\n      swap2\n      sub\n      swap1\n      log1\n        /* \"contracts/TpFinalModulo2.sol\":6034:6573  {... */\n      pop\n        /* \"contracts/TpFinalModulo2.sol\":5967:6573  function _deposito(address Destinatario, uint256 Cantidad) private {... */\n      pop\n      pop\n      jump\t// out\n        /* \"contracts/TpFinalModulo2.sol\":2719:2751  uint256 public NumeroDeDepositos */\n    tag_19:\n      sload(0x01)\n      dup2\n      jump\t// out\n        /* \"contracts/TpFinalModulo2.sol\":2886:2916  uint256 public TotalDepositado */\n    tag_24:\n      sload(0x03)\n      dup2\n      jump\t// out\n        /* \"contracts/TpFinalModulo2.sol\":5249:5470  function CapacidadDeDepositoRestante() external view returns (uint256) {... */\n    tag_28:\n        /* \"contracts/TpFinalModulo2.sol\":5311:5318  uint256 */\n      0x00\n        /* \"contracts/TpFinalModulo2.sol\":5331:5354  uint256 SaldoDepositado */\n      dup1\n        /* \"contracts/TpFinalModulo2.sol\":5357:5372  TotalDepositado */\n      sload(0x03)\n        /* \"contracts/TpFinalModulo2.sol\":5331:5372  uint256 SaldoDepositado = TotalDepositado */\n      swap1\n      pop\n        /* \"contracts/TpFinalModulo2.sol\":5409:5423  LimitePorBanco */\n      immutable(\"0xdec29173c70f4e70086d64e09cb72b415f3d6a1843817cff62483903f0e12f62\")\n        /* \"contracts/TpFinalModulo2.sol\":5390:5405  SaldoDepositado */\n      dup2\n        /* \"contracts/TpFinalModulo2.sol\":5390:5423  SaldoDepositado >= LimitePorBanco */\n      lt\n      iszero\n        /* \"contracts/TpFinalModulo2.sol\":5390:5462  SaldoDepositado >= LimitePorBanco ? 0 : LimitePorBanco - SaldoDepositado */\n      tag_69\n      jumpi\n        /* \"contracts/TpFinalModulo2.sol\":5447:5462  SaldoDepositado */\n      dup1\n        /* \"contracts/TpFinalModulo2.sol\":5430:5444  LimitePorBanco */\n      immutable(\"0xdec29173c70f4e70086d64e09cb72b415f3d6a1843817cff62483903f0e12f62\")\n        /* \"contracts/TpFinalModulo2.sol\":5430:5462  LimitePorBanco - SaldoDepositado */\n      tag_70\n      swap2\n      swap1\n      tag_71\n      jump\t// in\n    tag_70:\n        /* \"contracts/TpFinalModulo2.sol\":5390:5462  SaldoDepositado >= LimitePorBanco ? 0 : LimitePorBanco - SaldoDepositado */\n      jump(tag_72)\n    tag_69:\n        /* \"contracts/TpFinalModulo2.sol\":5426:5427  0 */\n      0x00\n        /* \"contracts/TpFinalModulo2.sol\":5390:5462  SaldoDepositado >= LimitePorBanco ? 0 : LimitePorBanco - SaldoDepositado */\n    tag_72:\n        /* \"contracts/TpFinalModulo2.sol\":5383:5462  return SaldoDepositado >= LimitePorBanco ? 0 : LimitePorBanco - SaldoDepositado */\n      swap2\n      pop\n      pop\n        /* \"contracts/TpFinalModulo2.sol\":5249:5470  function CapacidadDeDepositoRestante() external view returns (uint256) {... */\n      swap1\n      jump\t// out\n        /* \"contracts/TpFinalModulo2.sol\":4306:4973  function RetiroSaldo(uint256 Cantidad) external SinReentradas{... */\n    tag_34:\n        /* \"contracts/TpFinalModulo2.sol\":3263:3264  1 */\n      0x01\n        /* \"contracts/TpFinalModulo2.sol\":3249:3259  _bloqueado */\n      sload(0x04)\n        /* \"contracts/TpFinalModulo2.sol\":3249:3264  _bloqueado == 1 */\n      sub\n        /* \"contracts/TpFinalModulo2.sol\":3245:3284  if (_bloqueado == 1) revert Reentrada() */\n      tag_74\n      jumpi\n        /* \"contracts/TpFinalModulo2.sol\":3273:3284  Reentrada() */\n      mload(0x40)\n      0x19a5135e00000000000000000000000000000000000000000000000000000000\n      dup2\n      mstore\n      0x04\n      add\n      mload(0x40)\n      dup1\n      swap2\n      sub\n      swap1\n      revert\n        /* \"contracts/TpFinalModulo2.sol\":3245:3284  if (_bloqueado == 1) revert Reentrada() */\n    tag_74:\n        /* \"contracts/TpFinalModulo2.sol\":3308:3309  1 */\n      0x01\n        /* \"contracts/TpFinalModulo2.sol\":3295:3305  _bloqueado */\n      0x04\n        /* \"contracts/TpFinalModulo2.sol\":3295:3309  _bloqueado = 1 */\n      dup2\n      swap1\n      sstore\n      pop\n        /* \"contracts/TpFinalModulo2.sol\":4394:4395  0 */\n      0x00\n        /* \"contracts/TpFinalModulo2.sol\":4382:4390  Cantidad */\n      dup2\n        /* \"contracts/TpFinalModulo2.sol\":4382:4395  Cantidad == 0 */\n      sub\n        /* \"contracts/TpFinalModulo2.sol\":4378:4424  if (Cantidad == 0) revert CantidadIgualACero() */\n      tag_76\n      jumpi\n        /* \"contracts/TpFinalModulo2.sol\":4404:4424  CantidadIgualACero() */\n      mload(0x40)\n      0xf3b24f2b00000000000000000000000000000000000000000000000000000000\n      dup2\n      mstore\n      0x04\n      add\n      mload(0x40)\n      dup1\n      swap2\n      sub\n      swap1\n      revert\n        /* \"contracts/TpFinalModulo2.sol\":4378:4424  if (Cantidad == 0) revert CantidadIgualACero() */\n    tag_76:\n        /* \"contracts/TpFinalModulo2.sol\":4450:4476  LimiteRetiroPorTransaccion */\n      immutable(\"0xd9670a00d025e59e1bd58d53874bea4ab34fea782716e2c168e89a3c8452d3bb\")\n        /* \"contracts/TpFinalModulo2.sol\":4439:4447  Cantidad */\n      dup2\n        /* \"contracts/TpFinalModulo2.sol\":4439:4476  Cantidad > LimiteRetiroPorTransaccion */\n      gt\n        /* \"contracts/TpFinalModulo2.sol\":4435:4576  if (Cantidad > LimiteRetiroPorTransaccion) {... */\n      iszero\n      tag_77\n      jumpi\n        /* \"contracts/TpFinalModulo2.sol\":4527:4535  Cantidad */\n      dup1\n        /* \"contracts/TpFinalModulo2.sol\":4537:4563  LimiteRetiroPorTransaccion */\n      immutable(\"0xd9670a00d025e59e1bd58d53874bea4ab34fea782716e2c168e89a3c8452d3bb\")\n        /* \"contracts/TpFinalModulo2.sol\":4500:4564  ExcedeLimitePorTransaccion(Cantidad, LimiteRetiroPorTransaccion) */\n      mload(0x40)\n      0x8a52dd4b00000000000000000000000000000000000000000000000000000000\n      dup2\n      mstore\n      0x04\n      add\n      tag_78\n      swap3\n      swap2\n      swap1\n      tag_61\n      jump\t// in\n    tag_78:\n      mload(0x40)\n      dup1\n      swap2\n      sub\n      swap1\n      revert\n        /* \"contracts/TpFinalModulo2.sol\":4435:4576  if (Cantidad > LimiteRetiroPorTransaccion) {... */\n    tag_77:\n        /* \"contracts/TpFinalModulo2.sol\":4588:4599  uint256 bal */\n      0x00\n        /* \"contracts/TpFinalModulo2.sol\":4602:4611  _balances */\n      dup1\n        /* \"contracts/TpFinalModulo2.sol\":4602:4623  _balances[msg.sender] */\n      0x00\n        /* \"contracts/TpFinalModulo2.sol\":4612:4622  msg.sender */\n      caller\n        /* \"contracts/TpFinalModulo2.sol\":4602:4623  _balances[msg.sender] */\n      0xffffffffffffffffffffffffffffffffffffffff\n      and\n      0xffffffffffffffffffffffffffffffffffffffff\n      and\n      dup2\n      mstore\n      0x20\n      add\n      swap1\n      dup2\n      mstore\n      0x20\n      add\n      0x00\n      keccak256\n      sload\n        /* \"contracts/TpFinalModulo2.sol\":4588:4623  uint256 bal = _balances[msg.sender] */\n      swap1\n      pop\n        /* \"contracts/TpFinalModulo2.sol\":4649:4652  bal */\n      dup1\n        /* \"contracts/TpFinalModulo2.sol\":4638:4646  Cantidad */\n      dup3\n        /* \"contracts/TpFinalModulo2.sol\":4638:4652  Cantidad > bal */\n      gt\n        /* \"contracts/TpFinalModulo2.sol\":4634:4689  if (Cantidad > bal) revert ExcedeBalance(Cantidad, bal) */\n      iszero\n      tag_79\n      jumpi\n        /* \"contracts/TpFinalModulo2.sol\":4675:4683  Cantidad */\n      dup2\n        /* \"contracts/TpFinalModulo2.sol\":4685:4688  bal */\n      dup2\n        /* \"contracts/TpFinalModulo2.sol\":4661:4689  ExcedeBalance(Cantidad, bal) */\n      mload(0x40)\n      0x7340e13200000000000000000000000000000000000000000000000000000000\n      dup2\n      mstore\n      0x04\n      add\n      tag_80\n      swap3\n      swap2\n      swap1\n      tag_61\n      jump\t// in\n    tag_80:\n      mload(0x40)\n      dup1\n      swap2\n      sub\n      swap1\n      revert\n        /* \"contracts/TpFinalModulo2.sol\":4634:4689  if (Cantidad > bal) revert ExcedeBalance(Cantidad, bal) */\n    tag_79:\n        /* \"contracts/TpFinalModulo2.sol\":4777:4785  Cantidad */\n      dup2\n        /* \"contracts/TpFinalModulo2.sol\":4771:4774  bal */\n      dup2\n        /* \"contracts/TpFinalModulo2.sol\":4771:4785  bal - Cantidad */\n      sub\n        /* \"contracts/TpFinalModulo2.sol\":4747:4756  _balances */\n      0x00\n        /* \"contracts/TpFinalModulo2.sol\":4747:4768  _balances[msg.sender] */\n      dup1\n        /* \"contracts/TpFinalModulo2.sol\":4757:4767  msg.sender */\n      caller\n        /* \"contracts/TpFinalModulo2.sol\":4747:4768  _balances[msg.sender] */\n      0xffffffffffffffffffffffffffffffffffffffff\n      and\n      0xffffffffffffffffffffffffffffffffffffffff\n      and\n      dup2\n      mstore\n      0x20\n      add\n      swap1\n      dup2\n      mstore\n      0x20\n      add\n      0x00\n      keccak256\n        /* \"contracts/TpFinalModulo2.sol\":4747:4785  _balances[msg.sender] = bal - Cantidad */\n      dup2\n      swap1\n      sstore\n      pop\n        /* \"contracts/TpFinalModulo2.sol\":4826:4827  1 */\n      0x01\n        /* \"contracts/TpFinalModulo2.sol\":4807:4822  NumeroDeRetiros */\n      0x02\n      0x00\n        /* \"contracts/TpFinalModulo2.sol\":4807:4827  NumeroDeRetiros += 1 */\n      dup3\n      dup3\n      sload\n      tag_81\n      swap2\n      swap1\n      tag_63\n      jump\t// in\n    tag_81:\n      swap3\n      pop\n      pop\n      dup2\n      swap1\n      sstore\n      pop\n        /* \"contracts/TpFinalModulo2.sol\":4865:4896  _safeSend(msg.sender, Cantidad) */\n      tag_82\n        /* \"contracts/TpFinalModulo2.sol\":4875:4885  msg.sender */\n      caller\n        /* \"contracts/TpFinalModulo2.sol\":4887:4895  Cantidad */\n      dup4\n        /* \"contracts/TpFinalModulo2.sol\":4865:4874  _safeSend */\n      tag_83\n        /* \"contracts/TpFinalModulo2.sol\":4865:4896  _safeSend(msg.sender, Cantidad) */\n      jump\t// in\n    tag_82:\n        /* \"contracts/TpFinalModulo2.sol\":4914:4965  Retiro(msg.sender, Cantidad, _balances[msg.sender]) */\n      0x513a4e63a7de56cc9b7c15d2467c0ad91c82df2b439cc2c4992f0b3b4b997d14\n        /* \"contracts/TpFinalModulo2.sol\":4921:4931  msg.sender */\n      caller\n        /* \"contracts/TpFinalModulo2.sol\":4933:4941  Cantidad */\n      dup4\n        /* \"contracts/TpFinalModulo2.sol\":4943:4952  _balances */\n      0x00\n        /* \"contracts/TpFinalModulo2.sol\":4943:4964  _balances[msg.sender] */\n      dup1\n        /* \"contracts/TpFinalModulo2.sol\":4953:4963  msg.sender */\n      caller\n        /* \"contracts/TpFinalModulo2.sol\":4943:4964  _balances[msg.sender] */\n      0xffffffffffffffffffffffffffffffffffffffff\n      and\n      0xffffffffffffffffffffffffffffffffffffffff\n      and\n      dup2\n      mstore\n      0x20\n      add\n      swap1\n      dup2\n      mstore\n      0x20\n      add\n      0x00\n      keccak256\n      sload\n        /* \"contracts/TpFinalModulo2.sol\":4914:4965  Retiro(msg.sender, Cantidad, _balances[msg.sender]) */\n      mload(0x40)\n      tag_84\n      swap4\n      swap3\n      swap2\n      swap1\n      tag_85\n      jump\t// in\n    tag_84:\n      mload(0x40)\n      dup1\n      swap2\n      sub\n      swap1\n      log1\n        /* \"contracts/TpFinalModulo2.sol\":4367:4973  {... */\n      pop\n        /* \"contracts/TpFinalModulo2.sol\":3345:3346  0 */\n      0x00\n        /* \"contracts/TpFinalModulo2.sol\":3332:3342  _bloqueado */\n      0x04\n        /* \"contracts/TpFinalModulo2.sol\":3332:3346  _bloqueado = 0 */\n      dup2\n      swap1\n      sstore\n      pop\n        /* \"contracts/TpFinalModulo2.sol\":4306:4973  function RetiroSaldo(uint256 Cantidad) external SinReentradas{... */\n      pop\n      jump\t// out\n        /* \"contracts/TpFinalModulo2.sol\":2514:2565  uint256 public immutable LimiteRetiroPorTransaccion */\n    tag_37:\n      immutable(\"0xd9670a00d025e59e1bd58d53874bea4ab34fea782716e2c168e89a3c8452d3bb\")\n      dup2\n      jump\t// out\n        /* \"contracts/TpFinalModulo2.sol\":4080:4168  function Deposito() external payable {... */\n    tag_40:\n        /* \"contracts/TpFinalModulo2.sol\":4128:4160  _deposito(msg.sender, msg.value) */\n      tag_87\n        /* \"contracts/TpFinalModulo2.sol\":4138:4148  msg.sender */\n      caller\n        /* \"contracts/TpFinalModulo2.sol\":4150:4159  msg.value */\n      callvalue\n        /* \"contracts/TpFinalModulo2.sol\":4128:4137  _deposito */\n      tag_16\n        /* \"contracts/TpFinalModulo2.sol\":4128:4160  _deposito(msg.sender, msg.value) */\n      jump\t// in\n    tag_87:\n        /* \"contracts/TpFinalModulo2.sol\":4080:4168  function Deposito() external payable {... */\n      jump\t// out\n        /* \"contracts/TpFinalModulo2.sol\":5062:5176  function SaldoDeCuenta(address Cuenta) external view returns (uint256) {... */\n    tag_45:\n        /* \"contracts/TpFinalModulo2.sol\":5124:5131  uint256 */\n      0x00\n        /* \"contracts/TpFinalModulo2.sol\":5151:5160  _balances */\n      dup1\n        /* \"contracts/TpFinalModulo2.sol\":5151:5168  _balances[Cuenta] */\n      0x00\n        /* \"contracts/TpFinalModulo2.sol\":5161:5167  Cuenta */\n      dup4\n        /* \"contracts/TpFinalModulo2.sol\":5151:5168  _balances[Cuenta] */\n      0xffffffffffffffffffffffffffffffffffffffff\n      and\n      0xffffffffffffffffffffffffffffffffffffffff\n      and\n      dup2\n      mstore\n      0x20\n      add\n      swap1\n      dup2\n      mstore\n      0x20\n      add\n      0x00\n      keccak256\n      sload\n        /* \"contracts/TpFinalModulo2.sol\":5144:5168  return _balances[Cuenta] */\n      swap1\n      pop\n        /* \"contracts/TpFinalModulo2.sol\":5062:5176  function SaldoDeCuenta(address Cuenta) external view returns (uint256) {... */\n      swap2\n      swap1\n      pop\n      jump\t// out\n        /* \"contracts/TpFinalModulo2.sol\":2415:2454  uint256 public immutable LimitePorBanco */\n    tag_49:\n      immutable(\"0xdec29173c70f4e70086d64e09cb72b415f3d6a1843817cff62483903f0e12f62\")\n      dup2\n      jump\t// out\n        /* \"contracts/TpFinalModulo2.sol\":2812:2842  uint256 public NumeroDeRetiros */\n    tag_53:\n      sload(0x02)\n      dup2\n      jump\t// out\n        /* \"contracts/TpFinalModulo2.sol\":6786:6998  function _CapacidadRemanente() private view returns (uint256) {... */\n    tag_58:\n        /* \"contracts/TpFinalModulo2.sol\":6839:6846  uint256 */\n      0x00\n        /* \"contracts/TpFinalModulo2.sol\":6859:6882  uint256 SaldoDepositado */\n      dup1\n        /* \"contracts/TpFinalModulo2.sol\":6885:6900  TotalDepositado */\n      sload(0x03)\n        /* \"contracts/TpFinalModulo2.sol\":6859:6900  uint256 SaldoDepositado = TotalDepositado */\n      swap1\n      pop\n        /* \"contracts/TpFinalModulo2.sol\":6937:6951  LimitePorBanco */\n      immutable(\"0xdec29173c70f4e70086d64e09cb72b415f3d6a1843817cff62483903f0e12f62\")\n        /* \"contracts/TpFinalModulo2.sol\":6918:6933  SaldoDepositado */\n      dup2\n        /* \"contracts/TpFinalModulo2.sol\":6918:6951  SaldoDepositado >= LimitePorBanco */\n      lt\n      iszero\n        /* \"contracts/TpFinalModulo2.sol\":6918:6990  SaldoDepositado >= LimitePorBanco ? 0 : LimitePorBanco - SaldoDepositado */\n      tag_90\n      jumpi\n        /* \"contracts/TpFinalModulo2.sol\":6975:6990  SaldoDepositado */\n      dup1\n        /* \"contracts/TpFinalModulo2.sol\":6958:6972  LimitePorBanco */\n      immutable(\"0xdec29173c70f4e70086d64e09cb72b415f3d6a1843817cff62483903f0e12f62\")\n        /* \"contracts/TpFinalModulo2.sol\":6958:6990  LimitePorBanco - SaldoDepositado */\n      tag_91\n      swap2\n      swap1\n      tag_71\n      jump\t// in\n    tag_91:\n        /* \"contracts/TpFinalModulo2.sol\":6918:6990  SaldoDepositado >= LimitePorBanco ? 0 : LimitePorBanco - SaldoDepositado */\n      jump(tag_92)\n    tag_90:\n        /* \"contracts/TpFinalModulo2.sol\":6954:6955  0 */\n      0x00\n        /* \"contracts/TpFinalModulo2.sol\":6918:6990  SaldoDepositado >= LimitePorBanco ? 0 : LimitePorBanco - SaldoDepositado */\n    tag_92:\n        /* \"contracts/TpFinalModulo2.sol\":6911:6990  return SaldoDepositado >= LimitePorBanco ? 0 : LimitePorBanco - SaldoDepositado */\n      swap2\n      pop\n      pop\n        /* \"contracts/TpFinalModulo2.sol\":6786:6998  function _CapacidadRemanente() private view returns (uint256) {... */\n      swap1\n      jump\t// out\n        /* \"contracts/TpFinalModulo2.sol\":6581:6778  function _safeSend(address Receptor, uint256 Cantidad) private {... */\n    tag_83:\n        /* \"contracts/TpFinalModulo2.sol\":6656:6663  bool ok */\n      0x00\n        /* \"contracts/TpFinalModulo2.sol\":6669:6677  Receptor */\n      dup3\n        /* \"contracts/TpFinalModulo2.sol\":6669:6682  Receptor.call */\n      0xffffffffffffffffffffffffffffffffffffffff\n      and\n        /* \"contracts/TpFinalModulo2.sol\":6690:6698  Cantidad */\n      dup3\n        /* \"contracts/TpFinalModulo2.sol\":6669:6703  Receptor.call{value: Cantidad}(\"\") */\n      mload(0x40)\n      tag_94\n      swap1\n      tag_95\n      jump\t// in\n    tag_94:\n      0x00\n      mload(0x40)\n      dup1\n      dup4\n      sub\n      dup2\n      dup6\n      dup8\n      gas\n      call\n      swap3\n      pop\n      pop\n      pop\n      returndatasize\n      dup1\n      0x00\n      dup2\n      eq\n      tag_98\n      jumpi\n      mload(0x40)\n      swap2\n      pop\n      and(add(returndatasize, 0x3f), not(0x1f))\n      dup3\n      add\n      0x40\n      mstore\n      returndatasize\n      dup3\n      mstore\n      returndatasize\n      0x00\n      0x20\n      dup5\n      add\n      returndatacopy\n      jump(tag_97)\n    tag_98:\n      0x60\n      swap2\n      pop\n    tag_97:\n      pop\n        /* \"contracts/TpFinalModulo2.sol\":6655:6703  (bool ok, ) = Receptor.call{value: Cantidad}(\"\") */\n      pop\n      swap1\n      pop\n        /* \"contracts/TpFinalModulo2.sol\":6719:6721  ok */\n      dup1\n        /* \"contracts/TpFinalModulo2.sol\":6714:6770  if (!ok) revert TransferenciaFallida(Receptor, Cantidad) */\n      tag_99\n      jumpi\n        /* \"contracts/TpFinalModulo2.sol\":6751:6759  Receptor */\n      dup3\n        /* \"contracts/TpFinalModulo2.sol\":6761:6769  Cantidad */\n      dup3\n        /* \"contracts/TpFinalModulo2.sol\":6730:6770  TransferenciaFallida(Receptor, Cantidad) */\n      mload(0x40)\n      0xc66cee3800000000000000000000000000000000000000000000000000000000\n      dup2\n      mstore\n      0x04\n      add\n      tag_100\n      swap3\n      swap2\n      swap1\n      tag_101\n      jump\t// in\n    tag_100:\n      mload(0x40)\n      dup1\n      swap2\n      sub\n      swap1\n      revert\n        /* \"contracts/TpFinalModulo2.sol\":6714:6770  if (!ok) revert TransferenciaFallida(Receptor, Cantidad) */\n    tag_99:\n        /* \"contracts/TpFinalModulo2.sol\":6644:6778  {... */\n      pop\n        /* \"contracts/TpFinalModulo2.sol\":6581:6778  function _safeSend(address Receptor, uint256 Cantidad) private {... */\n      pop\n      pop\n      jump\t// out\n        /* \"#utility.yul\":7:84   */\n    tag_102:\n        /* \"#utility.yul\":44:51   */\n      0x00\n        /* \"#utility.yul\":73:78   */\n      dup2\n        /* \"#utility.yul\":62:78   */\n      swap1\n      pop\n        /* \"#utility.yul\":7:84   */\n      swap2\n      swap1\n      pop\n      jump\t// out\n        /* \"#utility.yul\":90:208   */\n    tag_103:\n        /* \"#utility.yul\":177:201   */\n      tag_121\n        /* \"#utility.yul\":195:200   */\n      dup2\n        /* \"#utility.yul\":177:201   */\n      tag_102\n      jump\t// in\n    tag_121:\n        /* \"#utility.yul\":172:175   */\n      dup3\n        /* \"#utility.yul\":165:202   */\n      mstore\n        /* \"#utility.yul\":90:208   */\n      pop\n      pop\n      jump\t// out\n        /* \"#utility.yul\":214:436   */\n    tag_21:\n        /* \"#utility.yul\":307:311   */\n      0x00\n        /* \"#utility.yul\":345:347   */\n      0x20\n        /* \"#utility.yul\":334:343   */\n      dup3\n        /* \"#utility.yul\":330:348   */\n      add\n        /* \"#utility.yul\":322:348   */\n      swap1\n      pop\n        /* \"#utility.yul\":358:429   */\n      tag_123\n        /* \"#utility.yul\":426:427   */\n      0x00\n        /* \"#utility.yul\":415:424   */\n      dup4\n        /* \"#utility.yul\":411:428   */\n      add\n        /* \"#utility.yul\":402:408   */\n      dup5\n        /* \"#utility.yul\":358:429   */\n      tag_103\n      jump\t// in\n    tag_123:\n        /* \"#utility.yul\":214:436   */\n      swap3\n      swap2\n      pop\n      pop\n      jump\t// out\n        /* \"#utility.yul\":523:640   */\n    tag_105:\n        /* \"#utility.yul\":632:633   */\n      0x00\n        /* \"#utility.yul\":629:630   */\n      dup1\n        /* \"#utility.yul\":622:634   */\n      revert\n        /* \"#utility.yul\":769:891   */\n    tag_107:\n        /* \"#utility.yul\":842:866   */\n      tag_128\n        /* \"#utility.yul\":860:865   */\n      dup2\n        /* \"#utility.yul\":842:866   */\n      tag_102\n      jump\t// in\n    tag_128:\n        /* \"#utility.yul\":835:840   */\n      dup2\n        /* \"#utility.yul\":832:867   */\n      eq\n        /* \"#utility.yul\":822:885   */\n      tag_129\n      jumpi\n        /* \"#utility.yul\":881:882   */\n      0x00\n        /* \"#utility.yul\":878:879   */\n      dup1\n        /* \"#utility.yul\":871:883   */\n      revert\n        /* \"#utility.yul\":822:885   */\n    tag_129:\n        /* \"#utility.yul\":769:891   */\n      pop\n      jump\t// out\n        /* \"#utility.yul\":897:1036   */\n    tag_108:\n        /* \"#utility.yul\":943:948   */\n      0x00\n        /* \"#utility.yul\":981:987   */\n      dup2\n        /* \"#utility.yul\":968:988   */\n      calldataload\n        /* \"#utility.yul\":959:988   */\n      swap1\n      pop\n        /* \"#utility.yul\":997:1030   */\n      tag_131\n        /* \"#utility.yul\":1024:1029   */\n      dup2\n        /* \"#utility.yul\":997:1030   */\n      tag_107\n      jump\t// in\n    tag_131:\n        /* \"#utility.yul\":897:1036   */\n      swap3\n      swap2\n      pop\n      pop\n      jump\t// out\n        /* \"#utility.yul\":1042:1371   */\n    tag_33:\n        /* \"#utility.yul\":1101:1107   */\n      0x00\n        /* \"#utility.yul\":1150:1152   */\n      0x20\n        /* \"#utility.yul\":1138:1147   */\n      dup3\n        /* \"#utility.yul\":1129:1136   */\n      dup5\n        /* \"#utility.yul\":1125:1148   */\n      sub\n        /* \"#utility.yul\":1121:1153   */\n      slt\n        /* \"#utility.yul\":1118:1237   */\n      iszero\n      tag_133\n      jumpi\n        /* \"#utility.yul\":1156:1235   */\n      tag_134\n      tag_105\n      jump\t// in\n    tag_134:\n        /* \"#utility.yul\":1118:1237   */\n    tag_133:\n        /* \"#utility.yul\":1276:1277   */\n      0x00\n        /* \"#utility.yul\":1301:1354   */\n      tag_135\n        /* \"#utility.yul\":1346:1353   */\n      dup5\n        /* \"#utility.yul\":1337:1343   */\n      dup3\n        /* \"#utility.yul\":1326:1335   */\n      dup6\n        /* \"#utility.yul\":1322:1344   */\n      add\n        /* \"#utility.yul\":1301:1354   */\n      tag_108\n      jump\t// in\n    tag_135:\n        /* \"#utility.yul\":1291:1354   */\n      swap2\n      pop\n        /* \"#utility.yul\":1247:1364   */\n      pop\n        /* \"#utility.yul\":1042:1371   */\n      swap3\n      swap2\n      pop\n      pop\n      jump\t// out\n        /* \"#utility.yul\":1377:1503   */\n    tag_109:\n        /* \"#utility.yul\":1414:1421   */\n      0x00\n        /* \"#utility.yul\":1454:1496   */\n      0xffffffffffffffffffffffffffffffffffffffff\n        /* \"#utility.yul\":1447:1452   */\n      dup3\n        /* \"#utility.yul\":1443:1497   */\n      and\n        /* \"#utility.yul\":1432:1497   */\n      swap1\n      pop\n        /* \"#utility.yul\":1377:1503   */\n      swap2\n      swap1\n      pop\n      jump\t// out\n        /* \"#utility.yul\":1509:1605   */\n    tag_110:\n        /* \"#utility.yul\":1546:1553   */\n      0x00\n        /* \"#utility.yul\":1575:1599   */\n      tag_138\n        /* \"#utility.yul\":1593:1598   */\n      dup3\n        /* \"#utility.yul\":1575:1599   */\n      tag_109\n      jump\t// in\n    tag_138:\n        /* \"#utility.yul\":1564:1599   */\n      swap1\n      pop\n        /* \"#utility.yul\":1509:1605   */\n      swap2\n      swap1\n      pop\n      jump\t// out\n        /* \"#utility.yul\":1611:1733   */\n    tag_111:\n        /* \"#utility.yul\":1684:1708   */\n      tag_140\n        /* \"#utility.yul\":1702:1707   */\n      dup2\n        /* \"#utility.yul\":1684:1708   */\n      tag_110\n      jump\t// in\n    tag_140:\n        /* \"#utility.yul\":1677:1682   */\n      dup2\n        /* \"#utility.yul\":1674:1709   */\n      eq\n        /* \"#utility.yul\":1664:1727   */\n      tag_141\n      jumpi\n        /* \"#utility.yul\":1723:1724   */\n      0x00\n        /* \"#utility.yul\":1720:1721   */\n      dup1\n        /* \"#utility.yul\":1713:1725   */\n      revert\n        /* \"#utility.yul\":1664:1727   */\n    tag_141:\n        /* \"#utility.yul\":1611:1733   */\n      pop\n      jump\t// out\n        /* \"#utility.yul\":1739:1878   */\n    tag_112:\n        /* \"#utility.yul\":1785:1790   */\n      0x00\n        /* \"#utility.yul\":1823:1829   */\n      dup2\n        /* \"#utility.yul\":1810:1830   */\n      calldataload\n        /* \"#utility.yul\":1801:1830   */\n      swap1\n      pop\n        /* \"#utility.yul\":1839:1872   */\n      tag_143\n        /* \"#utility.yul\":1866:1871   */\n      dup2\n        /* \"#utility.yul\":1839:1872   */\n      tag_111\n      jump\t// in\n    tag_143:\n        /* \"#utility.yul\":1739:1878   */\n      swap3\n      swap2\n      pop\n      pop\n      jump\t// out\n        /* \"#utility.yul\":1884:2213   */\n    tag_44:\n        /* \"#utility.yul\":1943:1949   */\n      0x00\n        /* \"#utility.yul\":1992:1994   */\n      0x20\n        /* \"#utility.yul\":1980:1989   */\n      dup3\n        /* \"#utility.yul\":1971:1978   */\n      dup5\n        /* \"#utility.yul\":1967:1990   */\n      sub\n        /* \"#utility.yul\":1963:1995   */\n      slt\n        /* \"#utility.yul\":1960:2079   */\n      iszero\n      tag_145\n      jumpi\n        /* \"#utility.yul\":1998:2077   */\n      tag_146\n      tag_105\n      jump\t// in\n    tag_146:\n        /* \"#utility.yul\":1960:2079   */\n    tag_145:\n        /* \"#utility.yul\":2118:2119   */\n      0x00\n        /* \"#utility.yul\":2143:2196   */\n      tag_147\n        /* \"#utility.yul\":2188:2195   */\n      dup5\n        /* \"#utility.yul\":2179:2185   */\n      dup3\n        /* \"#utility.yul\":2168:2177   */\n      dup6\n        /* \"#utility.yul\":2164:2186   */\n      add\n        /* \"#utility.yul\":2143:2196   */\n      tag_112\n      jump\t// in\n    tag_147:\n        /* \"#utility.yul\":2133:2196   */\n      swap2\n      pop\n        /* \"#utility.yul\":2089:2206   */\n      pop\n        /* \"#utility.yul\":1884:2213   */\n      swap3\n      swap2\n      pop\n      pop\n      jump\t// out\n        /* \"#utility.yul\":2219:2551   */\n    tag_61:\n        /* \"#utility.yul\":2340:2344   */\n      0x00\n        /* \"#utility.yul\":2378:2380   */\n      0x40\n        /* \"#utility.yul\":2367:2376   */\n      dup3\n        /* \"#utility.yul\":2363:2381   */\n      add\n        /* \"#utility.yul\":2355:2381   */\n      swap1\n      pop\n        /* \"#utility.yul\":2391:2462   */\n      tag_149\n        /* \"#utility.yul\":2459:2460   */\n      0x00\n        /* \"#utility.yul\":2448:2457   */\n      dup4\n        /* \"#utility.yul\":2444:2461   */\n      add\n        /* \"#utility.yul\":2435:2441   */\n      dup6\n        /* \"#utility.yul\":2391:2462   */\n      tag_103\n      jump\t// in\n    tag_149:\n        /* \"#utility.yul\":2472:2544   */\n      tag_150\n        /* \"#utility.yul\":2540:2542   */\n      0x20\n        /* \"#utility.yul\":2529:2538   */\n      dup4\n        /* \"#utility.yul\":2525:2543   */\n      add\n        /* \"#utility.yul\":2516:2522   */\n      dup5\n        /* \"#utility.yul\":2472:2544   */\n      tag_103\n      jump\t// in\n    tag_150:\n        /* \"#utility.yul\":2219:2551   */\n      swap4\n      swap3\n      pop\n      pop\n      pop\n      jump\t// out\n        /* \"#utility.yul\":2557:2737   */\n    tag_113:\n        /* \"#utility.yul\":2605:2682   */\n      0x4e487b7100000000000000000000000000000000000000000000000000000000\n        /* \"#utility.yul\":2602:2603   */\n      0x00\n        /* \"#utility.yul\":2595:2683   */\n      mstore\n        /* \"#utility.yul\":2702:2706   */\n      0x11\n        /* \"#utility.yul\":2699:2700   */\n      0x04\n        /* \"#utility.yul\":2692:2707   */\n      mstore\n        /* \"#utility.yul\":2726:2730   */\n      0x24\n        /* \"#utility.yul\":2723:2724   */\n      0x00\n        /* \"#utility.yul\":2716:2731   */\n      revert\n        /* \"#utility.yul\":2743:2934   */\n    tag_63:\n        /* \"#utility.yul\":2783:2786   */\n      0x00\n        /* \"#utility.yul\":2802:2822   */\n      tag_153\n        /* \"#utility.yul\":2820:2821   */\n      dup3\n        /* \"#utility.yul\":2802:2822   */\n      tag_102\n      jump\t// in\n    tag_153:\n        /* \"#utility.yul\":2797:2822   */\n      swap2\n      pop\n        /* \"#utility.yul\":2836:2856   */\n      tag_154\n        /* \"#utility.yul\":2854:2855   */\n      dup4\n        /* \"#utility.yul\":2836:2856   */\n      tag_102\n      jump\t// in\n    tag_154:\n        /* \"#utility.yul\":2831:2856   */\n      swap3\n      pop\n        /* \"#utility.yul\":2879:2880   */\n      dup3\n        /* \"#utility.yul\":2876:2877   */\n      dup3\n        /* \"#utility.yul\":2872:2881   */\n      add\n        /* \"#utility.yul\":2865:2881   */\n      swap1\n      pop\n        /* \"#utility.yul\":2900:2903   */\n      dup1\n        /* \"#utility.yul\":2897:2898   */\n      dup3\n        /* \"#utility.yul\":2894:2904   */\n      gt\n        /* \"#utility.yul\":2891:2927   */\n      iszero\n      tag_155\n      jumpi\n        /* \"#utility.yul\":2907:2925   */\n      tag_156\n      tag_113\n      jump\t// in\n    tag_156:\n        /* \"#utility.yul\":2891:2927   */\n    tag_155:\n        /* \"#utility.yul\":2743:2934   */\n      swap3\n      swap2\n      pop\n      pop\n      jump\t// out\n        /* \"#utility.yul\":2940:3058   */\n    tag_114:\n        /* \"#utility.yul\":3027:3051   */\n      tag_158\n        /* \"#utility.yul\":3045:3050   */\n      dup2\n        /* \"#utility.yul\":3027:3051   */\n      tag_110\n      jump\t// in\n    tag_158:\n        /* \"#utility.yul\":3022:3025   */\n      dup3\n        /* \"#utility.yul\":3015:3052   */\n      mstore\n        /* \"#utility.yul\":2940:3058   */\n      pop\n      pop\n      jump\t// out\n        /* \"#utility.yul\":3064:3617   */\n    tag_67:\n        /* \"#utility.yul\":3241:3245   */\n      0x00\n        /* \"#utility.yul\":3279:3282   */\n      0x80\n        /* \"#utility.yul\":3268:3277   */\n      dup3\n        /* \"#utility.yul\":3264:3283   */\n      add\n        /* \"#utility.yul\":3256:3283   */\n      swap1\n      pop\n        /* \"#utility.yul\":3293:3364   */\n      tag_160\n        /* \"#utility.yul\":3361:3362   */\n      0x00\n        /* \"#utility.yul\":3350:3359   */\n      dup4\n        /* \"#utility.yul\":3346:3363   */\n      add\n        /* \"#utility.yul\":3337:3343   */\n      dup8\n        /* \"#utility.yul\":3293:3364   */\n      tag_114\n      jump\t// in\n    tag_160:\n        /* \"#utility.yul\":3374:3446   */\n      tag_161\n        /* \"#utility.yul\":3442:3444   */\n      0x20\n        /* \"#utility.yul\":3431:3440   */\n      dup4\n        /* \"#utility.yul\":3427:3445   */\n      add\n        /* \"#utility.yul\":3418:3424   */\n      dup7\n        /* \"#utility.yul\":3374:3446   */\n      tag_103\n      jump\t// in\n    tag_161:\n        /* \"#utility.yul\":3456:3528   */\n      tag_162\n        /* \"#utility.yul\":3524:3526   */\n      0x40\n        /* \"#utility.yul\":3513:3522   */\n      dup4\n        /* \"#utility.yul\":3509:3527   */\n      add\n        /* \"#utility.yul\":3500:3506   */\n      dup6\n        /* \"#utility.yul\":3456:3528   */\n      tag_103\n      jump\t// in\n    tag_162:\n        /* \"#utility.yul\":3538:3610   */\n      tag_163\n        /* \"#utility.yul\":3606:3608   */\n      0x60\n        /* \"#utility.yul\":3595:3604   */\n      dup4\n        /* \"#utility.yul\":3591:3609   */\n      add\n        /* \"#utility.yul\":3582:3588   */\n      dup5\n        /* \"#utility.yul\":3538:3610   */\n      tag_103\n      jump\t// in\n    tag_163:\n        /* \"#utility.yul\":3064:3617   */\n      swap6\n      swap5\n      pop\n      pop\n      pop\n      pop\n      pop\n      jump\t// out\n        /* \"#utility.yul\":3623:3817   */\n    tag_71:\n        /* \"#utility.yul\":3663:3667   */\n      0x00\n        /* \"#utility.yul\":3683:3703   */\n      tag_165\n        /* \"#utility.yul\":3701:3702   */\n      dup3\n        /* \"#utility.yul\":3683:3703   */\n      tag_102\n      jump\t// in\n    tag_165:\n        /* \"#utility.yul\":3678:3703   */\n      swap2\n      pop\n        /* \"#utility.yul\":3717:3737   */\n      tag_166\n        /* \"#utility.yul\":3735:3736   */\n      dup4\n        /* \"#utility.yul\":3717:3737   */\n      tag_102\n      jump\t// in\n    tag_166:\n        /* \"#utility.yul\":3712:3737   */\n      swap3\n      pop\n        /* \"#utility.yul\":3761:3762   */\n      dup3\n        /* \"#utility.yul\":3758:3759   */\n      dup3\n        /* \"#utility.yul\":3754:3763   */\n      sub\n        /* \"#utility.yul\":3746:3763   */\n      swap1\n      pop\n        /* \"#utility.yul\":3785:3786   */\n      dup2\n        /* \"#utility.yul\":3779:3783   */\n      dup2\n        /* \"#utility.yul\":3776:3787   */\n      gt\n        /* \"#utility.yul\":3773:3810   */\n      iszero\n      tag_167\n      jumpi\n        /* \"#utility.yul\":3790:3808   */\n      tag_168\n      tag_113\n      jump\t// in\n    tag_168:\n        /* \"#utility.yul\":3773:3810   */\n    tag_167:\n        /* \"#utility.yul\":3623:3817   */\n      swap3\n      swap2\n      pop\n      pop\n      jump\t// out\n        /* \"#utility.yul\":3823:4265   */\n    tag_85:\n        /* \"#utility.yul\":3972:3976   */\n      0x00\n        /* \"#utility.yul\":4010:4012   */\n      0x60\n        /* \"#utility.yul\":3999:4008   */\n      dup3\n        /* \"#utility.yul\":3995:4013   */\n      add\n        /* \"#utility.yul\":3987:4013   */\n      swap1\n      pop\n        /* \"#utility.yul\":4023:4094   */\n      tag_170\n        /* \"#utility.yul\":4091:4092   */\n      0x00\n        /* \"#utility.yul\":4080:4089   */\n      dup4\n        /* \"#utility.yul\":4076:4093   */\n      add\n        /* \"#utility.yul\":4067:4073   */\n      dup7\n        /* \"#utility.yul\":4023:4094   */\n      tag_114\n      jump\t// in\n    tag_170:\n        /* \"#utility.yul\":4104:4176   */\n      tag_171\n        /* \"#utility.yul\":4172:4174   */\n      0x20\n        /* \"#utility.yul\":4161:4170   */\n      dup4\n        /* \"#utility.yul\":4157:4175   */\n      add\n        /* \"#utility.yul\":4148:4154   */\n      dup6\n        /* \"#utility.yul\":4104:4176   */\n      tag_103\n      jump\t// in\n    tag_171:\n        /* \"#utility.yul\":4186:4258   */\n      tag_172\n        /* \"#utility.yul\":4254:4256   */\n      0x40\n        /* \"#utility.yul\":4243:4252   */\n      dup4\n        /* \"#utility.yul\":4239:4257   */\n      add\n        /* \"#utility.yul\":4230:4236   */\n      dup5\n        /* \"#utility.yul\":4186:4258   */\n      tag_103\n      jump\t// in\n    tag_172:\n        /* \"#utility.yul\":3823:4265   */\n      swap5\n      swap4\n      pop\n      pop\n      pop\n      pop\n      jump\t// out\n        /* \"#utility.yul\":4271:4418   */\n    tag_115:\n        /* \"#utility.yul\":4372:4383   */\n      0x00\n        /* \"#utility.yul\":4409:4412   */\n      dup2\n        /* \"#utility.yul\":4394:4412   */\n      swap1\n      pop\n        /* \"#utility.yul\":4271:4418   */\n      swap3\n      swap2\n      pop\n      pop\n      jump\t// out\n        /* \"#utility.yul\":4424:4538   */\n    tag_116:\n      pop\n      jump\t// out\n        /* \"#utility.yul\":4544:4942   */\n    tag_117:\n        /* \"#utility.yul\":4703:4706   */\n      0x00\n        /* \"#utility.yul\":4724:4807   */\n      tag_176\n        /* \"#utility.yul\":4805:4806   */\n      0x00\n        /* \"#utility.yul\":4800:4803   */\n      dup4\n        /* \"#utility.yul\":4724:4807   */\n      tag_115\n      jump\t// in\n    tag_176:\n        /* \"#utility.yul\":4717:4807   */\n      swap2\n      pop\n        /* \"#utility.yul\":4816:4909   */\n      tag_177\n        /* \"#utility.yul\":4905:4908   */\n      dup3\n        /* \"#utility.yul\":4816:4909   */\n      tag_116\n      jump\t// in\n    tag_177:\n        /* \"#utility.yul\":4934:4935   */\n      0x00\n        /* \"#utility.yul\":4929:4932   */\n      dup3\n        /* \"#utility.yul\":4925:4936   */\n      add\n        /* \"#utility.yul\":4918:4936   */\n      swap1\n      pop\n        /* \"#utility.yul\":4544:4942   */\n      swap2\n      swap1\n      pop\n      jump\t// out\n        /* \"#utility.yul\":4948:5327   */\n    tag_95:\n        /* \"#utility.yul\":5132:5135   */\n      0x00\n        /* \"#utility.yul\":5154:5301   */\n      tag_179\n        /* \"#utility.yul\":5297:5300   */\n      dup3\n        /* \"#utility.yul\":5154:5301   */\n      tag_117\n      jump\t// in\n    tag_179:\n        /* \"#utility.yul\":5147:5301   */\n      swap2\n      pop\n        /* \"#utility.yul\":5318:5321   */\n      dup2\n        /* \"#utility.yul\":5311:5321   */\n      swap1\n      pop\n        /* \"#utility.yul\":4948:5327   */\n      swap2\n      swap1\n      pop\n      jump\t// out\n        /* \"#utility.yul\":5333:5665   */\n    tag_101:\n        /* \"#utility.yul\":5454:5458   */\n      0x00\n        /* \"#utility.yul\":5492:5494   */\n      0x40\n        /* \"#utility.yul\":5481:5490   */\n      dup3\n        /* \"#utility.yul\":5477:5495   */\n      add\n        /* \"#utility.yul\":5469:5495   */\n      swap1\n      pop\n        /* \"#utility.yul\":5505:5576   */\n      tag_181\n        /* \"#utility.yul\":5573:5574   */\n      0x00\n        /* \"#utility.yul\":5562:5571   */\n      dup4\n        /* \"#utility.yul\":5558:5575   */\n      add\n        /* \"#utility.yul\":5549:5555   */\n      dup6\n        /* \"#utility.yul\":5505:5576   */\n      tag_114\n      jump\t// in\n    tag_181:\n        /* \"#utility.yul\":5586:5658   */\n      tag_182\n        /* \"#utility.yul\":5654:5656   */\n      0x20\n        /* \"#utility.yul\":5643:5652   */\n      dup4\n        /* \"#utility.yul\":5639:5657   */\n      add\n        /* \"#utility.yul\":5630:5636   */\n      dup5\n        /* \"#utility.yul\":5586:5658   */\n      tag_103\n      jump\t// in\n    tag_182:\n        /* \"#utility.yul\":5333:5665   */\n      swap4\n      swap3\n      pop\n      pop\n      pop\n      jump\t// out\n\n    auxdata: 0xa264697066735822122089dca8eb0d62714fa8048cc6bad165ece370976bcbbe91f7bf2dae2e651acaa064736f6c634300081a0033\n}\n",
				"bytecode": {
					"linkReferences": {},
					"object": "60c060405234801561000f575f80fd5b50604051610ce4380380610ce4833981810160405281019061003191906100c1565b5f8211610073576040517f08c379a000000000000000000000000000000000000000000000000000000000815260040161006a90610159565b60405180910390fd5b81608081815250508060a081815250505050610177565b5f80fd5b5f819050919050565b6100a08161008e565b81146100aa575f80fd5b50565b5f815190506100bb81610097565b92915050565b5f80604083850312156100d7576100d661008a565b5b5f6100e4858286016100ad565b92505060206100f5858286016100ad565b9150509250929050565b5f82825260208201905092915050565b7f62616e6b4361703d3000000000000000000000000000000000000000000000005f82015250565b5f6101436009836100ff565b915061014e8261010f565b602082019050919050565b5f6020820190508181035f83015261017081610137565b9050919050565b60805160a051610b226101c25f395f8181610488015281816104b1015261067e01525f81816103aa015281816103d3015281816106f301528181610724015261074d0152610b225ff3fe608060405260043610610089575f3560e01c80633c3089c0116100585780633c3089c0146101445780635e68d3061461016e578063991bc4f314610178578063e443900e146101b4578063f6d3bde8146101de5761009a565b806312462f661461009e578063134ad0c8146100c85780632a7fe4e9146100f257806339bf77441461011c5761009a565b3661009a576100983334610208565b005b5f80fd5b3480156100a9575f80fd5b506100b2610395565b6040516100bf919061084c565b60405180910390f35b3480156100d3575f80fd5b506100dc61039b565b6040516100e9919061084c565b60405180910390f35b3480156100fd575f80fd5b506101066103a1565b604051610113919061084c565b60405180910390f35b348015610127575f80fd5b50610142600480360381019061013d9190610893565b610409565b005b34801561014f575f80fd5b5061015861067c565b604051610165919061084c565b60405180910390f35b6101766106a0565b005b348015610183575f80fd5b5061019e60048036038101906101999190610918565b6106ac565b6040516101ab919061084c565b60405180910390f35b3480156101bf575f80fd5b506101c86106f1565b6040516101d5919061084c565b60405180910390f35b3480156101e9575f80fd5b506101f2610715565b6040516101ff919061084c565b60405180910390f35b5f8103610241576040517ff3b24f2b00000000000000000000000000000000000000000000000000000000815260040160405180910390fd5b5f61024a61071b565b9050808211156102935781816040517fd2ed5d1600000000000000000000000000000000000000000000000000000000815260040161028a929190610943565b60405180910390fd5b815f808573ffffffffffffffffffffffffffffffffffffffff1673ffffffffffffffffffffffffffffffffffffffff1681526020019081526020015f205f8282546102de9190610997565b925050819055508160035f8282546102f69190610997565b925050819055506001805f82825461030e9190610997565b925050819055507f21ad3da3f7fb75339a9115ee70aec211e99442183ccc18b3d1d56e3bfe920caf83835f808773ffffffffffffffffffffffffffffffffffffffff1673ffffffffffffffffffffffffffffffffffffffff1681526020019081526020015f205460035460405161038894939291906109d9565b60405180910390a1505050565b60015481565b60035481565b5f8060035490507f000000000000000000000000000000000000000000000000000000000000000081101561040157807f00000000000000000000000000000000000000000000000000000000000000006103fc9190610a1c565b610403565b5f5b91505090565b600160045403610445576040517f19a5135e00000000000000000000000000000000000000000000000000000000815260040160405180910390fd5b60016004819055505f8103610486576040517ff3b24f2b00000000000000000000000000000000000000000000000000000000815260040160405180910390fd5b7f000000000000000000000000000000000000000000000000000000000000000081111561050d57807f00000000000000000000000000000000000000000000000000000000000000006040517f8a52dd4b000000000000000000000000000000000000000000000000000000008152600401610504929190610943565b60405180910390fd5b5f805f3373ffffffffffffffffffffffffffffffffffffffff1673ffffffffffffffffffffffffffffffffffffffff1681526020019081526020015f20549050808211156105945781816040517f7340e13200000000000000000000000000000000000000000000000000000000815260040161058b929190610943565b60405180910390fd5b8181035f803373ffffffffffffffffffffffffffffffffffffffff1673ffffffffffffffffffffffffffffffffffffffff1681526020019081526020015f2081905550600160025f8282546105e99190610997565b925050819055506105fa3383610783565b7f513a4e63a7de56cc9b7c15d2467c0ad91c82df2b439cc2c4992f0b3b4b997d1433835f803373ffffffffffffffffffffffffffffffffffffffff1673ffffffffffffffffffffffffffffffffffffffff1681526020019081526020015f205460405161066993929190610a4f565b60405180910390a1505f60048190555050565b7f000000000000000000000000000000000000000000000000000000000000000081565b6106aa3334610208565b565b5f805f8373ffffffffffffffffffffffffffffffffffffffff1673ffffffffffffffffffffffffffffffffffffffff1681526020019081526020015f20549050919050565b7f000000000000000000000000000000000000000000000000000000000000000081565b60025481565b5f8060035490507f000000000000000000000000000000000000000000000000000000000000000081101561077b57807f00000000000000000000000000000000000000000000000000000000000000006107769190610a1c565b61077d565b5f5b91505090565b5f8273ffffffffffffffffffffffffffffffffffffffff16826040516107a890610ab1565b5f6040518083038185875af1925050503d805f81146107e2576040519150601f19603f3d011682016040523d82523d5f602084013e6107e7565b606091505b505090508061082f5782826040517fc66cee38000000000000000000000000000000000000000000000000000000008152600401610826929190610ac5565b60405180910390fd5b505050565b5f819050919050565b61084681610834565b82525050565b5f60208201905061085f5f83018461083d565b92915050565b5f80fd5b61087281610834565b811461087c575f80fd5b50565b5f8135905061088d81610869565b92915050565b5f602082840312156108a8576108a7610865565b5b5f6108b58482850161087f565b91505092915050565b5f73ffffffffffffffffffffffffffffffffffffffff82169050919050565b5f6108e7826108be565b9050919050565b6108f7816108dd565b8114610901575f80fd5b50565b5f81359050610912816108ee565b92915050565b5f6020828403121561092d5761092c610865565b5b5f61093a84828501610904565b91505092915050565b5f6040820190506109565f83018561083d565b610963602083018461083d565b9392505050565b7f4e487b71000000000000000000000000000000000000000000000000000000005f52601160045260245ffd5b5f6109a182610834565b91506109ac83610834565b92508282019050808211156109c4576109c361096a565b5b92915050565b6109d3816108dd565b82525050565b5f6080820190506109ec5f8301876109ca565b6109f9602083018661083d565b610a06604083018561083d565b610a13606083018461083d565b95945050505050565b5f610a2682610834565b9150610a3183610834565b9250828203905081811115610a4957610a4861096a565b5b92915050565b5f606082019050610a625f8301866109ca565b610a6f602083018561083d565b610a7c604083018461083d565b949350505050565b5f81905092915050565b50565b5f610a9c5f83610a84565b9150610aa782610a8e565b5f82019050919050565b5f610abb82610a91565b9150819050919050565b5f604082019050610ad85f8301856109ca565b610ae5602083018461083d565b939250505056fea264697066735822122089dca8eb0d62714fa8048cc6bad165ece370976bcbbe91f7bf2dae2e651acaa064736f6c634300081a0033",
					"opcodes": "PUSH1 0xC0 PUSH1 0x40 MSTORE CALLVALUE DUP1 ISZERO PUSH2 0xF JUMPI PUSH0 DUP1 REVERT JUMPDEST POP PUSH1 0x40 MLOAD PUSH2 0xCE4 CODESIZE SUB DUP1 PUSH2 0xCE4 DUP4 CODECOPY DUP2 DUP2 ADD PUSH1 0x40 MSTORE DUP2 ADD SWAP1 PUSH2 0x31 SWAP2 SWAP1 PUSH2 0xC1 JUMP JUMPDEST PUSH0 DUP3 GT PUSH2 0x73 JUMPI PUSH1 0x40 MLOAD PUSH32 0x8C379A000000000000000000000000000000000000000000000000000000000 DUP2 MSTORE PUSH1 0x4 ADD PUSH2 0x6A SWAP1 PUSH2 0x159 JUMP JUMPDEST PUSH1 0x40 MLOAD DUP1 SWAP2 SUB SWAP1 REVERT JUMPDEST DUP2 PUSH1 0x80 DUP2 DUP2 MSTORE POP POP DUP1 PUSH1 0xA0 DUP2 DUP2 MSTORE POP POP POP POP PUSH2 0x177 JUMP JUMPDEST PUSH0 DUP1 REVERT JUMPDEST PUSH0 DUP2 SWAP1 POP SWAP2 SWAP1 POP JUMP JUMPDEST PUSH2 0xA0 DUP2 PUSH2 0x8E JUMP JUMPDEST DUP2 EQ PUSH2 0xAA JUMPI PUSH0 DUP1 REVERT JUMPDEST POP JUMP JUMPDEST PUSH0 DUP2 MLOAD SWAP1 POP PUSH2 0xBB DUP2 PUSH2 0x97 JUMP JUMPDEST SWAP3 SWAP2 POP POP JUMP JUMPDEST PUSH0 DUP1 PUSH1 0x40 DUP4 DUP6 SUB SLT ISZERO PUSH2 0xD7 JUMPI PUSH2 0xD6 PUSH2 0x8A JUMP JUMPDEST JUMPDEST PUSH0 PUSH2 0xE4 DUP6 DUP3 DUP7 ADD PUSH2 0xAD JUMP JUMPDEST SWAP3 POP POP PUSH1 0x20 PUSH2 0xF5 DUP6 DUP3 DUP7 ADD PUSH2 0xAD JUMP JUMPDEST SWAP2 POP POP SWAP3 POP SWAP3 SWAP1 POP JUMP JUMPDEST PUSH0 DUP3 DUP3 MSTORE PUSH1 0x20 DUP3 ADD SWAP1 POP SWAP3 SWAP2 POP POP JUMP JUMPDEST PUSH32 0x62616E6B4361703D300000000000000000000000000000000000000000000000 PUSH0 DUP3 ADD MSTORE POP JUMP JUMPDEST PUSH0 PUSH2 0x143 PUSH1 0x9 DUP4 PUSH2 0xFF JUMP JUMPDEST SWAP2 POP PUSH2 0x14E DUP3 PUSH2 0x10F JUMP JUMPDEST PUSH1 0x20 DUP3 ADD SWAP1 POP SWAP2 SWAP1 POP JUMP JUMPDEST PUSH0 PUSH1 0x20 DUP3 ADD SWAP1 POP DUP2 DUP2 SUB PUSH0 DUP4 ADD MSTORE PUSH2 0x170 DUP2 PUSH2 0x137 JUMP JUMPDEST SWAP1 POP SWAP2 SWAP1 POP JUMP JUMPDEST PUSH1 0x80 MLOAD PUSH1 0xA0 MLOAD PUSH2 0xB22 PUSH2 0x1C2 PUSH0 CODECOPY PUSH0 DUP2 DUP2 PUSH2 0x488 ADD MSTORE DUP2 DUP2 PUSH2 0x4B1 ADD MSTORE PUSH2 0x67E ADD MSTORE PUSH0 DUP2 DUP2 PUSH2 0x3AA ADD MSTORE DUP2 DUP2 PUSH2 0x3D3 ADD MSTORE DUP2 DUP2 PUSH2 0x6F3 ADD MSTORE DUP2 DUP2 PUSH2 0x724 ADD MSTORE PUSH2 0x74D ADD MSTORE PUSH2 0xB22 PUSH0 RETURN INVALID PUSH1 0x80 PUSH1 0x40 MSTORE PUSH1 0x4 CALLDATASIZE LT PUSH2 0x89 JUMPI PUSH0 CALLDATALOAD PUSH1 0xE0 SHR DUP1 PUSH4 0x3C3089C0 GT PUSH2 0x58 JUMPI DUP1 PUSH4 0x3C3089C0 EQ PUSH2 0x144 JUMPI DUP1 PUSH4 0x5E68D306 EQ PUSH2 0x16E JUMPI DUP1 PUSH4 0x991BC4F3 EQ PUSH2 0x178 JUMPI DUP1 PUSH4 0xE443900E EQ PUSH2 0x1B4 JUMPI DUP1 PUSH4 0xF6D3BDE8 EQ PUSH2 0x1DE JUMPI PUSH2 0x9A JUMP JUMPDEST DUP1 PUSH4 0x12462F66 EQ PUSH2 0x9E JUMPI DUP1 PUSH4 0x134AD0C8 EQ PUSH2 0xC8 JUMPI DUP1 PUSH4 0x2A7FE4E9 EQ PUSH2 0xF2 JUMPI DUP1 PUSH4 0x39BF7744 EQ PUSH2 0x11C JUMPI PUSH2 0x9A JUMP JUMPDEST CALLDATASIZE PUSH2 0x9A JUMPI PUSH2 0x98 CALLER CALLVALUE PUSH2 0x208 JUMP JUMPDEST STOP JUMPDEST PUSH0 DUP1 REVERT JUMPDEST CALLVALUE DUP1 ISZERO PUSH2 0xA9 JUMPI PUSH0 DUP1 REVERT JUMPDEST POP PUSH2 0xB2 PUSH2 0x395 JUMP JUMPDEST PUSH1 0x40 MLOAD PUSH2 0xBF SWAP2 SWAP1 PUSH2 0x84C JUMP JUMPDEST PUSH1 0x40 MLOAD DUP1 SWAP2 SUB SWAP1 RETURN JUMPDEST CALLVALUE DUP1 ISZERO PUSH2 0xD3 JUMPI PUSH0 DUP1 REVERT JUMPDEST POP PUSH2 0xDC PUSH2 0x39B JUMP JUMPDEST PUSH1 0x40 MLOAD PUSH2 0xE9 SWAP2 SWAP1 PUSH2 0x84C JUMP JUMPDEST PUSH1 0x40 MLOAD DUP1 SWAP2 SUB SWAP1 RETURN JUMPDEST CALLVALUE DUP1 ISZERO PUSH2 0xFD JUMPI PUSH0 DUP1 REVERT JUMPDEST POP PUSH2 0x106 PUSH2 0x3A1 JUMP JUMPDEST PUSH1 0x40 MLOAD PUSH2 0x113 SWAP2 SWAP1 PUSH2 0x84C JUMP JUMPDEST PUSH1 0x40 MLOAD DUP1 SWAP2 SUB SWAP1 RETURN JUMPDEST CALLVALUE DUP1 ISZERO PUSH2 0x127 JUMPI PUSH0 DUP1 REVERT JUMPDEST POP PUSH2 0x142 PUSH1 0x4 DUP1 CALLDATASIZE SUB DUP2 ADD SWAP1 PUSH2 0x13D SWAP2 SWAP1 PUSH2 0x893 JUMP JUMPDEST PUSH2 0x409 JUMP JUMPDEST STOP JUMPDEST CALLVALUE DUP1 ISZERO PUSH2 0x14F JUMPI PUSH0 DUP1 REVERT JUMPDEST POP PUSH2 0x158 PUSH2 0x67C JUMP JUMPDEST PUSH1 0x40 MLOAD PUSH2 0x165 SWAP2 SWAP1 PUSH2 0x84C JUMP JUMPDEST PUSH1 0x40 MLOAD DUP1 SWAP2 SUB SWAP1 RETURN JUMPDEST PUSH2 0x176 PUSH2 0x6A0 JUMP JUMPDEST STOP JUMPDEST CALLVALUE DUP1 ISZERO PUSH2 0x183 JUMPI PUSH0 DUP1 REVERT JUMPDEST POP PUSH2 0x19E PUSH1 0x4 DUP1 CALLDATASIZE SUB DUP2 ADD SWAP1 PUSH2 0x199 SWAP2 SWAP1 PUSH2 0x918 JUMP JUMPDEST PUSH2 0x6AC JUMP JUMPDEST PUSH1 0x40 MLOAD PUSH2 0x1AB SWAP2 SWAP1 PUSH2 0x84C JUMP JUMPDEST PUSH1 0x40 MLOAD DUP1 SWAP2 SUB SWAP1 RETURN JUMPDEST CALLVALUE DUP1 ISZERO PUSH2 0x1BF JUMPI PUSH0 DUP1 REVERT JUMPDEST POP PUSH2 0x1C8 PUSH2 0x6F1 JUMP JUMPDEST PUSH1 0x40 MLOAD PUSH2 0x1D5 SWAP2 SWAP1 PUSH2 0x84C JUMP JUMPDEST PUSH1 0x40 MLOAD DUP1 SWAP2 SUB SWAP1 RETURN JUMPDEST CALLVALUE DUP1 ISZERO PUSH2 0x1E9 JUMPI PUSH0 DUP1 REVERT JUMPDEST POP PUSH2 0x1F2 PUSH2 0x715 JUMP JUMPDEST PUSH1 0x40 MLOAD PUSH2 0x1FF SWAP2 SWAP1 PUSH2 0x84C JUMP JUMPDEST PUSH1 0x40 MLOAD DUP1 SWAP2 SUB SWAP1 RETURN JUMPDEST PUSH0 DUP2 SUB PUSH2 0x241 JUMPI PUSH1 0x40 MLOAD PUSH32 0xF3B24F2B00000000000000000000000000000000000000000000000000000000 DUP2 MSTORE PUSH1 0x4 ADD PUSH1 0x40 MLOAD DUP1 SWAP2 SUB SWAP1 REVERT JUMPDEST PUSH0 PUSH2 0x24A PUSH2 0x71B JUMP JUMPDEST SWAP1 POP DUP1 DUP3 GT ISZERO PUSH2 0x293 JUMPI DUP2 DUP2 PUSH1 0x40 MLOAD PUSH32 0xD2ED5D1600000000000000000000000000000000000000000000000000000000 DUP2 MSTORE PUSH1 0x4 ADD PUSH2 0x28A SWAP3 SWAP2 SWAP1 PUSH2 0x943 JUMP JUMPDEST PUSH1 0x40 MLOAD DUP1 SWAP2 SUB SWAP1 REVERT JUMPDEST DUP2 PUSH0 DUP1 DUP6 PUSH20 0xFFFFFFFFFFFFFFFFFFFFFFFFFFFFFFFFFFFFFFFF AND PUSH20 0xFFFFFFFFFFFFFFFFFFFFFFFFFFFFFFFFFFFFFFFF AND DUP2 MSTORE PUSH1 0x20 ADD SWAP1 DUP2 MSTORE PUSH1 0x20 ADD PUSH0 KECCAK256 PUSH0 DUP3 DUP3 SLOAD PUSH2 0x2DE SWAP2 SWAP1 PUSH2 0x997 JUMP JUMPDEST SWAP3 POP POP DUP2 SWAP1 SSTORE POP DUP2 PUSH1 0x3 PUSH0 DUP3 DUP3 SLOAD PUSH2 0x2F6 SWAP2 SWAP1 PUSH2 0x997 JUMP JUMPDEST SWAP3 POP POP DUP2 SWAP1 SSTORE POP PUSH1 0x1 DUP1 PUSH0 DUP3 DUP3 SLOAD PUSH2 0x30E SWAP2 SWAP1 PUSH2 0x997 JUMP JUMPDEST SWAP3 POP POP DUP2 SWAP1 SSTORE POP PUSH32 0x21AD3DA3F7FB75339A9115EE70AEC211E99442183CCC18B3D1D56E3BFE920CAF DUP4 DUP4 PUSH0 DUP1 DUP8 PUSH20 0xFFFFFFFFFFFFFFFFFFFFFFFFFFFFFFFFFFFFFFFF AND PUSH20 0xFFFFFFFFFFFFFFFFFFFFFFFFFFFFFFFFFFFFFFFF AND DUP2 MSTORE PUSH1 0x20 ADD SWAP1 DUP2 MSTORE PUSH1 0x20 ADD PUSH0 KECCAK256 SLOAD PUSH1 0x3 SLOAD PUSH1 0x40 MLOAD PUSH2 0x388 SWAP5 SWAP4 SWAP3 SWAP2 SWAP1 PUSH2 0x9D9 JUMP JUMPDEST PUSH1 0x40 MLOAD DUP1 SWAP2 SUB SWAP1 LOG1 POP POP POP JUMP JUMPDEST PUSH1 0x1 SLOAD DUP2 JUMP JUMPDEST PUSH1 0x3 SLOAD DUP2 JUMP JUMPDEST PUSH0 DUP1 PUSH1 0x3 SLOAD SWAP1 POP PUSH32 0x0 DUP2 LT ISZERO PUSH2 0x401 JUMPI DUP1 PUSH32 0x0 PUSH2 0x3FC SWAP2 SWAP1 PUSH2 0xA1C JUMP JUMPDEST PUSH2 0x403 JUMP JUMPDEST PUSH0 JUMPDEST SWAP2 POP POP SWAP1 JUMP JUMPDEST PUSH1 0x1 PUSH1 0x4 SLOAD SUB PUSH2 0x445 JUMPI PUSH1 0x40 MLOAD PUSH32 0x19A5135E00000000000000000000000000000000000000000000000000000000 DUP2 MSTORE PUSH1 0x4 ADD PUSH1 0x40 MLOAD DUP1 SWAP2 SUB SWAP1 REVERT JUMPDEST PUSH1 0x1 PUSH1 0x4 DUP2 SWAP1 SSTORE POP PUSH0 DUP2 SUB PUSH2 0x486 JUMPI PUSH1 0x40 MLOAD PUSH32 0xF3B24F2B00000000000000000000000000000000000000000000000000000000 DUP2 MSTORE PUSH1 0x4 ADD PUSH1 0x40 MLOAD DUP1 SWAP2 SUB SWAP1 REVERT JUMPDEST PUSH32 0x0 DUP2 GT ISZERO PUSH2 0x50D JUMPI DUP1 PUSH32 0x0 PUSH1 0x40 MLOAD PUSH32 0x8A52DD4B00000000000000000000000000000000000000000000000000000000 DUP2 MSTORE PUSH1 0x4 ADD PUSH2 0x504 SWAP3 SWAP2 SWAP1 PUSH2 0x943 JUMP JUMPDEST PUSH1 0x40 MLOAD DUP1 SWAP2 SUB SWAP1 REVERT JUMPDEST PUSH0 DUP1 PUSH0 CALLER PUSH20 0xFFFFFFFFFFFFFFFFFFFFFFFFFFFFFFFFFFFFFFFF AND PUSH20 0xFFFFFFFFFFFFFFFFFFFFFFFFFFFFFFFFFFFFFFFF AND DUP2 MSTORE PUSH1 0x20 ADD SWAP1 DUP2 MSTORE PUSH1 0x20 ADD PUSH0 KECCAK256 SLOAD SWAP1 POP DUP1 DUP3 GT ISZERO PUSH2 0x594 JUMPI DUP2 DUP2 PUSH1 0x40 MLOAD PUSH32 0x7340E13200000000000000000000000000000000000000000000000000000000 DUP2 MSTORE PUSH1 0x4 ADD PUSH2 0x58B SWAP3 SWAP2 SWAP1 PUSH2 0x943 JUMP JUMPDEST PUSH1 0x40 MLOAD DUP1 SWAP2 SUB SWAP1 REVERT JUMPDEST DUP2 DUP2 SUB PUSH0 DUP1 CALLER PUSH20 0xFFFFFFFFFFFFFFFFFFFFFFFFFFFFFFFFFFFFFFFF AND PUSH20 0xFFFFFFFFFFFFFFFFFFFFFFFFFFFFFFFFFFFFFFFF AND DUP2 MSTORE PUSH1 0x20 ADD SWAP1 DUP2 MSTORE PUSH1 0x20 ADD PUSH0 KECCAK256 DUP2 SWAP1 SSTORE POP PUSH1 0x1 PUSH1 0x2 PUSH0 DUP3 DUP3 SLOAD PUSH2 0x5E9 SWAP2 SWAP1 PUSH2 0x997 JUMP JUMPDEST SWAP3 POP POP DUP2 SWAP1 SSTORE POP PUSH2 0x5FA CALLER DUP4 PUSH2 0x783 JUMP JUMPDEST PUSH32 0x513A4E63A7DE56CC9B7C15D2467C0AD91C82DF2B439CC2C4992F0B3B4B997D14 CALLER DUP4 PUSH0 DUP1 CALLER PUSH20 0xFFFFFFFFFFFFFFFFFFFFFFFFFFFFFFFFFFFFFFFF AND PUSH20 0xFFFFFFFFFFFFFFFFFFFFFFFFFFFFFFFFFFFFFFFF AND DUP2 MSTORE PUSH1 0x20 ADD SWAP1 DUP2 MSTORE PUSH1 0x20 ADD PUSH0 KECCAK256 SLOAD PUSH1 0x40 MLOAD PUSH2 0x669 SWAP4 SWAP3 SWAP2 SWAP1 PUSH2 0xA4F JUMP JUMPDEST PUSH1 0x40 MLOAD DUP1 SWAP2 SUB SWAP1 LOG1 POP PUSH0 PUSH1 0x4 DUP2 SWAP1 SSTORE POP POP JUMP JUMPDEST PUSH32 0x0 DUP2 JUMP JUMPDEST PUSH2 0x6AA CALLER CALLVALUE PUSH2 0x208 JUMP JUMPDEST JUMP JUMPDEST PUSH0 DUP1 PUSH0 DUP4 PUSH20 0xFFFFFFFFFFFFFFFFFFFFFFFFFFFFFFFFFFFFFFFF AND PUSH20 0xFFFFFFFFFFFFFFFFFFFFFFFFFFFFFFFFFFFFFFFF AND DUP2 MSTORE PUSH1 0x20 ADD SWAP1 DUP2 MSTORE PUSH1 0x20 ADD PUSH0 KECCAK256 SLOAD SWAP1 POP SWAP2 SWAP1 POP JUMP JUMPDEST PUSH32 0x0 DUP2 JUMP JUMPDEST PUSH1 0x2 SLOAD DUP2 JUMP JUMPDEST PUSH0 DUP1 PUSH1 0x3 SLOAD SWAP1 POP PUSH32 0x0 DUP2 LT ISZERO PUSH2 0x77B JUMPI DUP1 PUSH32 0x0 PUSH2 0x776 SWAP2 SWAP1 PUSH2 0xA1C JUMP JUMPDEST PUSH2 0x77D JUMP JUMPDEST PUSH0 JUMPDEST SWAP2 POP POP SWAP1 JUMP JUMPDEST PUSH0 DUP3 PUSH20 0xFFFFFFFFFFFFFFFFFFFFFFFFFFFFFFFFFFFFFFFF AND DUP3 PUSH1 0x40 MLOAD PUSH2 0x7A8 SWAP1 PUSH2 0xAB1 JUMP JUMPDEST PUSH0 PUSH1 0x40 MLOAD DUP1 DUP4 SUB DUP2 DUP6 DUP8 GAS CALL SWAP3 POP POP POP RETURNDATASIZE DUP1 PUSH0 DUP2 EQ PUSH2 0x7E2 JUMPI PUSH1 0x40 MLOAD SWAP2 POP PUSH1 0x1F NOT PUSH1 0x3F RETURNDATASIZE ADD AND DUP3 ADD PUSH1 0x40 MSTORE RETURNDATASIZE DUP3 MSTORE RETURNDATASIZE PUSH0 PUSH1 0x20 DUP5 ADD RETURNDATACOPY PUSH2 0x7E7 JUMP JUMPDEST PUSH1 0x60 SWAP2 POP JUMPDEST POP POP SWAP1 POP DUP1 PUSH2 0x82F JUMPI DUP3 DUP3 PUSH1 0x40 MLOAD PUSH32 0xC66CEE3800000000000000000000000000000000000000000000000000000000 DUP2 MSTORE PUSH1 0x4 ADD PUSH2 0x826 SWAP3 SWAP2 SWAP1 PUSH2 0xAC5 JUMP JUMPDEST PUSH1 0x40 MLOAD DUP1 SWAP2 SUB SWAP1 REVERT JUMPDEST POP POP POP JUMP JUMPDEST PUSH0 DUP2 SWAP1 POP SWAP2 SWAP1 POP JUMP JUMPDEST PUSH2 0x846 DUP2 PUSH2 0x834 JUMP JUMPDEST DUP3 MSTORE POP POP JUMP JUMPDEST PUSH0 PUSH1 0x20 DUP3 ADD SWAP1 POP PUSH2 0x85F PUSH0 DUP4 ADD DUP5 PUSH2 0x83D JUMP JUMPDEST SWAP3 SWAP2 POP POP JUMP JUMPDEST PUSH0 DUP1 REVERT JUMPDEST PUSH2 0x872 DUP2 PUSH2 0x834 JUMP JUMPDEST DUP2 EQ PUSH2 0x87C JUMPI PUSH0 DUP1 REVERT JUMPDEST POP JUMP JUMPDEST PUSH0 DUP2 CALLDATALOAD SWAP1 POP PUSH2 0x88D DUP2 PUSH2 0x869 JUMP JUMPDEST SWAP3 SWAP2 POP POP JUMP JUMPDEST PUSH0 PUSH1 0x20 DUP3 DUP5 SUB SLT ISZERO PUSH2 0x8A8 JUMPI PUSH2 0x8A7 PUSH2 0x865 JUMP JUMPDEST JUMPDEST PUSH0 PUSH2 0x8B5 DUP5 DUP3 DUP6 ADD PUSH2 0x87F JUMP JUMPDEST SWAP2 POP POP SWAP3 SWAP2 POP POP JUMP JUMPDEST PUSH0 PUSH20 0xFFFFFFFFFFFFFFFFFFFFFFFFFFFFFFFFFFFFFFFF DUP3 AND SWAP1 POP SWAP2 SWAP1 POP JUMP JUMPDEST PUSH0 PUSH2 0x8E7 DUP3 PUSH2 0x8BE JUMP JUMPDEST SWAP1 POP SWAP2 SWAP1 POP JUMP JUMPDEST PUSH2 0x8F7 DUP2 PUSH2 0x8DD JUMP JUMPDEST DUP2 EQ PUSH2 0x901 JUMPI PUSH0 DUP1 REVERT JUMPDEST POP JUMP JUMPDEST PUSH0 DUP2 CALLDATALOAD SWAP1 POP PUSH2 0x912 DUP2 PUSH2 0x8EE JUMP JUMPDEST SWAP3 SWAP2 POP POP JUMP JUMPDEST PUSH0 PUSH1 0x20 DUP3 DUP5 SUB SLT ISZERO PUSH2 0x92D JUMPI PUSH2 0x92C PUSH2 0x865 JUMP JUMPDEST JUMPDEST PUSH0 PUSH2 0x93A DUP5 DUP3 DUP6 ADD PUSH2 0x904 JUMP JUMPDEST SWAP2 POP POP SWAP3 SWAP2 POP POP JUMP JUMPDEST PUSH0 PUSH1 0x40 DUP3 ADD SWAP1 POP PUSH2 0x956 PUSH0 DUP4 ADD DUP6 PUSH2 0x83D JUMP JUMPDEST PUSH2 0x963 PUSH1 0x20 DUP4 ADD DUP5 PUSH2 0x83D JUMP JUMPDEST SWAP4 SWAP3 POP POP POP JUMP JUMPDEST PUSH32 0x4E487B7100000000000000000000000000000000000000000000000000000000 PUSH0 MSTORE PUSH1 0x11 PUSH1 0x4 MSTORE PUSH1 0x24 PUSH0 REVERT JUMPDEST PUSH0 PUSH2 0x9A1 DUP3 PUSH2 0x834 JUMP JUMPDEST SWAP2 POP PUSH2 0x9AC DUP4 PUSH2 0x834 JUMP JUMPDEST SWAP3 POP DUP3 DUP3 ADD SWAP1 POP DUP1 DUP3 GT ISZERO PUSH2 0x9C4 JUMPI PUSH2 0x9C3 PUSH2 0x96A JUMP JUMPDEST JUMPDEST SWAP3 SWAP2 POP POP JUMP JUMPDEST PUSH2 0x9D3 DUP2 PUSH2 0x8DD JUMP JUMPDEST DUP3 MSTORE POP POP JUMP JUMPDEST PUSH0 PUSH1 0x80 DUP3 ADD SWAP1 POP PUSH2 0x9EC PUSH0 DUP4 ADD DUP8 PUSH2 0x9CA JUMP JUMPDEST PUSH2 0x9F9 PUSH1 0x20 DUP4 ADD DUP7 PUSH2 0x83D JUMP JUMPDEST PUSH2 0xA06 PUSH1 0x40 DUP4 ADD DUP6 PUSH2 0x83D JUMP JUMPDEST PUSH2 0xA13 PUSH1 0x60 DUP4 ADD DUP5 PUSH2 0x83D JUMP JUMPDEST SWAP6 SWAP5 POP POP POP POP POP JUMP JUMPDEST PUSH0 PUSH2 0xA26 DUP3 PUSH2 0x834 JUMP JUMPDEST SWAP2 POP PUSH2 0xA31 DUP4 PUSH2 0x834 JUMP JUMPDEST SWAP3 POP DUP3 DUP3 SUB SWAP1 POP DUP2 DUP2 GT ISZERO PUSH2 0xA49 JUMPI PUSH2 0xA48 PUSH2 0x96A JUMP JUMPDEST JUMPDEST SWAP3 SWAP2 POP POP JUMP JUMPDEST PUSH0 PUSH1 0x60 DUP3 ADD SWAP1 POP PUSH2 0xA62 PUSH0 DUP4 ADD DUP7 PUSH2 0x9CA JUMP JUMPDEST PUSH2 0xA6F PUSH1 0x20 DUP4 ADD DUP6 PUSH2 0x83D JUMP JUMPDEST PUSH2 0xA7C PUSH1 0x40 DUP4 ADD DUP5 PUSH2 0x83D JUMP JUMPDEST SWAP5 SWAP4 POP POP POP POP JUMP JUMPDEST PUSH0 DUP2 SWAP1 POP SWAP3 SWAP2 POP POP JUMP JUMPDEST POP JUMP JUMPDEST PUSH0 PUSH2 0xA9C PUSH0 DUP4 PUSH2 0xA84 JUMP JUMPDEST SWAP2 POP PUSH2 0xAA7 DUP3 PUSH2 0xA8E JUMP JUMPDEST PUSH0 DUP3 ADD SWAP1 POP SWAP2 SWAP1 POP JUMP JUMPDEST PUSH0 PUSH2 0xABB DUP3 PUSH2 0xA91 JUMP JUMPDEST SWAP2 POP DUP2 SWAP1 POP SWAP2 SWAP1 POP JUMP JUMPDEST PUSH0 PUSH1 0x40 DUP3 ADD SWAP1 POP PUSH2 0xAD8 PUSH0 DUP4 ADD DUP6 PUSH2 0x9CA JUMP JUMPDEST PUSH2 0xAE5 PUSH1 0x20 DUP4 ADD DUP5 PUSH2 0x83D JUMP JUMPDEST SWAP4 SWAP3 POP POP POP JUMP INVALID LOG2 PUSH5 0x6970667358 0x22 SLT KECCAK256 DUP10 0xDC 0xA8 0xEB 0xD PUSH3 0x714FA8 DIV DUP13 0xC6 0xBA 0xD1 PUSH6 0xECE370976BCB 0xBE SWAP2 0xF7 0xBF 0x2D 0xAE 0x2E PUSH6 0x1ACAA064736F PUSH13 0x634300081A0033000000000000 "
				},
				"gasEstimates": {
					"creation": {
						"codeDepositCost": "570000",
						"executionCost": "infinite",
						"totalCost": "infinite"
					},
					"external": {
						"CapacidadDeDepositoRestante()": "infinite",
						"Deposito()": "infinite",
						"LimitePorBanco()": "infinite",
						"LimiteRetiroPorTransaccion()": "infinite",
						"NumeroDeDepositos()": "2426",
						"NumeroDeRetiros()": "2513",
						"RetiroSaldo(uint256)": "infinite",
						"SaldoDeCuenta(address)": "2873",
						"TotalDepositado()": "2448"
					},
					"internal": {
						"_CapacidadRemanente()": "infinite",
						"_deposito(address,uint256)": "infinite",
						"_safeSend(address,uint256)": "infinite"
					}
				},
				"methodIdentifiers": {
					"CapacidadDeDepositoRestante()": "2a7fe4e9",
					"Deposito()": "5e68d306",
					"LimitePorBanco()": "e443900e",
					"LimiteRetiroPorTransaccion()": "3c3089c0",
					"NumeroDeDepositos()": "12462f66",
					"NumeroDeRetiros()": "f6d3bde8",
					"RetiroSaldo(uint256)": "39bf7744",
					"SaldoDeCuenta(address)": "991bc4f3",
					"TotalDepositado()": "134ad0c8"
				}
			},
			"storageLayout": {
				"storage": [
					{
						"astId": 67,
						"contract": "contracts/TpFinalModulo2.sol:KipuBank",
						"label": "_balances",
						"offset": 0,
						"slot": "0",
						"type": "t_mapping(t_address,t_uint256)"
					},
					{
						"astId": 70,
						"contract": "contracts/TpFinalModulo2.sol:KipuBank",
						"label": "NumeroDeDepositos",
						"offset": 0,
						"slot": "1",
						"type": "t_uint256"
					},
					{
						"astId": 73,
						"contract": "contracts/TpFinalModulo2.sol:KipuBank",
						"label": "NumeroDeRetiros",
						"offset": 0,
						"slot": "2",
						"type": "t_uint256"
					},
					{
						"astId": 76,
						"contract": "contracts/TpFinalModulo2.sol:KipuBank",
						"label": "TotalDepositado",
						"offset": 0,
						"slot": "3",
						"type": "t_uint256"
					},
					{
						"astId": 79,
						"contract": "contracts/TpFinalModulo2.sol:KipuBank",
						"label": "_bloqueado",
						"offset": 0,
						"slot": "4",
						"type": "t_uint256"
					}
				],
				"types": {
					"t_address": {
						"encoding": "inplace",
						"label": "address",
						"numberOfBytes": "20"
					},
					"t_mapping(t_address,t_uint256)": {
						"encoding": "mapping",
						"key": "t_address",
						"label": "mapping(address => uint256)",
						"numberOfBytes": "32",
						"value": "t_uint256"
					},
					"t_uint256": {
						"encoding": "inplace",
						"label": "uint256",
						"numberOfBytes": "32"
					}
				}
			},
			"userdoc": {
				"errors": {
					"CantidadIgualACero()": [
						{
							"notice": "erro cuando se intenta depositar cero (0) wei"
						}
					],
					"ExcedeBalance(uint256,uint256)": [
						{
							"notice": "El retiro solicitado excede el saldo del usuario."
						}
					],
					"ExcedeCapacidadPorBanco(uint256,uint256)": [
						{
							"notice": "El depósito supera el límite del banco."
						}
					],
					"ExcedeLimitePorTransaccion(uint256,uint256)": [
						{
							"notice": "El retiro solicitado excede el límite por transacción."
						}
					],
					"Reentrada()": [
						{
							"notice": "Reentrada detectada."
						}
					],
					"TransferenciaFallida(address,uint256)": [
						{
							"notice": "Falló la transferencia"
						}
					]
				},
				"events": {
					"Depositado(address,uint256,uint256,uint256)": {
						"notice": "Emite cada deposito ejecutado"
					},
					"Retiro(address,uint256,uint256)": {
						"notice": "Emite cada retiro ejecutado"
					}
				},
				"kind": "user",
				"methods": {
					"CapacidadDeDepositoRestante()": {
						"notice": "Capacidad de deposito restante"
					},
					"Deposito()": {
						"notice": "Deposita ETH en la boveda"
					},
					"LimitePorBanco()": {
						"notice": "Limite de depositos del banco"
					},
					"LimiteRetiroPorTransaccion()": {
						"notice": "Limite de retiro por transaccion."
					},
					"NumeroDeDepositos()": {
						"notice": "Numero total de depositos realizados"
					},
					"NumeroDeRetiros()": {
						"notice": "Numero total de retiros realizados"
					},
					"RetiroSaldo(uint256)": {
						"notice": "Retiro de tla boveda depende del limite por transaccion"
					},
					"SaldoDeCuenta(address)": {
						"notice": "Muestra saldo"
					},
					"TotalDepositado()": {
						"notice": "Total depositado "
					},
					"constructor": {
						"notice": "Inserta un nuevo banco con tope y un limite por retiro"
					}
				},
				"notice": "Boveda de Ethers que permite depositar y transferir ETH con un limite de banco. Tiene un umbral de retiro que no cambia (inmutable) . Contiene patrones de seguridad y emite eventos",
				"version": 1
			}
		}
	}
}