{
	"data": {
		"bytecode": {
			"linkReferences": {},
			"object": "60c060405234801561000f575f80fd5b50604051610ce4380380610ce4833981810160405281019061003191906100c1565b5f8211610073576040517f08c379a000000000000000000000000000000000000000000000000000000000815260040161006a90610159565b60405180910390fd5b81608081815250508060a081815250505050610177565b5f80fd5b5f819050919050565b6100a08161008e565b81146100aa575f80fd5b50565b5f815190506100bb81610097565b92915050565b5f80604083850312156100d7576100d661008a565b5b5f6100e4858286016100ad565b92505060206100f5858286016100ad565b9150509250929050565b5f82825260208201905092915050565b7f62616e6b4361703d3000000000000000000000000000000000000000000000005f82015250565b5f6101436009836100ff565b915061014e8261010f565b602082019050919050565b5f6020820190508181035f83015261017081610137565b9050919050565b60805160a051610b226101c25f395f8181610488015281816104b1015261067e01525f81816103aa015281816103d3015281816106f301528181610724015261074d0152610b225ff3fe608060405260043610610089575f3560e01c80633c3089c0116100585780633c3089c0146101445780635e68d3061461016e578063991bc4f314610178578063e443900e146101b4578063f6d3bde8146101de5761009a565b806312462f661461009e578063134ad0c8146100c85780632a7fe4e9146100f257806339bf77441461011c5761009a565b3661009a576100983334610208565b005b5f80fd5b3480156100a9575f80fd5b506100b2610395565b6040516100bf919061084c565b60405180910390f35b3480156100d3575f80fd5b506100dc61039b565b6040516100e9919061084c565b60405180910390f35b3480156100fd575f80fd5b506101066103a1565b604051610113919061084c565b60405180910390f35b348015610127575f80fd5b50610142600480360381019061013d9190610893565b610409565b005b34801561014f575f80fd5b5061015861067c565b604051610165919061084c565b60405180910390f35b6101766106a0565b005b348015610183575f80fd5b5061019e60048036038101906101999190610918565b6106ac565b6040516101ab919061084c565b60405180910390f35b3480156101bf575f80fd5b506101c86106f1565b6040516101d5919061084c565b60405180910390f35b3480156101e9575f80fd5b506101f2610715565b6040516101ff919061084c565b60405180910390f35b5f8103610241576040517ff3b24f2b00000000000000000000000000000000000000000000000000000000815260040160405180910390fd5b5f61024a61071b565b9050808211156102935781816040517fd2ed5d1600000000000000000000000000000000000000000000000000000000815260040161028a929190610943565b60405180910390fd5b815f808573ffffffffffffffffffffffffffffffffffffffff1673ffffffffffffffffffffffffffffffffffffffff1681526020019081526020015f205f8282546102de9190610997565b925050819055508160035f8282546102f69190610997565b925050819055506001805f82825461030e9190610997565b925050819055507f21ad3da3f7fb75339a9115ee70aec211e99442183ccc18b3d1d56e3bfe920caf83835f808773ffffffffffffffffffffffffffffffffffffffff1673ffffffffffffffffffffffffffffffffffffffff1681526020019081526020015f205460035460405161038894939291906109d9565b60405180910390a1505050565b60015481565b60035481565b5f8060035490507f000000000000000000000000000000000000000000000000000000000000000081101561040157807f00000000000000000000000000000000000000000000000000000000000000006103fc9190610a1c565b610403565b5f5b91505090565b600160045403610445576040517f19a5135e00000000000000000000000000000000000000000000000000000000815260040160405180910390fd5b60016004819055505f8103610486576040517ff3b24f2b00000000000000000000000000000000000000000000000000000000815260040160405180910390fd5b7f000000000000000000000000000000000000000000000000000000000000000081111561050d57807f00000000000000000000000000000000000000000000000000000000000000006040517f8a52dd4b000000000000000000000000000000000000000000000000000000008152600401610504929190610943565b60405180910390fd5b5f805f3373ffffffffffffffffffffffffffffffffffffffff1673ffffffffffffffffffffffffffffffffffffffff1681526020019081526020015f20549050808211156105945781816040517f7340e13200000000000000000000000000000000000000000000000000000000815260040161058b929190610943565b60405180910390fd5b8181035f803373ffffffffffffffffffffffffffffffffffffffff1673ffffffffffffffffffffffffffffffffffffffff1681526020019081526020015f2081905550600160025f8282546105e99190610997565b925050819055506105fa3383610783565b7f513a4e63a7de56cc9b7c15d2467c0ad91c82df2b439cc2c4992f0b3b4b997d1433835f803373ffffffffffffffffffffffffffffffffffffffff1673ffffffffffffffffffffffffffffffffffffffff1681526020019081526020015f205460405161066993929190610a4f565b60405180910390a1505f60048190555050565b7f000000000000000000000000000000000000000000000000000000000000000081565b6106aa3334610208565b565b5f805f8373ffffffffffffffffffffffffffffffffffffffff1673ffffffffffffffffffffffffffffffffffffffff1681526020019081526020015f20549050919050565b7f000000000000000000000000000000000000000000000000000000000000000081565b60025481565b5f8060035490507f000000000000000000000000000000000000000000000000000000000000000081101561077b57807f00000000000000000000000000000000000000000000000000000000000000006107769190610a1c565b61077d565b5f5b91505090565b5f8273ffffffffffffffffffffffffffffffffffffffff16826040516107a890610ab1565b5f6040518083038185875af1925050503d805f81146107e2576040519150601f19603f3d011682016040523d82523d5f602084013e6107e7565b606091505b505090508061082f5782826040517fc66cee38000000000000000000000000000000000000000000000000000000008152600401610826929190610ac5565b60405180910390fd5b505050565b5f819050919050565b61084681610834565b82525050565b5f60208201905061085f5f83018461083d565b92915050565b5f80fd5b61087281610834565b811461087c575f80fd5b50565b5f8135905061088d81610869565b92915050565b5f602082840312156108a8576108a7610865565b5b5f6108b58482850161087f565b91505092915050565b5f73ffffffffffffffffffffffffffffffffffffffff82169050919050565b5f6108e7826108be565b9050919050565b6108f7816108dd565b8114610901575f80fd5b50565b5f81359050610912816108ee565b92915050565b5f6020828403121561092d5761092c610865565b5b5f61093a84828501610904565b91505092915050565b5f6040820190506109565f83018561083d565b610963602083018461083d565b9392505050565b7f4e487b71000000000000000000000000000000000000000000000000000000005f52601160045260245ffd5b5f6109a182610834565b91506109ac83610834565b92508282019050808211156109c4576109c361096a565b5b92915050565b6109d3816108dd565b82525050565b5f6080820190506109ec5f8301876109ca565b6109f9602083018661083d565b610a06604083018561083d565b610a13606083018461083d565b95945050505050565b5f610a2682610834565b9150610a3183610834565b9250828203905081811115610a4957610a4861096a565b5b92915050565b5f606082019050610a625f8301866109ca565b610a6f602083018561083d565b610a7c604083018461083d565b949350505050565b5f81905092915050565b50565b5f610a9c5f83610a84565b9150610aa782610a8e565b5f82019050919050565b5f610abb82610a91565b9150819050919050565b5f604082019050610ad85f8301856109ca565b610ae5602083018461083d565b939250505056fea264697066735822122089dca8eb0d62714fa8048cc6bad165ece370976bcbbe91f7bf2dae2e651acaa064736f6c634300081a0033",
			"opcodes": "PUSH1 0xC0 PUSH1 0x40 MSTORE CALLVALUE DUP1 ISZERO PUSH2 0xF JUMPI PUSH0 DUP1 REVERT JUMPDEST POP PUSH1 0x40 MLOAD PUSH2 0xCE4 CODESIZE SUB DUP1 PUSH2 0xCE4 DUP4 CODECOPY DUP2 DUP2 ADD PUSH1 0x40 MSTORE DUP2 ADD SWAP1 PUSH2 0x31 SWAP2 SWAP1 PUSH2 0xC1 JUMP JUMPDEST PUSH0 DUP3 GT PUSH2 0x73 JUMPI PUSH1 0x40 MLOAD PUSH32 0x8C379A000000000000000000000000000000000000000000000000000000000 DUP2 MSTORE PUSH1 0x4 ADD PUSH2 0x6A SWAP1 PUSH2 0x159 JUMP JUMPDEST PUSH1 0x40 MLOAD DUP1 SWAP2 SUB SWAP1 REVERT JUMPDEST DUP2 PUSH1 0x80 DUP2 DUP2 MSTORE POP POP DUP1 PUSH1 0xA0 DUP2 DUP2 MSTORE POP POP POP POP PUSH2 0x177 JUMP JUMPDEST PUSH0 DUP1 REVERT JUMPDEST PUSH0 DUP2 SWAP1 POP SWAP2 SWAP1 POP JUMP JUMPDEST PUSH2 0xA0 DUP2 PUSH2 0x8E JUMP JUMPDEST DUP2 EQ PUSH2 0xAA JUMPI PUSH0 DUP1 REVERT JUMPDEST POP JUMP JUMPDEST PUSH0 DUP2 MLOAD SWAP1 POP PUSH2 0xBB DUP2 PUSH2 0x97 JUMP JUMPDEST SWAP3 SWAP2 POP POP JUMP JUMPDEST PUSH0 DUP1 PUSH1 0x40 DUP4 DUP6 SUB SLT ISZERO PUSH2 0xD7 JUMPI PUSH2 0xD6 PUSH2 0x8A JUMP JUMPDEST JUMPDEST PUSH0 PUSH2 0xE4 DUP6 DUP3 DUP7 ADD PUSH2 0xAD JUMP JUMPDEST SWAP3 POP POP PUSH1 0x20 PUSH2 0xF5 DUP6 DUP3 DUP7 ADD PUSH2 0xAD JUMP JUMPDEST SWAP2 POP POP SWAP3 POP SWAP3 SWAP1 POP JUMP JUMPDEST PUSH0 DUP3 DUP3 MSTORE PUSH1 0x20 DUP3 ADD SWAP1 POP SWAP3 SWAP2 POP POP JUMP JUMPDEST PUSH32 0x62616E6B4361703D300000000000000000000000000000000000000000000000 PUSH0 DUP3 ADD MSTORE POP JUMP JUMPDEST PUSH0 PUSH2 0x143 PUSH1 0x9 DUP4 PUSH2 0xFF JUMP JUMPDEST SWAP2 POP PUSH2 0x14E DUP3 PUSH2 0x10F JUMP JUMPDEST PUSH1 0x20 DUP3 ADD SWAP1 POP SWAP2 SWAP1 POP JUMP JUMPDEST PUSH0 PUSH1 0x20 DUP3 ADD SWAP1 POP DUP2 DUP2 SUB PUSH0 DUP4 ADD MSTORE PUSH2 0x170 DUP2 PUSH2 0x137 JUMP JUMPDEST SWAP1 POP SWAP2 SWAP1 POP JUMP JUMPDEST PUSH1 0x80 MLOAD PUSH1 0xA0 MLOAD PUSH2 0xB22 PUSH2 0x1C2 PUSH0 CODECOPY PUSH0 DUP2 DUP2 PUSH2 0x488 ADD MSTORE DUP2 DUP2 PUSH2 0x4B1 ADD MSTORE PUSH2 0x67E ADD MSTORE PUSH0 DUP2 DUP2 PUSH2 0x3AA ADD MSTORE DUP2 DUP2 PUSH2 0x3D3 ADD MSTORE DUP2 DUP2 PUSH2 0x6F3 ADD MSTORE DUP2 DUP2 PUSH2 0x724 ADD MSTORE PUSH2 0x74D ADD MSTORE PUSH2 0xB22 PUSH0 RETURN INVALID PUSH1 0x80 PUSH1 0x40 MSTORE PUSH1 0x4 CALLDATASIZE LT PUSH2 0x89 JUMPI PUSH0 CALLDATALOAD PUSH1 0xE0 SHR DUP1 PUSH4 0x3C3089C0 GT PUSH2 0x58 JUMPI DUP1 PUSH4 0x3C3089C0 EQ PUSH2 0x144 JUMPI DUP1 PUSH4 0x5E68D306 EQ PUSH2 0x16E JUMPI DUP1 PUSH4 0x991BC4F3 EQ PUSH2 0x178 JUMPI DUP1 PUSH4 0xE443900E EQ PUSH2 0x1B4 JUMPI DUP1 PUSH4 0xF6D3BDE8 EQ PUSH2 0x1DE JUMPI PUSH2 0x9A JUMP JUMPDEST DUP1 PUSH4 0x12462F66 EQ PUSH2 0x9E JUMPI DUP1 PUSH4 0x134AD0C8 EQ PUSH2 0xC8 JUMPI DUP1 PUSH4 0x2A7FE4E9 EQ PUSH2 0xF2 JUMPI DUP1 PUSH4 0x39BF7744 EQ PUSH2 0x11C JUMPI PUSH2 0x9A JUMP JUMPDEST CALLDATASIZE PUSH2 0x9A JUMPI PUSH2 0x98 CALLER CALLVALUE PUSH2 0x208 JUMP JUMPDEST STOP JUMPDEST PUSH0 DUP1 REVERT JUMPDEST CALLVALUE DUP1 ISZERO PUSH2 0xA9 JUMPI PUSH0 DUP1 REVERT JUMPDEST POP PUSH2 0xB2 PUSH2 0x395 JUMP JUMPDEST PUSH1 0x40 MLOAD PUSH2 0xBF SWAP2 SWAP1 PUSH2 0x84C JUMP JUMPDEST PUSH1 0x40 MLOAD DUP1 SWAP2 SUB SWAP1 RETURN JUMPDEST CALLVALUE DUP1 ISZERO PUSH2 0xD3 JUMPI PUSH0 DUP1 REVERT JUMPDEST POP PUSH2 0xDC PUSH2 0x39B JUMP JUMPDEST PUSH1 0x40 MLOAD PUSH2 0xE9 SWAP2 SWAP1 PUSH2 0x84C JUMP JUMPDEST PUSH1 0x40 MLOAD DUP1 SWAP2 SUB SWAP1 RETURN JUMPDEST CALLVALUE DUP1 ISZERO PUSH2 0xFD JUMPI PUSH0 DUP1 REVERT JUMPDEST POP PUSH2 0x106 PUSH2 0x3A1 JUMP JUMPDEST PUSH1 0x40 MLOAD PUSH2 0x113 SWAP2 SWAP1 PUSH2 0x84C JUMP JUMPDEST PUSH1 0x40 MLOAD DUP1 SWAP2 SUB SWAP1 RETURN JUMPDEST CALLVALUE DUP1 ISZERO PUSH2 0x127 JUMPI PUSH0 DUP1 REVERT JUMPDEST POP PUSH2 0x142 PUSH1 0x4 DUP1 CALLDATASIZE SUB DUP2 ADD SWAP1 PUSH2 0x13D SWAP2 SWAP1 PUSH2 0x893 JUMP JUMPDEST PUSH2 0x409 JUMP JUMPDEST STOP JUMPDEST CALLVALUE DUP1 ISZERO PUSH2 0x14F JUMPI PUSH0 DUP1 REVERT JUMPDEST POP PUSH2 0x158 PUSH2 0x67C JUMP JUMPDEST PUSH1 0x40 MLOAD PUSH2 0x165 SWAP2 SWAP1 PUSH2 0x84C JUMP JUMPDEST PUSH1 0x40 MLOAD DUP1 SWAP2 SUB SWAP1 RETURN JUMPDEST PUSH2 0x176 PUSH2 0x6A0 JUMP JUMPDEST STOP JUMPDEST CALLVALUE DUP1 ISZERO PUSH2 0x183 JUMPI PUSH0 DUP1 REVERT JUMPDEST POP PUSH2 0x19E PUSH1 0x4 DUP1 CALLDATASIZE SUB DUP2 ADD SWAP1 PUSH2 0x199 SWAP2 SWAP1 PUSH2 0x918 JUMP JUMPDEST PUSH2 0x6AC JUMP JUMPDEST PUSH1 0x40 MLOAD PUSH2 0x1AB SWAP2 SWAP1 PUSH2 0x84C JUMP JUMPDEST PUSH1 0x40 MLOAD DUP1 SWAP2 SUB SWAP1 RETURN JUMPDEST CALLVALUE DUP1 ISZERO PUSH2 0x1BF JUMPI PUSH0 DUP1 REVERT JUMPDEST POP PUSH2 0x1C8 PUSH2 0x6F1 JUMP JUMPDEST PUSH1 0x40 MLOAD PUSH2 0x1D5 SWAP2 SWAP1 PUSH2 0x84C JUMP JUMPDEST PUSH1 0x40 MLOAD DUP1 SWAP2 SUB SWAP1 RETURN JUMPDEST CALLVALUE DUP1 ISZERO PUSH2 0x1E9 JUMPI PUSH0 DUP1 REVERT JUMPDEST POP PUSH2 0x1F2 PUSH2 0x715 JUMP JUMPDEST PUSH1 0x40 MLOAD PUSH2 0x1FF SWAP2 SWAP1 PUSH2 0x84C JUMP JUMPDEST PUSH1 0x40 MLOAD DUP1 SWAP2 SUB SWAP1 RETURN JUMPDEST PUSH0 DUP2 SUB PUSH2 0x241 JUMPI PUSH1 0x40 MLOAD PUSH32 0xF3B24F2B00000000000000000000000000000000000000000000000000000000 DUP2 MSTORE PUSH1 0x4 ADD PUSH1 0x40 MLOAD DUP1 SWAP2 SUB SWAP1 REVERT JUMPDEST PUSH0 PUSH2 0x24A PUSH2 0x71B JUMP JUMPDEST SWAP1 POP DUP1 DUP3 GT ISZERO PUSH2 0x293 JUMPI DUP2 DUP2 PUSH1 0x40 MLOAD PUSH32 0xD2ED5D1600000000000000000000000000000000000000000000000000000000 DUP2 MSTORE PUSH1 0x4 ADD PUSH2 0x28A SWAP3 SWAP2 SWAP1 PUSH2 0x943 JUMP JUMPDEST PUSH1 0x40 MLOAD DUP1 SWAP2 SUB SWAP1 REVERT JUMPDEST DUP2 PUSH0 DUP1 DUP6 PUSH20 0xFFFFFFFFFFFFFFFFFFFFFFFFFFFFFFFFFFFFFFFF AND PUSH20 0xFFFFFFFFFFFFFFFFFFFFFFFFFFFFFFFFFFFFFFFF AND DUP2 MSTORE PUSH1 0x20 ADD SWAP1 DUP2 MSTORE PUSH1 0x20 ADD PUSH0 KECCAK256 PUSH0 DUP3 DUP3 SLOAD PUSH2 0x2DE SWAP2 SWAP1 PUSH2 0x997 JUMP JUMPDEST SWAP3 POP POP DUP2 SWAP1 SSTORE POP DUP2 PUSH1 0x3 PUSH0 DUP3 DUP3 SLOAD PUSH2 0x2F6 SWAP2 SWAP1 PUSH2 0x997 JUMP JUMPDEST SWAP3 POP POP DUP2 SWAP1 SSTORE POP PUSH1 0x1 DUP1 PUSH0 DUP3 DUP3 SLOAD PUSH2 0x30E SWAP2 SWAP1 PUSH2 0x997 JUMP JUMPDEST SWAP3 POP POP DUP2 SWAP1 SSTORE POP PUSH32 0x21AD3DA3F7FB75339A9115EE70AEC211E99442183CCC18B3D1D56E3BFE920CAF DUP4 DUP4 PUSH0 DUP1 DUP8 PUSH20 0xFFFFFFFFFFFFFFFFFFFFFFFFFFFFFFFFFFFFFFFF AND PUSH20 0xFFFFFFFFFFFFFFFFFFFFFFFFFFFFFFFFFFFFFFFF AND DUP2 MSTORE PUSH1 0x20 ADD SWAP1 DUP2 MSTORE PUSH1 0x20 ADD PUSH0 KECCAK256 SLOAD PUSH1 0x3 SLOAD PUSH1 0x40 MLOAD PUSH2 0x388 SWAP5 SWAP4 SWAP3 SWAP2 SWAP1 PUSH2 0x9D9 JUMP JUMPDEST PUSH1 0x40 MLOAD DUP1 SWAP2 SUB SWAP1 LOG1 POP POP POP JUMP JUMPDEST PUSH1 0x1 SLOAD DUP2 JUMP JUMPDEST PUSH1 0x3 SLOAD DUP2 JUMP JUMPDEST PUSH0 DUP1 PUSH1 0x3 SLOAD SWAP1 POP PUSH32 0x0 DUP2 LT ISZERO PUSH2 0x401 JUMPI DUP1 PUSH32 0x0 PUSH2 0x3FC SWAP2 SWAP1 PUSH2 0xA1C JUMP JUMPDEST PUSH2 0x403 JUMP JUMPDEST PUSH0 JUMPDEST SWAP2 POP POP SWAP1 JUMP JUMPDEST PUSH1 0x1 PUSH1 0x4 SLOAD SUB PUSH2 0x445 JUMPI PUSH1 0x40 MLOAD PUSH32 0x19A5135E00000000000000000000000000000000000000000000000000000000 DUP2 MSTORE PUSH1 0x4 ADD PUSH1 0x40 MLOAD DUP1 SWAP2 SUB SWAP1 REVERT JUMPDEST PUSH1 0x1 PUSH1 0x4 DUP2 SWAP1 SSTORE POP PUSH0 DUP2 SUB PUSH2 0x486 JUMPI PUSH1 0x40 MLOAD PUSH32 0xF3B24F2B00000000000000000000000000000000000000000000000000000000 DUP2 MSTORE PUSH1 0x4 ADD PUSH1 0x40 MLOAD DUP1 SWAP2 SUB SWAP1 REVERT JUMPDEST PUSH32 0x0 DUP2 GT ISZERO PUSH2 0x50D JUMPI DUP1 PUSH32 0x0 PUSH1 0x40 MLOAD PUSH32 0x8A52DD4B00000000000000000000000000000000000000000000000000000000 DUP2 MSTORE PUSH1 0x4 ADD PUSH2 0x504 SWAP3 SWAP2 SWAP1 PUSH2 0x943 JUMP JUMPDEST PUSH1 0x40 MLOAD DUP1 SWAP2 SUB SWAP1 REVERT JUMPDEST PUSH0 DUP1 PUSH0 CALLER PUSH20 0xFFFFFFFFFFFFFFFFFFFFFFFFFFFFFFFFFFFFFFFF AND PUSH20 0xFFFFFFFFFFFFFFFFFFFFFFFFFFFFFFFFFFFFFFFF AND DUP2 MSTORE PUSH1 0x20 ADD SWAP1 DUP2 MSTORE PUSH1 0x20 ADD PUSH0 KECCAK256 SLOAD SWAP1 POP DUP1 DUP3 GT ISZERO PUSH2 0x594 JUMPI DUP2 DUP2 PUSH1 0x40 MLOAD PUSH32 0x7340E13200000000000000000000000000000000000000000000000000000000 DUP2 MSTORE PUSH1 0x4 ADD PUSH2 0x58B SWAP3 SWAP2 SWAP1 PUSH2 0x943 JUMP JUMPDEST PUSH1 0x40 MLOAD DUP1 SWAP2 SUB SWAP1 REVERT JUMPDEST DUP2 DUP2 SUB PUSH0 DUP1 CALLER PUSH20 0xFFFFFFFFFFFFFFFFFFFFFFFFFFFFFFFFFFFFFFFF AND PUSH20 0xFFFFFFFFFFFFFFFFFFFFFFFFFFFFFFFFFFFFFFFF AND DUP2 MSTORE PUSH1 0x20 ADD SWAP1 DUP2 MSTORE PUSH1 0x20 ADD PUSH0 KECCAK256 DUP2 SWAP1 SSTORE POP PUSH1 0x1 PUSH1 0x2 PUSH0 DUP3 DUP3 SLOAD PUSH2 0x5E9 SWAP2 SWAP1 PUSH2 0x997 JUMP JUMPDEST SWAP3 POP POP DUP2 SWAP1 SSTORE POP PUSH2 0x5FA CALLER DUP4 PUSH2 0x783 JUMP JUMPDEST PUSH32 0x513A4E63A7DE56CC9B7C15D2467C0AD91C82DF2B439CC2C4992F0B3B4B997D14 CALLER DUP4 PUSH0 DUP1 CALLER PUSH20 0xFFFFFFFFFFFFFFFFFFFFFFFFFFFFFFFFFFFFFFFF AND PUSH20 0xFFFFFFFFFFFFFFFFFFFFFFFFFFFFFFFFFFFFFFFF AND DUP2 MSTORE PUSH1 0x20 ADD SWAP1 DUP2 MSTORE PUSH1 0x20 ADD PUSH0 KECCAK256 SLOAD PUSH1 0x40 MLOAD PUSH2 0x669 SWAP4 SWAP3 SWAP2 SWAP1 PUSH2 0xA4F JUMP JUMPDEST PUSH1 0x40 MLOAD DUP1 SWAP2 SUB SWAP1 LOG1 POP PUSH0 PUSH1 0x4 DUP2 SWAP1 SSTORE POP POP JUMP JUMPDEST PUSH32 0x0 DUP2 JUMP JUMPDEST PUSH2 0x6AA CALLER CALLVALUE PUSH2 0x208 JUMP JUMPDEST JUMP JUMPDEST PUSH0 DUP1 PUSH0 DUP4 PUSH20 0xFFFFFFFFFFFFFFFFFFFFFFFFFFFFFFFFFFFFFFFF AND PUSH20 0xFFFFFFFFFFFFFFFFFFFFFFFFFFFFFFFFFFFFFFFF AND DUP2 MSTORE PUSH1 0x20 ADD SWAP1 DUP2 MSTORE PUSH1 0x20 ADD PUSH0 KECCAK256 SLOAD SWAP1 POP SWAP2 SWAP1 POP JUMP JUMPDEST PUSH32 0x0 DUP2 JUMP JUMPDEST PUSH1 0x2 SLOAD DUP2 JUMP JUMPDEST PUSH0 DUP1 PUSH1 0x3 SLOAD SWAP1 POP PUSH32 0x0 DUP2 LT ISZERO PUSH2 0x77B JUMPI DUP1 PUSH32 0x0 PUSH2 0x776 SWAP2 SWAP1 PUSH2 0xA1C JUMP JUMPDEST PUSH2 0x77D JUMP JUMPDEST PUSH0 JUMPDEST SWAP2 POP POP SWAP1 JUMP JUMPDEST PUSH0 DUP3 PUSH20 0xFFFFFFFFFFFFFFFFFFFFFFFFFFFFFFFFFFFFFFFF AND DUP3 PUSH1 0x40 MLOAD PUSH2 0x7A8 SWAP1 PUSH2 0xAB1 JUMP JUMPDEST PUSH0 PUSH1 0x40 MLOAD DUP1 DUP4 SUB DUP2 DUP6 DUP8 GAS CALL SWAP3 POP POP POP RETURNDATASIZE DUP1 PUSH0 DUP2 EQ PUSH2 0x7E2 JUMPI PUSH1 0x40 MLOAD SWAP2 POP PUSH1 0x1F NOT PUSH1 0x3F RETURNDATASIZE ADD AND DUP3 ADD PUSH1 0x40 MSTORE RETURNDATASIZE DUP3 MSTORE RETURNDATASIZE PUSH0 PUSH1 0x20 DUP5 ADD RETURNDATACOPY PUSH2 0x7E7 JUMP JUMPDEST PUSH1 0x60 SWAP2 POP JUMPDEST POP POP SWAP1 POP DUP1 PUSH2 0x82F JUMPI DUP3 DUP3 PUSH1 0x40 MLOAD PUSH32 0xC66CEE3800000000000000000000000000000000000000000000000000000000 DUP2 MSTORE PUSH1 0x4 ADD PUSH2 0x826 SWAP3 SWAP2 SWAP1 PUSH2 0xAC5 JUMP JUMPDEST PUSH1 0x40 MLOAD DUP1 SWAP2 SUB SWAP1 REVERT JUMPDEST POP POP POP JUMP JUMPDEST PUSH0 DUP2 SWAP1 POP SWAP2 SWAP1 POP JUMP JUMPDEST PUSH2 0x846 DUP2 PUSH2 0x834 JUMP JUMPDEST DUP3 MSTORE POP POP JUMP JUMPDEST PUSH0 PUSH1 0x20 DUP3 ADD SWAP1 POP PUSH2 0x85F PUSH0 DUP4 ADD DUP5 PUSH2 0x83D JUMP JUMPDEST SWAP3 SWAP2 POP POP JUMP JUMPDEST PUSH0 DUP1 REVERT JUMPDEST PUSH2 0x872 DUP2 PUSH2 0x834 JUMP JUMPDEST DUP2 EQ PUSH2 0x87C JUMPI PUSH0 DUP1 REVERT JUMPDEST POP JUMP JUMPDEST PUSH0 DUP2 CALLDATALOAD SWAP1 POP PUSH2 0x88D DUP2 PUSH2 0x869 JUMP JUMPDEST SWAP3 SWAP2 POP POP JUMP JUMPDEST PUSH0 PUSH1 0x20 DUP3 DUP5 SUB SLT ISZERO PUSH2 0x8A8 JUMPI PUSH2 0x8A7 PUSH2 0x865 JUMP JUMPDEST JUMPDEST PUSH0 PUSH2 0x8B5 DUP5 DUP3 DUP6 ADD PUSH2 0x87F JUMP JUMPDEST SWAP2 POP POP SWAP3 SWAP2 POP POP JUMP JUMPDEST PUSH0 PUSH20 0xFFFFFFFFFFFFFFFFFFFFFFFFFFFFFFFFFFFFFFFF DUP3 AND SWAP1 POP SWAP2 SWAP1 POP JUMP JUMPDEST PUSH0 PUSH2 0x8E7 DUP3 PUSH2 0x8BE JUMP JUMPDEST SWAP1 POP SWAP2 SWAP1 POP JUMP JUMPDEST PUSH2 0x8F7 DUP2 PUSH2 0x8DD JUMP JUMPDEST DUP2 EQ PUSH2 0x901 JUMPI PUSH0 DUP1 REVERT JUMPDEST POP JUMP JUMPDEST PUSH0 DUP2 CALLDATALOAD SWAP1 POP PUSH2 0x912 DUP2 PUSH2 0x8EE JUMP JUMPDEST SWAP3 SWAP2 POP POP JUMP JUMPDEST PUSH0 PUSH1 0x20 DUP3 DUP5 SUB SLT ISZERO PUSH2 0x92D JUMPI PUSH2 0x92C PUSH2 0x865 JUMP JUMPDEST JUMPDEST PUSH0 PUSH2 0x93A DUP5 DUP3 DUP6 ADD PUSH2 0x904 JUMP JUMPDEST SWAP2 POP POP SWAP3 SWAP2 POP POP JUMP JUMPDEST PUSH0 PUSH1 0x40 DUP3 ADD SWAP1 POP PUSH2 0x956 PUSH0 DUP4 ADD DUP6 PUSH2 0x83D JUMP JUMPDEST PUSH2 0x963 PUSH1 0x20 DUP4 ADD DUP5 PUSH2 0x83D JUMP JUMPDEST SWAP4 SWAP3 POP POP POP JUMP JUMPDEST PUSH32 0x4E487B7100000000000000000000000000000000000000000000000000000000 PUSH0 MSTORE PUSH1 0x11 PUSH1 0x4 MSTORE PUSH1 0x24 PUSH0 REVERT JUMPDEST PUSH0 PUSH2 0x9A1 DUP3 PUSH2 0x834 JUMP JUMPDEST SWAP2 POP PUSH2 0x9AC DUP4 PUSH2 0x834 JUMP JUMPDEST SWAP3 POP DUP3 DUP3 ADD SWAP1 POP DUP1 DUP3 GT ISZERO PUSH2 0x9C4 JUMPI PUSH2 0x9C3 PUSH2 0x96A JUMP JUMPDEST JUMPDEST SWAP3 SWAP2 POP POP JUMP JUMPDEST PUSH2 0x9D3 DUP2 PUSH2 0x8DD JUMP JUMPDEST DUP3 MSTORE POP POP JUMP JUMPDEST PUSH0 PUSH1 0x80 DUP3 ADD SWAP1 POP PUSH2 0x9EC PUSH0 DUP4 ADD DUP8 PUSH2 0x9CA JUMP JUMPDEST PUSH2 0x9F9 PUSH1 0x20 DUP4 ADD DUP7 PUSH2 0x83D JUMP JUMPDEST PUSH2 0xA06 PUSH1 0x40 DUP4 ADD DUP6 PUSH2 0x83D JUMP JUMPDEST PUSH2 0xA13 PUSH1 0x60 DUP4 ADD DUP5 PUSH2 0x83D JUMP JUMPDEST SWAP6 SWAP5 POP POP POP POP POP JUMP JUMPDEST PUSH0 PUSH2 0xA26 DUP3 PUSH2 0x834 JUMP JUMPDEST SWAP2 POP PUSH2 0xA31 DUP4 PUSH2 0x834 JUMP JUMPDEST SWAP3 POP DUP3 DUP3 SUB SWAP1 POP DUP2 DUP2 GT ISZERO PUSH2 0xA49 JUMPI PUSH2 0xA48 PUSH2 0x96A JUMP JUMPDEST JUMPDEST SWAP3 SWAP2 POP POP JUMP JUMPDEST PUSH0 PUSH1 0x60 DUP3 ADD SWAP1 POP PUSH2 0xA62 PUSH0 DUP4 ADD DUP7 PUSH2 0x9CA JUMP JUMPDEST PUSH2 0xA6F PUSH1 0x20 DUP4 ADD DUP6 PUSH2 0x83D JUMP JUMPDEST PUSH2 0xA7C PUSH1 0x40 DUP4 ADD DUP5 PUSH2 0x83D JUMP JUMPDEST SWAP5 SWAP4 POP POP POP POP JUMP JUMPDEST PUSH0 DUP2 SWAP1 POP SWAP3 SWAP2 POP POP JUMP JUMPDEST POP JUMP JUMPDEST PUSH0 PUSH2 0xA9C PUSH0 DUP4 PUSH2 0xA84 JUMP JUMPDEST SWAP2 POP PUSH2 0xAA7 DUP3 PUSH2 0xA8E JUMP JUMPDEST PUSH0 DUP3 ADD SWAP1 POP SWAP2 SWAP1 POP JUMP JUMPDEST PUSH0 PUSH2 0xABB DUP3 PUSH2 0xA91 JUMP JUMPDEST SWAP2 POP DUP2 SWAP1 POP SWAP2 SWAP1 POP JUMP JUMPDEST PUSH0 PUSH1 0x40 DUP3 ADD SWAP1 POP PUSH2 0xAD8 PUSH0 DUP4 ADD DUP6 PUSH2 0x9CA JUMP JUMPDEST PUSH2 0xAE5 PUSH1 0x20 DUP4 ADD DUP5 PUSH2 0x83D JUMP JUMPDEST SWAP4 SWAP3 POP POP POP JUMP INVALID LOG2 PUSH5 0x6970667358 0x22 SLT KECCAK256 DUP10 0xDC 0xA8 0xEB 0xD PUSH3 0x714FA8 DIV DUP13 0xC6 0xBA 0xD1 PUSH6 0xECE370976BCB 0xBE SWAP2 0xF7 0xBF 0x2D 0xAE 0x2E PUSH6 0x1ACAA064736F PUSH13 0x634300081A0033000000000000 "
		},
		"gasEstimates": {
			"creation": {
				"codeDepositCost": "570000",
				"executionCost": "infinite",
				"totalCost": "infinite"
			},
			"external": {
				"CapacidadDeDepositoRestante()": "infinite",
				"Deposito()": "infinite",
				"LimitePorBanco()": "infinite",
				"LimiteRetiroPorTransaccion()": "infinite",
				"NumeroDeDepositos()": "2426",
				"NumeroDeRetiros()": "2513",
				"RetiroSaldo(uint256)": "infinite",
				"SaldoDeCuenta(address)": "2873",
				"TotalDepositado()": "2448"
			},
			"internal": {
				"_CapacidadRemanente()": "infinite",
				"_deposito(address,uint256)": "infinite",
				"_safeSend(address,uint256)": "infinite"
			}
		},
		"methodIdentifiers": {
			"CapacidadDeDepositoRestante()": "2a7fe4e9",
			"Deposito()": "5e68d306",
			"LimitePorBanco()": "e443900e",
			"LimiteRetiroPorTransaccion()": "3c3089c0",
			"NumeroDeDepositos()": "12462f66",
			"NumeroDeRetiros()": "f6d3bde8",
			"RetiroSaldo(uint256)": "39bf7744",
			"SaldoDeCuenta(address)": "991bc4f3",
			"TotalDepositado()": "134ad0c8"
		}
	},
	"abi": [
		{
			"inputs": [
				{
					"internalType": "uint256",
					"name": "_LimitePorBanco",
					"type": "uint256"
				},
				{
					"internalType": "uint256",
					"name": "_LimiteRetiroPorTransaccion",
					"type": "uint256"
				}
			],
			"stateMutability": "nonpayable",
			"type": "constructor"
		},
		{
			"inputs": [],
			"name": "CantidadIgualACero",
			"type": "error"
		},
		{
			"inputs": [
				{
					"internalType": "uint256",
					"name": "Requerido",
					"type": "uint256"
				},
				{
					"internalType": "uint256",
					"name": "Disponible",
					"type": "uint256"
				}
			],
			"name": "ExcedeBalance",
			"type": "error"
		},
		{
			"inputs": [
				{
					"internalType": "uint256",
					"name": "Requerido",
					"type": "uint256"
				},
				{
					"internalType": "uint256",
					"name": "Remanente",
					"type": "uint256"
				}
			],
			"name": "ExcedeCapacidadPorBanco",
			"type": "error"
		},
		{
			"inputs": [
				{
					"internalType": "uint256",
					"name": "Requerido",
					"type": "uint256"
				},
				{
					"internalType": "uint256",
					"name": "LimitePorTransaccion",
					"type": "uint256"
				}
			],
			"name": "ExcedeLimitePorTransaccion",
			"type": "error"
		},
		{
			"inputs": [],
			"name": "Reentrada",
			"type": "error"
		},
		{
			"inputs": [
				{
					"internalType": "address",
					"name": "Recepctor",
					"type": "address"
				},
				{
					"internalType": "uint256",
					"name": "Cantidad",
					"type": "uint256"
				}
			],
			"name": "TransferenciaFallida",
			"type": "error"
		},
		{
			"anonymous": false,
			"inputs": [
				{
					"indexed": false,
					"internalType": "address",
					"name": "Cuenta",
					"type": "address"
				},
				{
					"indexed": false,
					"internalType": "uint256",
					"name": "Cantidad",
					"type": "uint256"
				},
				{
					"indexed": false,
					"internalType": "uint256",
					"name": "BalanceResultante",
					"type": "uint256"
				},
				{
					"indexed": false,
					"internalType": "uint256",
					"name": "DepositoTotalGlobal",
					"type": "uint256"
				}
			],
			"name": "Depositado",
			"type": "event"
		},
		{
			"anonymous": false,
			"inputs": [
				{
					"indexed": false,
					"internalType": "address",
					"name": "Cuenta",
					"type": "address"
				},
				{
					"indexed": false,
					"internalType": "uint256",
					"name": "Cantidad",
					"type": "uint256"
				},
				{
					"indexed": false,
					"internalType": "uint256",
					"name": "BalanceResultante",
					"type": "uint256"
				}
			],
			"name": "Retiro",
			"type": "event"
		},
		{
			"inputs": [],
			"name": "CapacidadDeDepositoRestante",
			"outputs": [
				{
					"internalType": "uint256",
					"name": "",
					"type": "uint256"
				}
			],
			"stateMutability": "view",
			"type": "function"
		},
		{
			"inputs": [],
			"name": "Deposito",
			"outputs": [],
			"stateMutability": "payable",
			"type": "function"
		},
		{
			"inputs": [],
			"name": "LimitePorBanco",
			"outputs": [
				{
					"internalType": "uint256",
					"name": "",
					"type": "uint256"
				}
			],
			"stateMutability": "view",
			"type": "function"
		},
		{
			"inputs": [],
			"name": "LimiteRetiroPorTransaccion",
			"outputs": [
				{
					"internalType": "uint256",
					"name": "",
					"type": "uint256"
				}
			],
			"stateMutability": "view",
			"type": "function"
		},
		{
			"inputs": [],
			"name": "NumeroDeDepositos",
			"outputs": [
				{
					"internalType": "uint256",
					"name": "",
					"type": "uint256"
				}
			],
			"stateMutability": "view",
			"type": "function"
		},
		{
			"inputs": [],
			"name": "NumeroDeRetiros",
			"outputs": [
				{
					"internalType": "uint256",
					"name": "",
					"type": "uint256"
				}
			],
			"stateMutability": "view",
			"type": "function"
		},
		{
			"inputs": [
				{
					"internalType": "uint256",
					"name": "Cantidad",
					"type": "uint256"
				}
			],
			"name": "RetiroSaldo",
			"outputs": [],
			"stateMutability": "nonpayable",
			"type": "function"
		},
		{
			"inputs": [
				{
					"internalType": "address",
					"name": "Cuenta",
					"type": "address"
				}
			],
			"name": "SaldoDeCuenta",
			"outputs": [
				{
					"internalType": "uint256",
					"name": "",
					"type": "uint256"
				}
			],
			"stateMutability": "view",
			"type": "function"
		},
		{
			"inputs": [],
			"name": "TotalDepositado",
			"outputs": [
				{
					"internalType": "uint256",
					"name": "",
					"type": "uint256"
				}
			],
			"stateMutability": "view",
			"type": "function"
		},
		{
			"stateMutability": "payable",
			"type": "receive"
		}
	]
}